{
	"data": {
		"bytecode": {
			"linkReferences": {},
			"object": "6080604052601e600b556000600c819055600d8190556064600e55600f556011805462ffff001960ff199091166001171690553480156200003f57600080fd5b5060405162004b4738038062004b47833981016040819052620000629162000961565b8151829082906200007b90600090602085019062000820565b5080516200009190600190602084019062000820565b505050620000ae620000a86200011d60201b60201c565b62000121565b8351620000c390601090602087019062000820565b50620000cf8362000173565b620000d96200020c565b7f8a274cdd629b9aae599b13d8bfee3ee4a15350b0386a9b64087a393db009376760106040516200010b919062000af2565b60405180910390a15050505062000de7565b3390565b600a80546001600160a01b038381166001600160a01b0319831681179093556040519116919082907f8be0079c531659141344cd1fd0a4f28419497f9722a3daafe3b4186f6b6457e090600090a35050565b60005b815181101562000208577fc3804b311cb423d6a5c669b1a91eaa36c50f5d1a91f8ab0663a237f5dc41226360146000848481518110620001c657634e487b7160e01b600052603260045260246000fd5b60200260200101516001600160a01b03166001600160a01b03168152602001908152602001600020819055508080620001ff9062000d9d565b91505062000176565b5050565b60005b600a8110156200024e5762000239735c036bee95b37532d7bc364f756efa10667f1aa38262000251565b80620002458162000d9d565b9150506200020f565b50565b620002088282604051806020016040528060008152506200027360201b60201c565b6200027f8383620002bb565b6200028e6000848484620003b0565b620002b65760405162461bcd60e51b8152600401620002ad9062000ba8565b60405180910390fd5b505050565b6001600160a01b038216620002e45760405162461bcd60e51b8152600401620002ad9062000c7b565b620002ef81620004e9565b156200030f5760405162461bcd60e51b8152600401620002ad9062000bfa565b6200031d6000838362000506565b6001600160a01b03821660009081526003602052604081208054600192906200034890849062000cf8565b909155505060008181526002602052604080822080546001600160a01b0319166001600160a01b03861690811790915590518392907fddf252ad1be2c89b69c2b068fc378daa952ba7f163c4a11628f55a4df523b3ef908290a46200020860008383620002b6565b6000620003d1846001600160a01b0316620005aa60201b6200213f1760201c565b15620004dd576001600160a01b03841663150b7a02620003f06200011d565b8786866040518563ffffffff1660e01b815260040162000414949392919062000a9c565b602060405180830381600087803b1580156200042f57600080fd5b505af192505050801562000462575060408051601f3d908101601f191682019092526200045f9181019062000930565b60015b620004c2573d80801562000493576040519150601f19603f3d011682016040523d82523d6000602084013e62000498565b606091505b508051620004ba5760405162461bcd60e51b8152600401620002ad9062000ba8565b805181602001fd5b6001600160e01b031916630a85bd0160e11b149050620004e1565b5060015b949350505050565b6000908152600260205260409020546001600160a01b0316151590565b6200051e838383620002b660201b62000bad1760201c565b6001600160a01b0383166200053e576200053881620005b9565b62000564565b816001600160a01b0316836001600160a01b0316146200056457620005648382620005fd565b6001600160a01b03821662000584576200057e81620006aa565b620002b6565b826001600160a01b0316826001600160a01b031614620002b657620002b6828262000788565b6001600160a01b03163b151590565b600880546000838152600960205260408120829055600182018355919091527ff3f7a9fe364faab93b216da50a3214154f22a0a2b415b23a84c8169e8b636ee30155565b600060016200061784620007d960201b620014a91760201c565b62000623919062000d13565b60008381526007602052604090205490915080821462000677576001600160a01b03841660009081526006602090815260408083208584528252808320548484528184208190558352600790915290208190555b5060009182526007602090815260408084208490556001600160a01b039094168352600681528383209183525290812055565b600854600090620006be9060019062000d13565b60008381526009602052604081205460088054939450909284908110620006f557634e487b7160e01b600052603260045260246000fd5b9060005260206000200154905080600883815481106200072557634e487b7160e01b600052603260045260246000fd5b60009182526020808320909101929092558281526009909152604080822084905585825281205560088054806200076c57634e487b7160e01b600052603160045260246000fd5b6001900381819060005260206000200160009055905550505050565b6000620007a083620007d960201b620014a91760201c565b6001600160a01b039093166000908152600660209081526040808320868452825280832085905593825260079052919091209190915550565b60006001600160a01b038216620008045760405162461bcd60e51b8152600401620002ad9062000c31565b506001600160a01b031660009081526003602052604090205490565b8280546200082e9062000d60565b90600052602060002090601f0160209004810192826200085257600085556200089d565b82601f106200086d57805160ff19168380011785556200089d565b828001600101855582156200089d579182015b828111156200089d57825182559160200191906001019062000880565b50620008ab929150620008af565b5090565b5b80821115620008ab5760008155600101620008b0565b600082601f830112620008d7578081fd5b81516001600160401b03811115620008f357620008f362000dd1565b62000908601f8201601f191660200162000cb0565b8181528460208386010111156200091d578283fd5b620004e182602083016020870162000d2d565b60006020828403121562000942578081fd5b81516001600160e01b0319811681146200095a578182fd5b9392505050565b6000806000806080858703121562000977578283fd5b84516001600160401b03808211156200098e578485fd5b6200099c88838901620008c6565b9550602091508187015181811115620009b3578586fd5b8701601f81018913620009c4578586fd5b805182811115620009d957620009d962000dd1565b838102620009e985820162000cb0565b8281528581019084870183860188018e101562000a04578a8bfd5b8a95505b8486101562000a4057805193506001600160a01b038416841462000a2a578a8bfd5b8383526001959095019491870191870162000a08565b508099505050505050604087015191508082111562000a5d578384fd5b62000a6b88838901620008c6565b9350606087015191508082111562000a81578283fd5b5062000a9087828801620008c6565b91505092959194509250565b600060018060a01b03808716835280861660208401525083604083015260806060830152825180608084015262000adb8160a085016020870162000d2d565b601f01601f19169190910160a00195945050505050565b600060208083528184548360028204905060018083168062000b1557607f831692505b85831081141562000b3457634e487b7160e01b87526022600452602487fd5b62000b4283878a0162000cef565b81801562000b59576001811462000b6b5762000b99565b60ff1986168252878201965062000b99565b62000b768b62000ce3565b895b8681101562000b935781548482015290850190890162000b78565b83019750505b50949998505050505050505050565b60208082526032908201527f4552433732313a207472616e7366657220746f206e6f6e20455243373231526560408201527131b2b4bb32b91034b6b83632b6b2b73a32b960711b606082015260800190565b6020808252601c908201527f4552433732313a20746f6b656e20616c7265616479206d696e74656400000000604082015260600190565b6020808252602a908201527f4552433732313a2062616c616e636520717565727920666f7220746865207a65604082015269726f206164647265737360b01b606082015260800190565b6020808252818101527f4552433732313a206d696e7420746f20746865207a65726f2061646472657373604082015260600190565b604051601f8201601f191681016001600160401b038111828210171562000cdb5762000cdb62000dd1565b604052919050565b60009081526020902090565b90815260200190565b6000821982111562000d0e5762000d0e62000dbb565b500190565b60008282101562000d285762000d2862000dbb565b500390565b60005b8381101562000d4a57818101518382015260200162000d30565b8381111562000d5a576000848401525b50505050565b60028104600182168062000d7557607f821691505b6020821081141562000d9757634e487b7160e01b600052602260045260246000fd5b50919050565b600060001982141562000db45762000db462000dbb565b5060010190565b634e487b7160e01b600052601160045260246000fd5b634e487b7160e01b600052604160045260246000fd5b613d508062000df76000396000f3fe60806040526004361061038c5760003560e01c8063715018a6116101dc578063c8844a0a11610102578063eb1edd61116100a0578063f03766901161006f578063f03766901461098d578063f2fde38b146109ad578063f759867a146109cd578063facd743b146109e05761038c565b8063eb1edd6114610656578063ed1fc2a214610943578063efeb5e5814610958578063f0292a03146109785761038c565b8063d5abeb01116100dc578063d5abeb01146108d9578063e0da260c146108ee578063e1b6e0981461090e578063e985e9c5146109235761038c565b8063c8844a0a1461088f578063d4b12530146108a4578063d547cfb7146108c45761038c565b8063a0712d681161017a578063b88d4fde11610149578063b88d4fde1461080f578063b89fc30a1461082f578063c457fb371461084f578063c87b56dd1461086f5761038c565b8063a0712d68146107a7578063a22cb465146107ba578063aef6ee1f146107da578063b66a0e5d146107fa5761038c565b80638753367f116101b65780638753367f146107485780638d859f3e146107685780638da5cb5b1461077d57806395d89b41146107925761038c565b8063715018a6146107005780637dc9e79b146107155780638166f39b146107285761038c565b80633041332e116102c1578063553211731161025f5780636352211e1161022e5780636352211e146106805780636f8b44b0146106a057806370480275146106c057806370a08231146106e05761038c565b8063553211731461061657806355f804b3146106365780635e9ea6521461065657806362dc6e211461066b5761038c565b80634d238c8e1161029b5780634d238c8e146105a15780634f6ccce7146105c157806353aa8899146105e1578063549527c3146106015761038c565b80633041332e1461054157806340a141ff1461056157806342842e0e146105815761038c565b806318160ddd1161032e57806329155f2c1161030857806329155f2c146104e45780632d296bf1146104f95780632f745c591461050c5780632f8145751461052c5761038c565b806318160ddd1461048f57806323b872dd146104a457806324d7806c146104c45761038c565b8063081812fc1161036a578063081812fc146103fe578063095ea7b31461042b57806309d42b301461044d5780631785f53c1461046f5761038c565b806301ffc9a71461039157806304c98b2b146103c757806306fdde03146103dc575b600080fd5b34801561039d57600080fd5b506103b16103ac366004612f03565b610a00565b6040516103be91906130e0565b60405180910390f35b3480156103d357600080fd5b506103b1610a2d565b3480156103e857600080fd5b506103f1610a3c565b6040516103be919061311a565b34801561040a57600080fd5b5061041e610419366004612fa8565b610ace565b6040516103be9190613076565b34801561043757600080fd5b5061044b610446366004612e31565b610b1a565b005b34801561045957600080fd5b50610462610bb2565b6040516103be9190613b73565b34801561047b57600080fd5b5061044b61048a366004612cac565b610bb7565b34801561049b57600080fd5b50610462610c91565b3480156104b057600080fd5b5061044b6104bf366004612cf8565b610c97565b3480156104d057600080fd5b506103b16104df366004612cac565b610ccf565b3480156104f057600080fd5b50610462610cfa565b61044b610507366004612fa8565b610cff565b34801561051857600080fd5b50610462610527366004612e31565b610ea1565b34801561053857600080fd5b5061044b610ef3565b34801561054d57600080fd5b5061044b61055c366004612fe4565b610f4f565b34801561056d57600080fd5b5061044b61057c366004612cac565b61103e565b34801561058d57600080fd5b5061044b61059c366004612cf8565b61110d565b3480156105ad57600080fd5b5061044b6105bc366004612cac565b611147565b3480156105cd57600080fd5b506104626105dc366004612fa8565b6111df565b3480156105ed57600080fd5b5061044b6105fc366004612fc0565b61123a565b34801561060d57600080fd5b506104626112b0565b34801561062257600080fd5b506103b1610631366004612cac565b6112b5565b34801561064257600080fd5b5061044b610651366004612f3b565b6112ca565b34801561066257600080fd5b5061041e611353565b34801561067757600080fd5b5061046261136b565b34801561068c57600080fd5b5061041e61069b366004612fa8565b611377565b3480156106ac57600080fd5b5061044b6106bb366004612fa8565b6113ac565b3480156106cc57600080fd5b5061044b6106db366004612cac565b611411565b3480156106ec57600080fd5b506104626106fb366004612cac565b6114a9565b34801561070c57600080fd5b5061044b6114ed565b61044b610723366004612fa8565b611538565b34801561073457600080fd5b5061044b610743366004612cac565b6115d9565b34801561075457600080fd5b5061044b610763366004612fa8565b611639565b34801561077457600080fd5b50610462611706565b34801561078957600080fd5b5061041e611712565b34801561079e57600080fd5b506103f1611721565b61044b6107b5366004612fa8565b611730565b3480156107c657600080fd5b5061044b6107d5366004612e08565b6117fd565b3480156107e657600080fd5b5061044b6107f5366004612e5a565b611813565b34801561080657600080fd5b506103b1611930565b34801561081b57600080fd5b5061044b61082a366004612d33565b61193e565b34801561083b57600080fd5b5061044b61084a366004612e9a565b61197d565b34801561085b57600080fd5b5061046261086a366004612fa8565b611a6b565b34801561087b57600080fd5b506103f161088a366004612fa8565b611b44565b34801561089b57600080fd5b50610462611bc7565b3480156108b057600080fd5b506103b16108bf366004612cac565b611bcc565b3480156108d057600080fd5b506103f1611c09565b3480156108e557600080fd5b50610462611c97565b3480156108fa57600080fd5b5061044b610909366004612fa8565b611c9d565b34801561091a57600080fd5b50610462611dfa565b34801561092f57600080fd5b506103b161093e366004612cc6565b611dff565b34801561094f57600080fd5b5061044b611e2d565b34801561096457600080fd5b5061041e610973366004612fa8565b611e8b565b34801561098457600080fd5b50610462611eb5565b34801561099957600080fd5b506104626109a8366004612fa8565b611eba565b3480156109b957600080fd5b5061044b6109c8366004612cac565b611ecc565b61044b6109db366004612fa8565b611f3d565b3480156109ec57600080fd5b506103b16109fb366004612cac565b612114565b60006001600160e01b0319821663780e9d6360e01b1480610a255750610a258261214e565b90505b919050565b60115462010000900460ff1681565b606060008054610a4b90613c18565b80601f0160208091040260200160405190810160405280929190818152602001828054610a7790613c18565b8015610ac45780601f10610a9957610100808354040283529160200191610ac4565b820191906000526020600020905b815481529060010190602001808311610aa757829003601f168201915b5050505050905090565b6000610ad98261218e565b610afe5760405162461bcd60e51b8152600401610af590613855565b60405180910390fd5b506000908152600460205260409020546001600160a01b031690565b6000610b2582611377565b9050806001600160a01b0316836001600160a01b03161415610b595760405162461bcd60e51b8152600401610af590613953565b806001600160a01b0316610b6b6121ab565b6001600160a01b03161480610b875750610b878161093e6121ab565b610ba35760405162461bcd60e51b8152600401610af5906136b2565b610bad83836121af565b505050565b600c81565b610bbf6121ab565b6001600160a01b0316610bd0611712565b6001600160a01b031614610bf65760405162461bcd60e51b8152600401610af5906138cf565b6001600160a01b038116600090815260146020526040902054600080516020613cfb83398151915214610c3b5760405162461bcd60e51b8152600401610af5906138a1565b6001600160a01b03811660009081526014602052604080822091909155517f753f40ca3312b2408759a67875b367955e7baa221daf08aa3d643d96202ac12b90610c86908390613076565b60405180910390a150565b60085490565b610ca8610ca26121ab565b8261221d565b610cc45760405162461bcd60e51b8152600401610af5906139cb565b610bad8383836122a2565b6001600160a01b0316600090815260146020526040902054600080516020613cfb8339815191521490565b600881565b80610d098161218e565b50610d1382611a6b565b3414610d315760405162461bcd60e51b8152600401610af59061381e565b6000828152601860209081526040808320546015909252909120546001600160a01b039091169060021480610d7457506000838152601560205260409020546003145b610d905760405162461bcd60e51b8152600401610af590613685565b6000838152601760205260409020543414610dbd5760405162461bcd60e51b8152600401610af59061319b565b610dc56121ab565b6001600160a01b0316816001600160a01b03161415610df65760405162461bcd60e51b8152600401610af590613563565b6000838152601960205260408120805491610e1083613c53565b9091555050600083815260156020526040812055600e54610e3084611a6b565b610e3a9190613bb6565b600f6000828254610e4b9190613b8a565b90915550506001600160a01b0381166108fc610e6685611a6b565b6040518115909202916000818181858888f19350505050158015610e8e573d6000803e3d6000fd5b50610bad30610e9b6121ab565b856122a2565b6000610eac836114a9565b8210610eca5760405162461bcd60e51b8152600401610af590613285565b506001600160a01b03919091166000908152600660209081526040808320938352929052205490565b610efb6121ab565b6001600160a01b0316610f0c611712565b6001600160a01b031614610f325760405162461bcd60e51b8152600401610af5906138cf565b6011805461ff001981166101009182900460ff1615909102179055565b82610f598161218e565b506000610f6585611377565b9050610f6f6121ab565b6001600160a01b0316816001600160a01b031614610f9f5760405162461bcd60e51b8152600401610af59061324e565b60008411610fbf5760405162461bcd60e51b8152600401610af59061365f565b600085815260176020526040902084905560018315151415610ff257600085815260156020526040902060039055611005565b6000858152601560205260409020600190555b600085815260186020526040902080546001600160a01b0319166001600160a01b0383161790556110378130876122a2565b5050505050565b6110466121ab565b6001600160a01b0316611057611712565b6001600160a01b03161461107d5760405162461bcd60e51b8152600401610af5906138cf565b6001600160a01b038116600090815260146020526040902054600080516020613cdb833981519152146110c25760405162461bcd60e51b8152600401610af5906134e8565b6001600160a01b03811660009081526014602052604080822091909155517f1af60f72d206709ac9c5fd393b54381507af4df1feb01708422ef8498c57aa5790610c86908390613076565b600081815260196020526040812080549161112783613c53565b9190505550610bad8383836040518060200160405280600081525061193e565b61114f6121ab565b6001600160a01b0316611160611712565b6001600160a01b0316146111865760405162461bcd60e51b8152600401610af5906138cf565b6001600160a01b03811660009081526014602052604090819020600080516020613cdb8339815191529055517fa885915389b11a607b904893422ada8a2787d4ce8a8e2a83a3f35b19e3d0126690610c86908390613076565b60006111e9610c91565b82106112075760405162461bcd60e51b8152600401610af590613a1c565b6008828154811061122857634e487b7160e01b600052603260045260246000fd5b90600052602060002001549050919050565b600080516020613cfb833981519152601460006112556121ab565b6001600160a01b03166001600160a01b0316815260200190815260200160002054146112935760405162461bcd60e51b8152600401610af590613628565b6011805460ff191692151592909217909155600c91909155600d55565b600b81565b60166020526000908152604090205460ff1681565b6112d26121ab565b6001600160a01b03166112e3611712565b6001600160a01b0316146113095760405162461bcd60e51b8152600401610af5906138cf565b61131560108383612b16565b507f8a274cdd629b9aae599b13d8bfee3ee4a15350b0386a9b64087a393db009376782826040516113479291906130eb565b60405180910390a15050565b735c036bee95b37532d7bc364f756efa10667f1aa381565b67016345785d8a000081565b6000818152600260205260408120546001600160a01b031680610a255760405162461bcd60e51b8152600401610af5906137a0565b6113b46121ab565b6001600160a01b03166113c5611712565b6001600160a01b0316146113eb5760405162461bcd60e51b8152600401610af5906138cf565b600b54811161140c5760405162461bcd60e51b8152600401610af590613219565b600b55565b6114196121ab565b6001600160a01b031661142a611712565b6001600160a01b0316146114505760405162461bcd60e51b8152600401610af5906138cf565b6001600160a01b03811660009081526014602052604090819020600080516020613cfb8339815191529055517fb1dd89cdf7fb35e46c90cd4a4d952f58f00aaeb764d2b09967740afe8aedee4390610c86908390613076565b60006001600160a01b0382166114d15760405162461bcd60e51b8152600401610af59061370f565b506001600160a01b031660009081526003602052604090205490565b6114f56121ab565b6001600160a01b0316611506611712565b6001600160a01b03161461152c5760405162461bcd60e51b8152600401610af5906138cf565b61153660006123d5565b565b806115428161218e565b506000828152601860209081526040808320546015909252909120546001600160a01b03909116906115865760405162461bcd60e51b8152600401610af590613685565b61158e6121ab565b6001600160a01b0316816001600160a01b0316146115be5760405162461bcd60e51b8152600401610af5906135f1565b600083815260156020526040812055610bad30610e9b6121ab565b6115e16121ab565b6001600160a01b03166115f2611712565b6001600160a01b0316146116185760405162461bcd60e51b8152600401610af5906138cf565b6001600160a01b03166000908152601660205260409020805460ff19169055565b600080516020613cdb833981519152601460006116546121ab565b6001600160a01b03166001600160a01b0316815260200190815260200160002054146116925760405162461bcd60e51b8152600401610af590613b05565b6000818152601560205260409020546001146116c05760405162461bcd60e51b8152600401610af590613aab565b6000818152601560205260409081902060029081905590517f1fc47cb65036cc45b76cd85a8d60691eef53106145839d51855dd982c7df8c0c91610c8691849190613b7c565b6702c68af0bb14000081565b600a546001600160a01b031690565b606060018054610a4b90613c18565b601154610100900460ff166117575760405162461bcd60e51b8152600401610af590613ad7565b600b5481611763610c91565b61176d9190613b8a565b111561178b5760405162461bcd60e51b8152600401610af590613b3c565b61179d816702c68af0bb140000613bb6565b34146117bb5760405162461bcd60e51b8152600401610af59061381e565b60006117c5610c91565b9050805b6117d38383613b8a565b811015610bad576117eb6117e56121ab565b82612427565b806117f581613c53565b9150506117c9565b61180f6118086121ab565b8383612441565b5050565b61181b6121ab565b6001600160a01b031661182c611712565b6001600160a01b0316146118525760405162461bcd60e51b8152600401610af5906138cf565b60005b81811015610bad57600083838381811061187f57634e487b7160e01b600052603260045260246000fd5b90506020020160208101906118949190612cac565b6001600160a01b031614156118bb5760405162461bcd60e51b8152600401610af590613994565b6001601660008585858181106118e157634e487b7160e01b600052603260045260246000fd5b90506020020160208101906118f69190612cac565b6001600160a01b031681526020810191909152604001600020805460ff19169115159190911790558061192881613c53565b915050611855565b601154610100900460ff1681565b61194f6119496121ab565b8361221d565b61196b5760405162461bcd60e51b8152600401610af5906139cb565b611977848484846124e4565b50505050565b600080516020613cfb833981519152601460006119986121ab565b6001600160a01b03166001600160a01b0316815260200190815260200160002054146119d65760405162461bcd60e51b8152600401610af590613628565b6000805b82811015611a2857838382818110611a0257634e487b7160e01b600052603260045260246000fd5b9050602002013582611a149190613b8a565b915080611a2081613c53565b9150506119da565b506064811115611a4a5760405162461bcd60e51b8152600401610af59061342c565b611a5660138484612b9a565b50611a6360128686612bd4565b505050505050565b601154600090819060ff16151560011415611abf57600083815260196020526040812054600d54611a9c9190613bb6565b9050600c54811015611ab95780600c54611ab69190613bd5565b91505b50611aff565b600083815260176020526040902054600c54611ae4906702c68af0bb14000090613bb6565b611aee9190613ba2565b9050600c54811115611aff5750600c545b600e5461271090611b108383613bd5565b611b1a9190613bd5565b600085815260176020526040902054611b339190613bb6565b611b3d9190613ba2565b9392505050565b6060611b4f8261218e565b611b6b5760405162461bcd60e51b8152600401610af590613904565b6000611b75612517565b90506000815111611b955760405180602001604052806000815250611b3d565b80611b9f84612526565b604051602001611bb0929190613044565b604051602081830303815290604052915050919050565b600a81565b6001600160a01b03166000908152601460205260409020547fc3804b311cb423d6a5c669b1a91eaa36c50f5d1a91f8ab0663a237f5dc4122631490565b60108054611c1690613c18565b80601f0160208091040260200160405190810160405280929190818152602001828054611c4290613c18565b8015611c8f5780601f10611c6457610100808354040283529160200191611c8f565b820191906000526020600020905b815481529060010190602001808311611c7257829003601f168201915b505050505081565b600b5481565b600f54604051735c036bee95b37532d7bc364f756efa10667f1aa39180156108fc02916000818181858888f19350505050158015611cdf573d6000803e3d6000fd5b506000600f8190555b60125481101561180f576000606460138381548110611d1757634e487b7160e01b600052603260045260246000fd5b906000526020600020015484611d2d9190613bb6565b611d379190613ba2565b9050600060128381548110611d5c57634e487b7160e01b600052603260045260246000fd5b6000918252602090912001546040516001600160a01b03909116908390611d8290613073565b60006040518083038185875af1925050503d8060008114611dbf576040519150601f19603f3d011682016040523d82523d6000602084013e611dc4565b606091505b5050905080611de55760405162461bcd60e51b8152600401610af59061312d565b50508080611df290613c53565b915050611ce8565b601481565b6001600160a01b03918216600090815260056020908152604080832093909416825291909152205460ff1690565b611e356121ab565b6001600160a01b0316611e46611712565b6001600160a01b031614611e6c5760405162461bcd60e51b8152600401610af5906138cf565b6011805462ff0000198116620100009182900460ff1615909102179055565b60128181548110611e9b57600080fd5b6000918252602090912001546001600160a01b0316905081565b600f81565b60156020526000908152604090205481565b611ed46121ab565b6001600160a01b0316611ee5611712565b6001600160a01b031614611f0b5760405162461bcd60e51b8152600401610af5906138cf565b6001600160a01b038116611f315760405162461bcd60e51b8152600401610af59061336a565b611f3a816123d5565b50565b60115462010000900460ff16611f655760405162461bcd60e51b8152600401610af590613164565b60166000611f716121ab565b6001600160a01b0316815260208101919091526040016000205460ff16611faa5760405162461bcd60e51b8152600401610af59061351f565b611fb66014600a613b8a565b611fbe610c91565b10611fdb5760405162461bcd60e51b8152600401610af590613a68565b611fe76014600a613b8a565b81611ff0610c91565b611ffa9190613b8a565b11156120185760405162461bcd60e51b8152600401610af590613759565b600b816120266106fb6121ab565b6120309190613b8a565b111561204e5760405162461bcd60e51b8152600401610af590613322565b600881111561206f5760405162461bcd60e51b8152600401610af5906131ca565b6120818167016345785d8a0000613bb6565b341461209f5760405162461bcd60e51b8152600401610af59061381e565b60006120a9610c91565b9050805b6120b78383613b8a565b8110156120db576120c96117e56121ab565b806120d381613c53565b9150506120ad565b507ff5df7d07fef0d8ac7581015ebd1a3b7b7760da84b12f0c8174ae0dcd639cb6a36121056121ab565b836040516113479291906130c7565b6001600160a01b0316600090815260146020526040902054600080516020613cdb8339815191521490565b6001600160a01b03163b151590565b60006001600160e01b031982166380ac58cd60e01b148061217f57506001600160e01b03198216635b5e139f60e01b145b80610a255750610a2582612641565b6000908152600260205260409020546001600160a01b0316151590565b3390565b600081815260046020526040902080546001600160a01b0319166001600160a01b03841690811790915581906121e482611377565b6001600160a01b03167f8c5be1e5ebec7d5bd14f71427d1e84f3dd0314c0f7b2291e5b200ac8c7c3b92560405160405180910390a45050565b60006122288261218e565b6122445760405162461bcd60e51b8152600401610af5906135a5565b600061224f83611377565b9050806001600160a01b0316846001600160a01b0316148061227657506122768185611dff565b8061229a5750836001600160a01b031661228f84610ace565b6001600160a01b0316145b949350505050565b826001600160a01b03166122b582611377565b6001600160a01b0316146122db5760405162461bcd60e51b8152600401610af5906133b0565b6001600160a01b0382166123015760405162461bcd60e51b8152600401610af59061346d565b61230c83838361265a565b6123176000826121af565b6001600160a01b0383166000908152600360205260408120805460019290612340908490613bd5565b90915550506001600160a01b038216600090815260036020526040812080546001929061236e908490613b8a565b909155505060008181526002602052604080822080546001600160a01b0319166001600160a01b0386811691821790925591518493918716917fddf252ad1be2c89b69c2b068fc378daa952ba7f163c4a11628f55a4df523b3ef91a4610bad838383610bad565b600a80546001600160a01b038381166001600160a01b0319831681179093556040519116919082907f8be0079c531659141344cd1fd0a4f28419497f9722a3daafe3b4186f6b6457e090600090a35050565b61180f8282604051806020016040528060008152506126e3565b816001600160a01b0316836001600160a01b031614156124735760405162461bcd60e51b8152600401610af5906134b1565b6001600160a01b0383811660008181526005602090815260408083209487168084529490915290819020805460ff1916851515179055517f17307eab39ab6107e8899845ad3d59bd9653f200f220920489ca2b5937696c31906124d79085906130e0565b60405180910390a3505050565b6124ef8484846122a2565b6124fb84848484612716565b6119775760405162461bcd60e51b8152600401610af5906132d0565b606060108054610a4b90613c18565b60608161254b57506040805180820190915260018152600360fc1b6020820152610a28565b8160005b8115612575578061255f81613c53565b915061256e9050600a83613ba2565b915061254f565b60008167ffffffffffffffff81111561259e57634e487b7160e01b600052604160045260246000fd5b6040519080825280601f01601f1916602001820160405280156125c8576020820181803683370190505b5090505b841561229a576125dd600183613bd5565b91506125ea600a86613c6e565b6125f5906030613b8a565b60f81b81838151811061261857634e487b7160e01b600052603260045260246000fd5b60200101906001600160f81b031916908160001a90535061263a600a86613ba2565b94506125cc565b6001600160e01b031981166301ffc9a760e01b14919050565b612665838383610bad565b6001600160a01b0383166126815761267c81612831565b6126a4565b816001600160a01b0316836001600160a01b0316146126a4576126a48382612875565b6001600160a01b0382166126c0576126bb81612912565b610bad565b826001600160a01b0316826001600160a01b031614610bad57610bad82826129eb565b6126ed8383612a2f565b6126fa6000848484612716565b610bad5760405162461bcd60e51b8152600401610af5906132d0565b600061272a846001600160a01b031661213f565b1561282657836001600160a01b031663150b7a026127466121ab565b8786866040518563ffffffff1660e01b8152600401612768949392919061308a565b602060405180830381600087803b15801561278257600080fd5b505af19250505080156127b2575060408051601f3d908101601f191682019092526127af91810190612f1f565b60015b61280c573d8080156127e0576040519150601f19603f3d011682016040523d82523d6000602084013e6127e5565b606091505b5080516128045760405162461bcd60e51b8152600401610af5906132d0565b805181602001fd5b6001600160e01b031916630a85bd0160e11b14905061229a565b506001949350505050565b600880546000838152600960205260408120829055600182018355919091527ff3f7a9fe364faab93b216da50a3214154f22a0a2b415b23a84c8169e8b636ee30155565b60006001612882846114a9565b61288c9190613bd5565b6000838152600760205260409020549091508082146128df576001600160a01b03841660009081526006602090815260408083208584528252808320548484528184208190558352600790915290208190555b5060009182526007602090815260408084208490556001600160a01b039094168352600681528383209183525290812055565b60085460009061292490600190613bd5565b6000838152600960205260408120546008805493945090928490811061295a57634e487b7160e01b600052603260045260246000fd5b90600052602060002001549050806008838154811061298957634e487b7160e01b600052603260045260246000fd5b60009182526020808320909101929092558281526009909152604080822084905585825281205560088054806129cf57634e487b7160e01b600052603160045260246000fd5b6001900381819060005260206000200160009055905550505050565b60006129f6836114a9565b6001600160a01b039093166000908152600660209081526040808320868452825280832085905593825260079052919091209190915550565b6001600160a01b038216612a555760405162461bcd60e51b8152600401610af5906137e9565b612a5e8161218e565b15612a7b5760405162461bcd60e51b8152600401610af5906133f5565b612a876000838361265a565b6001600160a01b0382166000908152600360205260408120805460019290612ab0908490613b8a565b909155505060008181526002602052604080822080546001600160a01b0319166001600160a01b03861690811790915590518392907fddf252ad1be2c89b69c2b068fc378daa952ba7f163c4a11628f55a4df523b3ef908290a461180f60008383610bad565b828054612b2290613c18565b90600052602060002090601f016020900481019282612b445760008555612b8a565b82601f10612b5d5782800160ff19823516178555612b8a565b82800160010185558215612b8a579182015b82811115612b8a578235825591602001919060010190612b6f565b50612b96929150612c27565b5090565b828054828255906000526020600020908101928215612b8a5791602002820182811115612b8a578235825591602001919060010190612b6f565b828054828255906000526020600020908101928215612b8a579160200282015b82811115612b8a5781546001600160a01b0319166001600160a01b03843516178255602090920191600190910190612bf4565b5b80821115612b965760008155600101612c28565b80356001600160a01b0381168114610a2857600080fd5b60008083601f840112612c64578081fd5b50813567ffffffffffffffff811115612c7b578182fd5b6020830191508360208083028501011115612c9557600080fd5b9250929050565b80358015158114610a2857600080fd5b600060208284031215612cbd578081fd5b611b3d82612c3c565b60008060408385031215612cd8578081fd5b612ce183612c3c565b9150612cef60208401612c3c565b90509250929050565b600080600060608486031215612d0c578081fd5b612d1584612c3c565b9250612d2360208501612c3c565b9150604084013590509250925092565b60008060008060808587031215612d48578081fd5b612d5185612c3c565b9350612d5f60208601612c3c565b925060408501359150606085013567ffffffffffffffff80821115612d82578283fd5b818701915087601f830112612d95578283fd5b813581811115612da757612da7613cae565b604051601f8201601f19908116603f01168101908382118183101715612dcf57612dcf613cae565b816040528281528a6020848701011115612de7578586fd5b82602086016020830137918201602001949094529598949750929550505050565b60008060408385031215612e1a578182fd5b612e2383612c3c565b9150612cef60208401612c9c565b60008060408385031215612e43578182fd5b612e4c83612c3c565b946020939093013593505050565b60008060208385031215612e6c578182fd5b823567ffffffffffffffff811115612e82578283fd5b612e8e85828601612c53565b90969095509350505050565b60008060008060408587031215612eaf578384fd5b843567ffffffffffffffff80821115612ec6578586fd5b612ed288838901612c53565b90965094506020870135915080821115612eea578384fd5b50612ef787828801612c53565b95989497509550505050565b600060208284031215612f14578081fd5b8135611b3d81613cc4565b600060208284031215612f30578081fd5b8151611b3d81613cc4565b60008060208385031215612f4d578182fd5b823567ffffffffffffffff80821115612f64578384fd5b818501915085601f830112612f77578384fd5b813581811115612f85578485fd5b866020828501011115612f96578485fd5b60209290920196919550909350505050565b600060208284031215612fb9578081fd5b5035919050565b600080600060608486031215612fd4578283fd5b83359250612d2360208501612c9c565b600080600060608486031215612ff8578081fd5b833592506020840135915061300f60408501612c9c565b90509250925092565b60008151808452613030816020860160208601613bec565b601f01601f19169290920160200192915050565b60008351613056818460208801613bec565b83519083019061306a818360208801613bec565b01949350505050565b90565b6001600160a01b0391909116815260200190565b6001600160a01b03858116825284166020820152604081018390526080606082018190526000906130bd90830184613018565b9695505050505050565b6001600160a01b03929092168252602082015260400190565b901515815260200190565b60006020825282602083015282846040840137818301604090810191909152601f909201601f19160101919050565b600060208252611b3d6020830184613018565b60208082526018908201527f4661696c656420746f207472616e736665722045746865720000000000000000604082015260600190565b60208082526017908201527f50726573616c6520686173206e6f742073746172746564000000000000000000604082015260600190565b6020808252601590820152744e6f7420636f7272656374204554482076616c756560581b604082015260600190565b6020808252602f908201527f43616e6e6f742070757263686173652074686973206d616e7920746f6b656e7360408201526e20647572696e672070726573616c6560881b606082015260800190565b6020808252818101527f596f752063616e206f6e6c7920696e637265617365206d617820737570706c79604082015260600190565b60208082526017908201527f596f7520617265206e6f7420746f6b656e206f776e6572000000000000000000604082015260600190565b6020808252602b908201527f455243373231456e756d657261626c653a206f776e657220696e646578206f7560408201526a74206f6620626f756e647360a81b606082015260800190565b60208082526032908201527f4552433732313a207472616e7366657220746f206e6f6e20455243373231526560408201527131b2b4bb32b91034b6b83632b6b2b73a32b960711b606082015260800190565b60208082526028908201527f50757263686173652065786365656473206d617820616c6c6f77656420666f726040820152672070726573616c6560c01b606082015260800190565b60208082526026908201527f4f776e61626c653a206e6577206f776e657220697320746865207a65726f206160408201526564647265737360d01b606082015260800190565b60208082526025908201527f4552433732313a207472616e736665722066726f6d20696e636f72726563742060408201526437bbb732b960d91b606082015260800190565b6020808252601c908201527f4552433732313a20746f6b656e20616c7265616479206d696e74656400000000604082015260600190565b60208082526021908201527f746f74616c526174652063616e6e6f74206265206d6f7265207468616e2031306040820152600360fc1b606082015260800190565b60208082526024908201527f4552433732313a207472616e7366657220746f20746865207a65726f206164646040820152637265737360e01b606082015260800190565b60208082526019908201527f4552433732313a20617070726f766520746f2063616c6c657200000000000000604082015260600190565b60208082526017908201527f54686973206973206e6f7420612076616c696461746f72000000000000000000604082015260600190565b60208082526024908201527f596f7520617265206e6f7420656c696769626c6520666f72207468652070726560408201526373616c6560e01b606082015260800190565b60208082526022908201527f596f752063616e6e6f742062757920746f6b656e2066726f6d20796f75727365604082015261363360f11b606082015260800190565b6020808252602c908201527f4552433732313a206f70657261746f7220717565727920666f72206e6f6e657860408201526b34b9ba32b73a103a37b5b2b760a11b606082015260800190565b6020808252601e908201527f596f752063616e20726576657274206f6e6c7920796f757220746f6b656e0000604082015260600190565b60208082526018908201527f63616c6c6572206973206e6f74207468652061646d696e210000000000000000604082015260600190565b6020808252600c908201526b115c9c9bdc88185b5bdd5b9d60a21b604082015260600190565b602080825260139082015272151bdad95b881a5cc81b9bdd081b1a5cdd1959606a1b604082015260600190565b60208082526038908201527f4552433732313a20617070726f76652063616c6c6572206973206e6f74206f7760408201527f6e6572206e6f7220617070726f76656420666f7220616c6c0000000000000000606082015260800190565b6020808252602a908201527f4552433732313a2062616c616e636520717565727920666f7220746865207a65604082015269726f206164647265737360b01b606082015260800190565b60208082526027908201527f4d696e74696e6720776f756c64206578636565642070726573616c65206d617860408201526620737570706c7960c81b606082015260800190565b60208082526029908201527f4552433732313a206f776e657220717565727920666f72206e6f6e657869737460408201526832b73a103a37b5b2b760b91b606082015260800190565b6020808252818101527f4552433732313a206d696e7420746f20746865207a65726f2061646472657373604082015260600190565b60208082526017908201527f45544820616d6f756e7420697320696e636f7272656374000000000000000000604082015260600190565b6020808252602c908201527f4552433732313a20617070726f76656420717565727920666f72206e6f6e657860408201526b34b9ba32b73a103a37b5b2b760a11b606082015260800190565b6020808252601490820152732a3434b99034b9903737ba1030b71030b236b4b760611b604082015260600190565b6020808252818101527f4f776e61626c653a2063616c6c6572206973206e6f7420746865206f776e6572604082015260600190565b6020808252602f908201527f4552433732314d657461646174613a2055524920717565727920666f72206e6f60408201526e3732bc34b9ba32b73a103a37b5b2b760891b606082015260800190565b60208082526021908201527f4552433732313a20617070726f76616c20746f2063757272656e74206f776e656040820152603960f91b606082015260800190565b60208082526017908201527f43616e6e6f7420616464206e756c6c2061646472657373000000000000000000604082015260600190565b60208082526031908201527f4552433732313a207472616e736665722063616c6c6572206973206e6f74206f6040820152701ddb995c881b9bdc88185c1c1c9bdd9959607a1b606082015260800190565b6020808252602c908201527f455243373231456e756d657261626c653a20676c6f62616c20696e646578206f60408201526b7574206f6620626f756e647360a01b606082015260800190565b60208082526023908201527f416c6c2070726573616c6520746f6b656e732068617665206265656e206d696e6040820152621d195960ea1b606082015260800190565b602080825260129082015271696e76616c6964206c6f742073746174757360701b604082015260600190565b60208082526014908201527314d85b19481a185cc81b9bdd081cdd185c9d195960621b604082015260600190565b6020808252601c908201527f63616c6c6572206973206e6f74207468652076616c696461746f722100000000604082015260600190565b6020808252601b908201527f416c6c20746f6b656e732068617665206265656e206d696e7465640000000000604082015260600190565b90815260200190565b918252602082015260400190565b60008219821115613b9d57613b9d613c82565b500190565b600082613bb157613bb1613c98565b500490565b6000816000190483118215151615613bd057613bd0613c82565b500290565b600082821015613be757613be7613c82565b500390565b60005b83811015613c07578181015183820152602001613bef565b838111156119775750506000910152565b600281046001821680613c2c57607f821691505b60208210811415613c4d57634e487b7160e01b600052602260045260246000fd5b50919050565b6000600019821415613c6757613c67613c82565b5060010190565b600082613c7d57613c7d613c98565b500690565b634e487b7160e01b600052601160045260246000fd5b634e487b7160e01b600052601260045260246000fd5b634e487b7160e01b600052604160045260246000fd5b6001600160e01b031981168114611f3a57600080fdfea95257aebefccffaada4758f028bce81ea992693be70592f620c4c9a0d9e715adf8b4c520ffe197c5343c6f5aec59570151ef9a492f2c624fd45ddde6135ec42a2646970667358221220220434ccfbea406083d25af58b617446eac5e9c4c377274bba34ecaa1e3a548264736f6c63430008010033",
			"opcodes": "PUSH1 0x80 PUSH1 0x40 MSTORE PUSH1 0x1E PUSH1 0xB SSTORE PUSH1 0x0 PUSH1 0xC DUP2 SWAP1 SSTORE PUSH1 0xD DUP2 SWAP1 SSTORE PUSH1 0x64 PUSH1 0xE SSTORE PUSH1 0xF SSTORE PUSH1 0x11 DUP1 SLOAD PUSH3 0xFFFF00 NOT PUSH1 0xFF NOT SWAP1 SWAP2 AND PUSH1 0x1 OR AND SWAP1 SSTORE CALLVALUE DUP1 ISZERO PUSH3 0x3F JUMPI PUSH1 0x0 DUP1 REVERT JUMPDEST POP PUSH1 0x40 MLOAD PUSH3 0x4B47 CODESIZE SUB DUP1 PUSH3 0x4B47 DUP4 CODECOPY DUP2 ADD PUSH1 0x40 DUP2 SWAP1 MSTORE PUSH3 0x62 SWAP2 PUSH3 0x961 JUMP JUMPDEST DUP2 MLOAD DUP3 SWAP1 DUP3 SWAP1 PUSH3 0x7B SWAP1 PUSH1 0x0 SWAP1 PUSH1 0x20 DUP6 ADD SWAP1 PUSH3 0x820 JUMP JUMPDEST POP DUP1 MLOAD PUSH3 0x91 SWAP1 PUSH1 0x1 SWAP1 PUSH1 0x20 DUP5 ADD SWAP1 PUSH3 0x820 JUMP JUMPDEST POP POP POP PUSH3 0xAE PUSH3 0xA8 PUSH3 0x11D PUSH1 0x20 SHL PUSH1 0x20 SHR JUMP JUMPDEST PUSH3 0x121 JUMP JUMPDEST DUP4 MLOAD PUSH3 0xC3 SWAP1 PUSH1 0x10 SWAP1 PUSH1 0x20 DUP8 ADD SWAP1 PUSH3 0x820 JUMP JUMPDEST POP PUSH3 0xCF DUP4 PUSH3 0x173 JUMP JUMPDEST PUSH3 0xD9 PUSH3 0x20C JUMP JUMPDEST PUSH32 0x8A274CDD629B9AAE599B13D8BFEE3EE4A15350B0386A9B64087A393DB0093767 PUSH1 0x10 PUSH1 0x40 MLOAD PUSH3 0x10B SWAP2 SWAP1 PUSH3 0xAF2 JUMP JUMPDEST PUSH1 0x40 MLOAD DUP1 SWAP2 SUB SWAP1 LOG1 POP POP POP POP PUSH3 0xDE7 JUMP JUMPDEST CALLER SWAP1 JUMP JUMPDEST PUSH1 0xA DUP1 SLOAD PUSH1 0x1 PUSH1 0x1 PUSH1 0xA0 SHL SUB DUP4 DUP2 AND PUSH1 0x1 PUSH1 0x1 PUSH1 0xA0 SHL SUB NOT DUP4 AND DUP2 OR SWAP1 SWAP4 SSTORE PUSH1 0x40 MLOAD SWAP2 AND SWAP2 SWAP1 DUP3 SWAP1 PUSH32 0x8BE0079C531659141344CD1FD0A4F28419497F9722A3DAAFE3B4186F6B6457E0 SWAP1 PUSH1 0x0 SWAP1 LOG3 POP POP JUMP JUMPDEST PUSH1 0x0 JUMPDEST DUP2 MLOAD DUP2 LT ISZERO PUSH3 0x208 JUMPI PUSH32 0xC3804B311CB423D6A5C669B1A91EAA36C50F5D1A91F8AB0663A237F5DC412263 PUSH1 0x14 PUSH1 0x0 DUP5 DUP5 DUP2 MLOAD DUP2 LT PUSH3 0x1C6 JUMPI PUSH4 0x4E487B71 PUSH1 0xE0 SHL PUSH1 0x0 MSTORE PUSH1 0x32 PUSH1 0x4 MSTORE PUSH1 0x24 PUSH1 0x0 REVERT JUMPDEST PUSH1 0x20 MUL PUSH1 0x20 ADD ADD MLOAD PUSH1 0x1 PUSH1 0x1 PUSH1 0xA0 SHL SUB AND PUSH1 0x1 PUSH1 0x1 PUSH1 0xA0 SHL SUB AND DUP2 MSTORE PUSH1 0x20 ADD SWAP1 DUP2 MSTORE PUSH1 0x20 ADD PUSH1 0x0 KECCAK256 DUP2 SWAP1 SSTORE POP DUP1 DUP1 PUSH3 0x1FF SWAP1 PUSH3 0xD9D JUMP JUMPDEST SWAP2 POP POP PUSH3 0x176 JUMP JUMPDEST POP POP JUMP JUMPDEST PUSH1 0x0 JUMPDEST PUSH1 0xA DUP2 LT ISZERO PUSH3 0x24E JUMPI PUSH3 0x239 PUSH20 0x5C036BEE95B37532D7BC364F756EFA10667F1AA3 DUP3 PUSH3 0x251 JUMP JUMPDEST DUP1 PUSH3 0x245 DUP2 PUSH3 0xD9D JUMP JUMPDEST SWAP2 POP POP PUSH3 0x20F JUMP JUMPDEST POP JUMP JUMPDEST PUSH3 0x208 DUP3 DUP3 PUSH1 0x40 MLOAD DUP1 PUSH1 0x20 ADD PUSH1 0x40 MSTORE DUP1 PUSH1 0x0 DUP2 MSTORE POP PUSH3 0x273 PUSH1 0x20 SHL PUSH1 0x20 SHR JUMP JUMPDEST PUSH3 0x27F DUP4 DUP4 PUSH3 0x2BB JUMP JUMPDEST PUSH3 0x28E PUSH1 0x0 DUP5 DUP5 DUP5 PUSH3 0x3B0 JUMP JUMPDEST PUSH3 0x2B6 JUMPI PUSH1 0x40 MLOAD PUSH3 0x461BCD PUSH1 0xE5 SHL DUP2 MSTORE PUSH1 0x4 ADD PUSH3 0x2AD SWAP1 PUSH3 0xBA8 JUMP JUMPDEST PUSH1 0x40 MLOAD DUP1 SWAP2 SUB SWAP1 REVERT JUMPDEST POP POP POP JUMP JUMPDEST PUSH1 0x1 PUSH1 0x1 PUSH1 0xA0 SHL SUB DUP3 AND PUSH3 0x2E4 JUMPI PUSH1 0x40 MLOAD PUSH3 0x461BCD PUSH1 0xE5 SHL DUP2 MSTORE PUSH1 0x4 ADD PUSH3 0x2AD SWAP1 PUSH3 0xC7B JUMP JUMPDEST PUSH3 0x2EF DUP2 PUSH3 0x4E9 JUMP JUMPDEST ISZERO PUSH3 0x30F JUMPI PUSH1 0x40 MLOAD PUSH3 0x461BCD PUSH1 0xE5 SHL DUP2 MSTORE PUSH1 0x4 ADD PUSH3 0x2AD SWAP1 PUSH3 0xBFA JUMP JUMPDEST PUSH3 0x31D PUSH1 0x0 DUP4 DUP4 PUSH3 0x506 JUMP JUMPDEST PUSH1 0x1 PUSH1 0x1 PUSH1 0xA0 SHL SUB DUP3 AND PUSH1 0x0 SWAP1 DUP2 MSTORE PUSH1 0x3 PUSH1 0x20 MSTORE PUSH1 0x40 DUP2 KECCAK256 DUP1 SLOAD PUSH1 0x1 SWAP3 SWAP1 PUSH3 0x348 SWAP1 DUP5 SWAP1 PUSH3 0xCF8 JUMP JUMPDEST SWAP1 SWAP2 SSTORE POP POP PUSH1 0x0 DUP2 DUP2 MSTORE PUSH1 0x2 PUSH1 0x20 MSTORE PUSH1 0x40 DUP1 DUP3 KECCAK256 DUP1 SLOAD PUSH1 0x1 PUSH1 0x1 PUSH1 0xA0 SHL SUB NOT AND PUSH1 0x1 PUSH1 0x1 PUSH1 0xA0 SHL SUB DUP7 AND SWAP1 DUP2 OR SWAP1 SWAP2 SSTORE SWAP1 MLOAD DUP4 SWAP3 SWAP1 PUSH32 0xDDF252AD1BE2C89B69C2B068FC378DAA952BA7F163C4A11628F55A4DF523B3EF SWAP1 DUP3 SWAP1 LOG4 PUSH3 0x208 PUSH1 0x0 DUP4 DUP4 PUSH3 0x2B6 JUMP JUMPDEST PUSH1 0x0 PUSH3 0x3D1 DUP5 PUSH1 0x1 PUSH1 0x1 PUSH1 0xA0 SHL SUB AND PUSH3 0x5AA PUSH1 0x20 SHL PUSH3 0x213F OR PUSH1 0x20 SHR JUMP JUMPDEST ISZERO PUSH3 0x4DD JUMPI PUSH1 0x1 PUSH1 0x1 PUSH1 0xA0 SHL SUB DUP5 AND PUSH4 0x150B7A02 PUSH3 0x3F0 PUSH3 0x11D JUMP JUMPDEST DUP8 DUP7 DUP7 PUSH1 0x40 MLOAD DUP6 PUSH4 0xFFFFFFFF AND PUSH1 0xE0 SHL DUP2 MSTORE PUSH1 0x4 ADD PUSH3 0x414 SWAP5 SWAP4 SWAP3 SWAP2 SWAP1 PUSH3 0xA9C JUMP JUMPDEST PUSH1 0x20 PUSH1 0x40 MLOAD DUP1 DUP4 SUB DUP2 PUSH1 0x0 DUP8 DUP1 EXTCODESIZE ISZERO DUP1 ISZERO PUSH3 0x42F JUMPI PUSH1 0x0 DUP1 REVERT JUMPDEST POP GAS CALL SWAP3 POP POP POP DUP1 ISZERO PUSH3 0x462 JUMPI POP PUSH1 0x40 DUP1 MLOAD PUSH1 0x1F RETURNDATASIZE SWAP1 DUP2 ADD PUSH1 0x1F NOT AND DUP3 ADD SWAP1 SWAP3 MSTORE PUSH3 0x45F SWAP2 DUP2 ADD SWAP1 PUSH3 0x930 JUMP JUMPDEST PUSH1 0x1 JUMPDEST PUSH3 0x4C2 JUMPI RETURNDATASIZE DUP1 DUP1 ISZERO PUSH3 0x493 JUMPI PUSH1 0x40 MLOAD SWAP2 POP PUSH1 0x1F NOT PUSH1 0x3F RETURNDATASIZE ADD AND DUP3 ADD PUSH1 0x40 MSTORE RETURNDATASIZE DUP3 MSTORE RETURNDATASIZE PUSH1 0x0 PUSH1 0x20 DUP5 ADD RETURNDATACOPY PUSH3 0x498 JUMP JUMPDEST PUSH1 0x60 SWAP2 POP JUMPDEST POP DUP1 MLOAD PUSH3 0x4BA JUMPI PUSH1 0x40 MLOAD PUSH3 0x461BCD PUSH1 0xE5 SHL DUP2 MSTORE PUSH1 0x4 ADD PUSH3 0x2AD SWAP1 PUSH3 0xBA8 JUMP JUMPDEST DUP1 MLOAD DUP2 PUSH1 0x20 ADD REVERT JUMPDEST PUSH1 0x1 PUSH1 0x1 PUSH1 0xE0 SHL SUB NOT AND PUSH4 0xA85BD01 PUSH1 0xE1 SHL EQ SWAP1 POP PUSH3 0x4E1 JUMP JUMPDEST POP PUSH1 0x1 JUMPDEST SWAP5 SWAP4 POP POP POP POP JUMP JUMPDEST PUSH1 0x0 SWAP1 DUP2 MSTORE PUSH1 0x2 PUSH1 0x20 MSTORE PUSH1 0x40 SWAP1 KECCAK256 SLOAD PUSH1 0x1 PUSH1 0x1 PUSH1 0xA0 SHL SUB AND ISZERO ISZERO SWAP1 JUMP JUMPDEST PUSH3 0x51E DUP4 DUP4 DUP4 PUSH3 0x2B6 PUSH1 0x20 SHL PUSH3 0xBAD OR PUSH1 0x20 SHR JUMP JUMPDEST PUSH1 0x1 PUSH1 0x1 PUSH1 0xA0 SHL SUB DUP4 AND PUSH3 0x53E JUMPI PUSH3 0x538 DUP2 PUSH3 0x5B9 JUMP JUMPDEST PUSH3 0x564 JUMP JUMPDEST DUP2 PUSH1 0x1 PUSH1 0x1 PUSH1 0xA0 SHL SUB AND DUP4 PUSH1 0x1 PUSH1 0x1 PUSH1 0xA0 SHL SUB AND EQ PUSH3 0x564 JUMPI PUSH3 0x564 DUP4 DUP3 PUSH3 0x5FD JUMP JUMPDEST PUSH1 0x1 PUSH1 0x1 PUSH1 0xA0 SHL SUB DUP3 AND PUSH3 0x584 JUMPI PUSH3 0x57E DUP2 PUSH3 0x6AA JUMP JUMPDEST PUSH3 0x2B6 JUMP JUMPDEST DUP3 PUSH1 0x1 PUSH1 0x1 PUSH1 0xA0 SHL SUB AND DUP3 PUSH1 0x1 PUSH1 0x1 PUSH1 0xA0 SHL SUB AND EQ PUSH3 0x2B6 JUMPI PUSH3 0x2B6 DUP3 DUP3 PUSH3 0x788 JUMP JUMPDEST PUSH1 0x1 PUSH1 0x1 PUSH1 0xA0 SHL SUB AND EXTCODESIZE ISZERO ISZERO SWAP1 JUMP JUMPDEST PUSH1 0x8 DUP1 SLOAD PUSH1 0x0 DUP4 DUP2 MSTORE PUSH1 0x9 PUSH1 0x20 MSTORE PUSH1 0x40 DUP2 KECCAK256 DUP3 SWAP1 SSTORE PUSH1 0x1 DUP3 ADD DUP4 SSTORE SWAP2 SWAP1 SWAP2 MSTORE PUSH32 0xF3F7A9FE364FAAB93B216DA50A3214154F22A0A2B415B23A84C8169E8B636EE3 ADD SSTORE JUMP JUMPDEST PUSH1 0x0 PUSH1 0x1 PUSH3 0x617 DUP5 PUSH3 0x7D9 PUSH1 0x20 SHL PUSH3 0x14A9 OR PUSH1 0x20 SHR JUMP JUMPDEST PUSH3 0x623 SWAP2 SWAP1 PUSH3 0xD13 JUMP JUMPDEST PUSH1 0x0 DUP4 DUP2 MSTORE PUSH1 0x7 PUSH1 0x20 MSTORE PUSH1 0x40 SWAP1 KECCAK256 SLOAD SWAP1 SWAP2 POP DUP1 DUP3 EQ PUSH3 0x677 JUMPI PUSH1 0x1 PUSH1 0x1 PUSH1 0xA0 SHL SUB DUP5 AND PUSH1 0x0 SWAP1 DUP2 MSTORE PUSH1 0x6 PUSH1 0x20 SWAP1 DUP2 MSTORE PUSH1 0x40 DUP1 DUP4 KECCAK256 DUP6 DUP5 MSTORE DUP3 MSTORE DUP1 DUP4 KECCAK256 SLOAD DUP5 DUP5 MSTORE DUP2 DUP5 KECCAK256 DUP2 SWAP1 SSTORE DUP4 MSTORE PUSH1 0x7 SWAP1 SWAP2 MSTORE SWAP1 KECCAK256 DUP2 SWAP1 SSTORE JUMPDEST POP PUSH1 0x0 SWAP2 DUP3 MSTORE PUSH1 0x7 PUSH1 0x20 SWAP1 DUP2 MSTORE PUSH1 0x40 DUP1 DUP5 KECCAK256 DUP5 SWAP1 SSTORE PUSH1 0x1 PUSH1 0x1 PUSH1 0xA0 SHL SUB SWAP1 SWAP5 AND DUP4 MSTORE PUSH1 0x6 DUP2 MSTORE DUP4 DUP4 KECCAK256 SWAP2 DUP4 MSTORE MSTORE SWAP1 DUP2 KECCAK256 SSTORE JUMP JUMPDEST PUSH1 0x8 SLOAD PUSH1 0x0 SWAP1 PUSH3 0x6BE SWAP1 PUSH1 0x1 SWAP1 PUSH3 0xD13 JUMP JUMPDEST PUSH1 0x0 DUP4 DUP2 MSTORE PUSH1 0x9 PUSH1 0x20 MSTORE PUSH1 0x40 DUP2 KECCAK256 SLOAD PUSH1 0x8 DUP1 SLOAD SWAP4 SWAP5 POP SWAP1 SWAP3 DUP5 SWAP1 DUP2 LT PUSH3 0x6F5 JUMPI PUSH4 0x4E487B71 PUSH1 0xE0 SHL PUSH1 0x0 MSTORE PUSH1 0x32 PUSH1 0x4 MSTORE PUSH1 0x24 PUSH1 0x0 REVERT JUMPDEST SWAP1 PUSH1 0x0 MSTORE PUSH1 0x20 PUSH1 0x0 KECCAK256 ADD SLOAD SWAP1 POP DUP1 PUSH1 0x8 DUP4 DUP2 SLOAD DUP2 LT PUSH3 0x725 JUMPI PUSH4 0x4E487B71 PUSH1 0xE0 SHL PUSH1 0x0 MSTORE PUSH1 0x32 PUSH1 0x4 MSTORE PUSH1 0x24 PUSH1 0x0 REVERT JUMPDEST PUSH1 0x0 SWAP2 DUP3 MSTORE PUSH1 0x20 DUP1 DUP4 KECCAK256 SWAP1 SWAP2 ADD SWAP3 SWAP1 SWAP3 SSTORE DUP3 DUP2 MSTORE PUSH1 0x9 SWAP1 SWAP2 MSTORE PUSH1 0x40 DUP1 DUP3 KECCAK256 DUP5 SWAP1 SSTORE DUP6 DUP3 MSTORE DUP2 KECCAK256 SSTORE PUSH1 0x8 DUP1 SLOAD DUP1 PUSH3 0x76C JUMPI PUSH4 0x4E487B71 PUSH1 0xE0 SHL PUSH1 0x0 MSTORE PUSH1 0x31 PUSH1 0x4 MSTORE PUSH1 0x24 PUSH1 0x0 REVERT JUMPDEST PUSH1 0x1 SWAP1 SUB DUP2 DUP2 SWAP1 PUSH1 0x0 MSTORE PUSH1 0x20 PUSH1 0x0 KECCAK256 ADD PUSH1 0x0 SWAP1 SSTORE SWAP1 SSTORE POP POP POP POP JUMP JUMPDEST PUSH1 0x0 PUSH3 0x7A0 DUP4 PUSH3 0x7D9 PUSH1 0x20 SHL PUSH3 0x14A9 OR PUSH1 0x20 SHR JUMP JUMPDEST PUSH1 0x1 PUSH1 0x1 PUSH1 0xA0 SHL SUB SWAP1 SWAP4 AND PUSH1 0x0 SWAP1 DUP2 MSTORE PUSH1 0x6 PUSH1 0x20 SWAP1 DUP2 MSTORE PUSH1 0x40 DUP1 DUP4 KECCAK256 DUP7 DUP5 MSTORE DUP3 MSTORE DUP1 DUP4 KECCAK256 DUP6 SWAP1 SSTORE SWAP4 DUP3 MSTORE PUSH1 0x7 SWAP1 MSTORE SWAP2 SWAP1 SWAP2 KECCAK256 SWAP2 SWAP1 SWAP2 SSTORE POP JUMP JUMPDEST PUSH1 0x0 PUSH1 0x1 PUSH1 0x1 PUSH1 0xA0 SHL SUB DUP3 AND PUSH3 0x804 JUMPI PUSH1 0x40 MLOAD PUSH3 0x461BCD PUSH1 0xE5 SHL DUP2 MSTORE PUSH1 0x4 ADD PUSH3 0x2AD SWAP1 PUSH3 0xC31 JUMP JUMPDEST POP PUSH1 0x1 PUSH1 0x1 PUSH1 0xA0 SHL SUB AND PUSH1 0x0 SWAP1 DUP2 MSTORE PUSH1 0x3 PUSH1 0x20 MSTORE PUSH1 0x40 SWAP1 KECCAK256 SLOAD SWAP1 JUMP JUMPDEST DUP3 DUP1 SLOAD PUSH3 0x82E SWAP1 PUSH3 0xD60 JUMP JUMPDEST SWAP1 PUSH1 0x0 MSTORE PUSH1 0x20 PUSH1 0x0 KECCAK256 SWAP1 PUSH1 0x1F ADD PUSH1 0x20 SWAP1 DIV DUP2 ADD SWAP3 DUP3 PUSH3 0x852 JUMPI PUSH1 0x0 DUP6 SSTORE PUSH3 0x89D JUMP JUMPDEST DUP3 PUSH1 0x1F LT PUSH3 0x86D JUMPI DUP1 MLOAD PUSH1 0xFF NOT AND DUP4 DUP1 ADD OR DUP6 SSTORE PUSH3 0x89D JUMP JUMPDEST DUP3 DUP1 ADD PUSH1 0x1 ADD DUP6 SSTORE DUP3 ISZERO PUSH3 0x89D JUMPI SWAP2 DUP3 ADD JUMPDEST DUP3 DUP2 GT ISZERO PUSH3 0x89D JUMPI DUP3 MLOAD DUP3 SSTORE SWAP2 PUSH1 0x20 ADD SWAP2 SWAP1 PUSH1 0x1 ADD SWAP1 PUSH3 0x880 JUMP JUMPDEST POP PUSH3 0x8AB SWAP3 SWAP2 POP PUSH3 0x8AF JUMP JUMPDEST POP SWAP1 JUMP JUMPDEST JUMPDEST DUP1 DUP3 GT ISZERO PUSH3 0x8AB JUMPI PUSH1 0x0 DUP2 SSTORE PUSH1 0x1 ADD PUSH3 0x8B0 JUMP JUMPDEST PUSH1 0x0 DUP3 PUSH1 0x1F DUP4 ADD SLT PUSH3 0x8D7 JUMPI DUP1 DUP2 REVERT JUMPDEST DUP2 MLOAD PUSH1 0x1 PUSH1 0x1 PUSH1 0x40 SHL SUB DUP2 GT ISZERO PUSH3 0x8F3 JUMPI PUSH3 0x8F3 PUSH3 0xDD1 JUMP JUMPDEST PUSH3 0x908 PUSH1 0x1F DUP3 ADD PUSH1 0x1F NOT AND PUSH1 0x20 ADD PUSH3 0xCB0 JUMP JUMPDEST DUP2 DUP2 MSTORE DUP5 PUSH1 0x20 DUP4 DUP7 ADD ADD GT ISZERO PUSH3 0x91D JUMPI DUP3 DUP4 REVERT JUMPDEST PUSH3 0x4E1 DUP3 PUSH1 0x20 DUP4 ADD PUSH1 0x20 DUP8 ADD PUSH3 0xD2D JUMP JUMPDEST PUSH1 0x0 PUSH1 0x20 DUP3 DUP5 SUB SLT ISZERO PUSH3 0x942 JUMPI DUP1 DUP2 REVERT JUMPDEST DUP2 MLOAD PUSH1 0x1 PUSH1 0x1 PUSH1 0xE0 SHL SUB NOT DUP2 AND DUP2 EQ PUSH3 0x95A JUMPI DUP2 DUP3 REVERT JUMPDEST SWAP4 SWAP3 POP POP POP JUMP JUMPDEST PUSH1 0x0 DUP1 PUSH1 0x0 DUP1 PUSH1 0x80 DUP6 DUP8 SUB SLT ISZERO PUSH3 0x977 JUMPI DUP3 DUP4 REVERT JUMPDEST DUP5 MLOAD PUSH1 0x1 PUSH1 0x1 PUSH1 0x40 SHL SUB DUP1 DUP3 GT ISZERO PUSH3 0x98E JUMPI DUP5 DUP6 REVERT JUMPDEST PUSH3 0x99C DUP9 DUP4 DUP10 ADD PUSH3 0x8C6 JUMP JUMPDEST SWAP6 POP PUSH1 0x20 SWAP2 POP DUP2 DUP8 ADD MLOAD DUP2 DUP2 GT ISZERO PUSH3 0x9B3 JUMPI DUP6 DUP7 REVERT JUMPDEST DUP8 ADD PUSH1 0x1F DUP2 ADD DUP10 SGT PUSH3 0x9C4 JUMPI DUP6 DUP7 REVERT JUMPDEST DUP1 MLOAD DUP3 DUP2 GT ISZERO PUSH3 0x9D9 JUMPI PUSH3 0x9D9 PUSH3 0xDD1 JUMP JUMPDEST DUP4 DUP2 MUL PUSH3 0x9E9 DUP6 DUP3 ADD PUSH3 0xCB0 JUMP JUMPDEST DUP3 DUP2 MSTORE DUP6 DUP2 ADD SWAP1 DUP5 DUP8 ADD DUP4 DUP7 ADD DUP9 ADD DUP15 LT ISZERO PUSH3 0xA04 JUMPI DUP11 DUP12 REVERT JUMPDEST DUP11 SWAP6 POP JUMPDEST DUP5 DUP7 LT ISZERO PUSH3 0xA40 JUMPI DUP1 MLOAD SWAP4 POP PUSH1 0x1 PUSH1 0x1 PUSH1 0xA0 SHL SUB DUP5 AND DUP5 EQ PUSH3 0xA2A JUMPI DUP11 DUP12 REVERT JUMPDEST DUP4 DUP4 MSTORE PUSH1 0x1 SWAP6 SWAP1 SWAP6 ADD SWAP5 SWAP2 DUP8 ADD SWAP2 DUP8 ADD PUSH3 0xA08 JUMP JUMPDEST POP DUP1 SWAP10 POP POP POP POP POP POP PUSH1 0x40 DUP8 ADD MLOAD SWAP2 POP DUP1 DUP3 GT ISZERO PUSH3 0xA5D JUMPI DUP4 DUP5 REVERT JUMPDEST PUSH3 0xA6B DUP9 DUP4 DUP10 ADD PUSH3 0x8C6 JUMP JUMPDEST SWAP4 POP PUSH1 0x60 DUP8 ADD MLOAD SWAP2 POP DUP1 DUP3 GT ISZERO PUSH3 0xA81 JUMPI DUP3 DUP4 REVERT JUMPDEST POP PUSH3 0xA90 DUP8 DUP3 DUP9 ADD PUSH3 0x8C6 JUMP JUMPDEST SWAP2 POP POP SWAP3 SWAP6 SWAP2 SWAP5 POP SWAP3 POP JUMP JUMPDEST PUSH1 0x0 PUSH1 0x1 DUP1 PUSH1 0xA0 SHL SUB DUP1 DUP8 AND DUP4 MSTORE DUP1 DUP7 AND PUSH1 0x20 DUP5 ADD MSTORE POP DUP4 PUSH1 0x40 DUP4 ADD MSTORE PUSH1 0x80 PUSH1 0x60 DUP4 ADD MSTORE DUP3 MLOAD DUP1 PUSH1 0x80 DUP5 ADD MSTORE PUSH3 0xADB DUP2 PUSH1 0xA0 DUP6 ADD PUSH1 0x20 DUP8 ADD PUSH3 0xD2D JUMP JUMPDEST PUSH1 0x1F ADD PUSH1 0x1F NOT AND SWAP2 SWAP1 SWAP2 ADD PUSH1 0xA0 ADD SWAP6 SWAP5 POP POP POP POP POP JUMP JUMPDEST PUSH1 0x0 PUSH1 0x20 DUP1 DUP4 MSTORE DUP2 DUP5 SLOAD DUP4 PUSH1 0x2 DUP3 DIV SWAP1 POP PUSH1 0x1 DUP1 DUP4 AND DUP1 PUSH3 0xB15 JUMPI PUSH1 0x7F DUP4 AND SWAP3 POP JUMPDEST DUP6 DUP4 LT DUP2 EQ ISZERO PUSH3 0xB34 JUMPI PUSH4 0x4E487B71 PUSH1 0xE0 SHL DUP8 MSTORE PUSH1 0x22 PUSH1 0x4 MSTORE PUSH1 0x24 DUP8 REVERT JUMPDEST PUSH3 0xB42 DUP4 DUP8 DUP11 ADD PUSH3 0xCEF JUMP JUMPDEST DUP2 DUP1 ISZERO PUSH3 0xB59 JUMPI PUSH1 0x1 DUP2 EQ PUSH3 0xB6B JUMPI PUSH3 0xB99 JUMP JUMPDEST PUSH1 0xFF NOT DUP7 AND DUP3 MSTORE DUP8 DUP3 ADD SWAP7 POP PUSH3 0xB99 JUMP JUMPDEST PUSH3 0xB76 DUP12 PUSH3 0xCE3 JUMP JUMPDEST DUP10 JUMPDEST DUP7 DUP2 LT ISZERO PUSH3 0xB93 JUMPI DUP2 SLOAD DUP5 DUP3 ADD MSTORE SWAP1 DUP6 ADD SWAP1 DUP10 ADD PUSH3 0xB78 JUMP JUMPDEST DUP4 ADD SWAP8 POP POP JUMPDEST POP SWAP5 SWAP10 SWAP9 POP POP POP POP POP POP POP POP POP JUMP JUMPDEST PUSH1 0x20 DUP1 DUP3 MSTORE PUSH1 0x32 SWAP1 DUP3 ADD MSTORE PUSH32 0x4552433732313A207472616E7366657220746F206E6F6E204552433732315265 PUSH1 0x40 DUP3 ADD MSTORE PUSH18 0x31B2B4BB32B91034B6B83632B6B2B73A32B9 PUSH1 0x71 SHL PUSH1 0x60 DUP3 ADD MSTORE PUSH1 0x80 ADD SWAP1 JUMP JUMPDEST PUSH1 0x20 DUP1 DUP3 MSTORE PUSH1 0x1C SWAP1 DUP3 ADD MSTORE PUSH32 0x4552433732313A20746F6B656E20616C7265616479206D696E74656400000000 PUSH1 0x40 DUP3 ADD MSTORE PUSH1 0x60 ADD SWAP1 JUMP JUMPDEST PUSH1 0x20 DUP1 DUP3 MSTORE PUSH1 0x2A SWAP1 DUP3 ADD MSTORE PUSH32 0x4552433732313A2062616C616E636520717565727920666F7220746865207A65 PUSH1 0x40 DUP3 ADD MSTORE PUSH10 0x726F2061646472657373 PUSH1 0xB0 SHL PUSH1 0x60 DUP3 ADD MSTORE PUSH1 0x80 ADD SWAP1 JUMP JUMPDEST PUSH1 0x20 DUP1 DUP3 MSTORE DUP2 DUP2 ADD MSTORE PUSH32 0x4552433732313A206D696E7420746F20746865207A65726F2061646472657373 PUSH1 0x40 DUP3 ADD MSTORE PUSH1 0x60 ADD SWAP1 JUMP JUMPDEST PUSH1 0x40 MLOAD PUSH1 0x1F DUP3 ADD PUSH1 0x1F NOT AND DUP2 ADD PUSH1 0x1 PUSH1 0x1 PUSH1 0x40 SHL SUB DUP2 GT DUP3 DUP3 LT OR ISZERO PUSH3 0xCDB JUMPI PUSH3 0xCDB PUSH3 0xDD1 JUMP JUMPDEST PUSH1 0x40 MSTORE SWAP2 SWAP1 POP JUMP JUMPDEST PUSH1 0x0 SWAP1 DUP2 MSTORE PUSH1 0x20 SWAP1 KECCAK256 SWAP1 JUMP JUMPDEST SWAP1 DUP2 MSTORE PUSH1 0x20 ADD SWAP1 JUMP JUMPDEST PUSH1 0x0 DUP3 NOT DUP3 GT ISZERO PUSH3 0xD0E JUMPI PUSH3 0xD0E PUSH3 0xDBB JUMP JUMPDEST POP ADD SWAP1 JUMP JUMPDEST PUSH1 0x0 DUP3 DUP3 LT ISZERO PUSH3 0xD28 JUMPI PUSH3 0xD28 PUSH3 0xDBB JUMP JUMPDEST POP SUB SWAP1 JUMP JUMPDEST PUSH1 0x0 JUMPDEST DUP4 DUP2 LT ISZERO PUSH3 0xD4A JUMPI DUP2 DUP2 ADD MLOAD DUP4 DUP3 ADD MSTORE PUSH1 0x20 ADD PUSH3 0xD30 JUMP JUMPDEST DUP4 DUP2 GT ISZERO PUSH3 0xD5A JUMPI PUSH1 0x0 DUP5 DUP5 ADD MSTORE JUMPDEST POP POP POP POP JUMP JUMPDEST PUSH1 0x2 DUP2 DIV PUSH1 0x1 DUP3 AND DUP1 PUSH3 0xD75 JUMPI PUSH1 0x7F DUP3 AND SWAP2 POP JUMPDEST PUSH1 0x20 DUP3 LT DUP2 EQ ISZERO PUSH3 0xD97 JUMPI PUSH4 0x4E487B71 PUSH1 0xE0 SHL PUSH1 0x0 MSTORE PUSH1 0x22 PUSH1 0x4 MSTORE PUSH1 0x24 PUSH1 0x0 REVERT JUMPDEST POP SWAP2 SWAP1 POP JUMP JUMPDEST PUSH1 0x0 PUSH1 0x0 NOT DUP3 EQ ISZERO PUSH3 0xDB4 JUMPI PUSH3 0xDB4 PUSH3 0xDBB JUMP JUMPDEST POP PUSH1 0x1 ADD SWAP1 JUMP JUMPDEST PUSH4 0x4E487B71 PUSH1 0xE0 SHL PUSH1 0x0 MSTORE PUSH1 0x11 PUSH1 0x4 MSTORE PUSH1 0x24 PUSH1 0x0 REVERT JUMPDEST PUSH4 0x4E487B71 PUSH1 0xE0 SHL PUSH1 0x0 MSTORE PUSH1 0x41 PUSH1 0x4 MSTORE PUSH1 0x24 PUSH1 0x0 REVERT JUMPDEST PUSH2 0x3D50 DUP1 PUSH3 0xDF7 PUSH1 0x0 CODECOPY PUSH1 0x0 RETURN INVALID PUSH1 0x80 PUSH1 0x40 MSTORE PUSH1 0x4 CALLDATASIZE LT PUSH2 0x38C JUMPI PUSH1 0x0 CALLDATALOAD PUSH1 0xE0 SHR DUP1 PUSH4 0x715018A6 GT PUSH2 0x1DC JUMPI DUP1 PUSH4 0xC8844A0A GT PUSH2 0x102 JUMPI DUP1 PUSH4 0xEB1EDD61 GT PUSH2 0xA0 JUMPI DUP1 PUSH4 0xF0376690 GT PUSH2 0x6F JUMPI DUP1 PUSH4 0xF0376690 EQ PUSH2 0x98D JUMPI DUP1 PUSH4 0xF2FDE38B EQ PUSH2 0x9AD JUMPI DUP1 PUSH4 0xF759867A EQ PUSH2 0x9CD JUMPI DUP1 PUSH4 0xFACD743B EQ PUSH2 0x9E0 JUMPI PUSH2 0x38C JUMP JUMPDEST DUP1 PUSH4 0xEB1EDD61 EQ PUSH2 0x656 JUMPI DUP1 PUSH4 0xED1FC2A2 EQ PUSH2 0x943 JUMPI DUP1 PUSH4 0xEFEB5E58 EQ PUSH2 0x958 JUMPI DUP1 PUSH4 0xF0292A03 EQ PUSH2 0x978 JUMPI PUSH2 0x38C JUMP JUMPDEST DUP1 PUSH4 0xD5ABEB01 GT PUSH2 0xDC JUMPI DUP1 PUSH4 0xD5ABEB01 EQ PUSH2 0x8D9 JUMPI DUP1 PUSH4 0xE0DA260C EQ PUSH2 0x8EE JUMPI DUP1 PUSH4 0xE1B6E098 EQ PUSH2 0x90E JUMPI DUP1 PUSH4 0xE985E9C5 EQ PUSH2 0x923 JUMPI PUSH2 0x38C JUMP JUMPDEST DUP1 PUSH4 0xC8844A0A EQ PUSH2 0x88F JUMPI DUP1 PUSH4 0xD4B12530 EQ PUSH2 0x8A4 JUMPI DUP1 PUSH4 0xD547CFB7 EQ PUSH2 0x8C4 JUMPI PUSH2 0x38C JUMP JUMPDEST DUP1 PUSH4 0xA0712D68 GT PUSH2 0x17A JUMPI DUP1 PUSH4 0xB88D4FDE GT PUSH2 0x149 JUMPI DUP1 PUSH4 0xB88D4FDE EQ PUSH2 0x80F JUMPI DUP1 PUSH4 0xB89FC30A EQ PUSH2 0x82F JUMPI DUP1 PUSH4 0xC457FB37 EQ PUSH2 0x84F JUMPI DUP1 PUSH4 0xC87B56DD EQ PUSH2 0x86F JUMPI PUSH2 0x38C JUMP JUMPDEST DUP1 PUSH4 0xA0712D68 EQ PUSH2 0x7A7 JUMPI DUP1 PUSH4 0xA22CB465 EQ PUSH2 0x7BA JUMPI DUP1 PUSH4 0xAEF6EE1F EQ PUSH2 0x7DA JUMPI DUP1 PUSH4 0xB66A0E5D EQ PUSH2 0x7FA JUMPI PUSH2 0x38C JUMP JUMPDEST DUP1 PUSH4 0x8753367F GT PUSH2 0x1B6 JUMPI DUP1 PUSH4 0x8753367F EQ PUSH2 0x748 JUMPI DUP1 PUSH4 0x8D859F3E EQ PUSH2 0x768 JUMPI DUP1 PUSH4 0x8DA5CB5B EQ PUSH2 0x77D JUMPI DUP1 PUSH4 0x95D89B41 EQ PUSH2 0x792 JUMPI PUSH2 0x38C JUMP JUMPDEST DUP1 PUSH4 0x715018A6 EQ PUSH2 0x700 JUMPI DUP1 PUSH4 0x7DC9E79B EQ PUSH2 0x715 JUMPI DUP1 PUSH4 0x8166F39B EQ PUSH2 0x728 JUMPI PUSH2 0x38C JUMP JUMPDEST DUP1 PUSH4 0x3041332E GT PUSH2 0x2C1 JUMPI DUP1 PUSH4 0x55321173 GT PUSH2 0x25F JUMPI DUP1 PUSH4 0x6352211E GT PUSH2 0x22E JUMPI DUP1 PUSH4 0x6352211E EQ PUSH2 0x680 JUMPI DUP1 PUSH4 0x6F8B44B0 EQ PUSH2 0x6A0 JUMPI DUP1 PUSH4 0x70480275 EQ PUSH2 0x6C0 JUMPI DUP1 PUSH4 0x70A08231 EQ PUSH2 0x6E0 JUMPI PUSH2 0x38C JUMP JUMPDEST DUP1 PUSH4 0x55321173 EQ PUSH2 0x616 JUMPI DUP1 PUSH4 0x55F804B3 EQ PUSH2 0x636 JUMPI DUP1 PUSH4 0x5E9EA652 EQ PUSH2 0x656 JUMPI DUP1 PUSH4 0x62DC6E21 EQ PUSH2 0x66B JUMPI PUSH2 0x38C JUMP JUMPDEST DUP1 PUSH4 0x4D238C8E GT PUSH2 0x29B JUMPI DUP1 PUSH4 0x4D238C8E EQ PUSH2 0x5A1 JUMPI DUP1 PUSH4 0x4F6CCCE7 EQ PUSH2 0x5C1 JUMPI DUP1 PUSH4 0x53AA8899 EQ PUSH2 0x5E1 JUMPI DUP1 PUSH4 0x549527C3 EQ PUSH2 0x601 JUMPI PUSH2 0x38C JUMP JUMPDEST DUP1 PUSH4 0x3041332E EQ PUSH2 0x541 JUMPI DUP1 PUSH4 0x40A141FF EQ PUSH2 0x561 JUMPI DUP1 PUSH4 0x42842E0E EQ PUSH2 0x581 JUMPI PUSH2 0x38C JUMP JUMPDEST DUP1 PUSH4 0x18160DDD GT PUSH2 0x32E JUMPI DUP1 PUSH4 0x29155F2C GT PUSH2 0x308 JUMPI DUP1 PUSH4 0x29155F2C EQ PUSH2 0x4E4 JUMPI DUP1 PUSH4 0x2D296BF1 EQ PUSH2 0x4F9 JUMPI DUP1 PUSH4 0x2F745C59 EQ PUSH2 0x50C JUMPI DUP1 PUSH4 0x2F814575 EQ PUSH2 0x52C JUMPI PUSH2 0x38C JUMP JUMPDEST DUP1 PUSH4 0x18160DDD EQ PUSH2 0x48F JUMPI DUP1 PUSH4 0x23B872DD EQ PUSH2 0x4A4 JUMPI DUP1 PUSH4 0x24D7806C EQ PUSH2 0x4C4 JUMPI PUSH2 0x38C JUMP JUMPDEST DUP1 PUSH4 0x81812FC GT PUSH2 0x36A JUMPI DUP1 PUSH4 0x81812FC EQ PUSH2 0x3FE JUMPI DUP1 PUSH4 0x95EA7B3 EQ PUSH2 0x42B JUMPI DUP1 PUSH4 0x9D42B30 EQ PUSH2 0x44D JUMPI DUP1 PUSH4 0x1785F53C EQ PUSH2 0x46F JUMPI PUSH2 0x38C JUMP JUMPDEST DUP1 PUSH4 0x1FFC9A7 EQ PUSH2 0x391 JUMPI DUP1 PUSH4 0x4C98B2B EQ PUSH2 0x3C7 JUMPI DUP1 PUSH4 0x6FDDE03 EQ PUSH2 0x3DC JUMPI JUMPDEST PUSH1 0x0 DUP1 REVERT JUMPDEST CALLVALUE DUP1 ISZERO PUSH2 0x39D JUMPI PUSH1 0x0 DUP1 REVERT JUMPDEST POP PUSH2 0x3B1 PUSH2 0x3AC CALLDATASIZE PUSH1 0x4 PUSH2 0x2F03 JUMP JUMPDEST PUSH2 0xA00 JUMP JUMPDEST PUSH1 0x40 MLOAD PUSH2 0x3BE SWAP2 SWAP1 PUSH2 0x30E0 JUMP JUMPDEST PUSH1 0x40 MLOAD DUP1 SWAP2 SUB SWAP1 RETURN JUMPDEST CALLVALUE DUP1 ISZERO PUSH2 0x3D3 JUMPI PUSH1 0x0 DUP1 REVERT JUMPDEST POP PUSH2 0x3B1 PUSH2 0xA2D JUMP JUMPDEST CALLVALUE DUP1 ISZERO PUSH2 0x3E8 JUMPI PUSH1 0x0 DUP1 REVERT JUMPDEST POP PUSH2 0x3F1 PUSH2 0xA3C JUMP JUMPDEST PUSH1 0x40 MLOAD PUSH2 0x3BE SWAP2 SWAP1 PUSH2 0x311A JUMP JUMPDEST CALLVALUE DUP1 ISZERO PUSH2 0x40A JUMPI PUSH1 0x0 DUP1 REVERT JUMPDEST POP PUSH2 0x41E PUSH2 0x419 CALLDATASIZE PUSH1 0x4 PUSH2 0x2FA8 JUMP JUMPDEST PUSH2 0xACE JUMP JUMPDEST PUSH1 0x40 MLOAD PUSH2 0x3BE SWAP2 SWAP1 PUSH2 0x3076 JUMP JUMPDEST CALLVALUE DUP1 ISZERO PUSH2 0x437 JUMPI PUSH1 0x0 DUP1 REVERT JUMPDEST POP PUSH2 0x44B PUSH2 0x446 CALLDATASIZE PUSH1 0x4 PUSH2 0x2E31 JUMP JUMPDEST PUSH2 0xB1A JUMP JUMPDEST STOP JUMPDEST CALLVALUE DUP1 ISZERO PUSH2 0x459 JUMPI PUSH1 0x0 DUP1 REVERT JUMPDEST POP PUSH2 0x462 PUSH2 0xBB2 JUMP JUMPDEST PUSH1 0x40 MLOAD PUSH2 0x3BE SWAP2 SWAP1 PUSH2 0x3B73 JUMP JUMPDEST CALLVALUE DUP1 ISZERO PUSH2 0x47B JUMPI PUSH1 0x0 DUP1 REVERT JUMPDEST POP PUSH2 0x44B PUSH2 0x48A CALLDATASIZE PUSH1 0x4 PUSH2 0x2CAC JUMP JUMPDEST PUSH2 0xBB7 JUMP JUMPDEST CALLVALUE DUP1 ISZERO PUSH2 0x49B JUMPI PUSH1 0x0 DUP1 REVERT JUMPDEST POP PUSH2 0x462 PUSH2 0xC91 JUMP JUMPDEST CALLVALUE DUP1 ISZERO PUSH2 0x4B0 JUMPI PUSH1 0x0 DUP1 REVERT JUMPDEST POP PUSH2 0x44B PUSH2 0x4BF CALLDATASIZE PUSH1 0x4 PUSH2 0x2CF8 JUMP JUMPDEST PUSH2 0xC97 JUMP JUMPDEST CALLVALUE DUP1 ISZERO PUSH2 0x4D0 JUMPI PUSH1 0x0 DUP1 REVERT JUMPDEST POP PUSH2 0x3B1 PUSH2 0x4DF CALLDATASIZE PUSH1 0x4 PUSH2 0x2CAC JUMP JUMPDEST PUSH2 0xCCF JUMP JUMPDEST CALLVALUE DUP1 ISZERO PUSH2 0x4F0 JUMPI PUSH1 0x0 DUP1 REVERT JUMPDEST POP PUSH2 0x462 PUSH2 0xCFA JUMP JUMPDEST PUSH2 0x44B PUSH2 0x507 CALLDATASIZE PUSH1 0x4 PUSH2 0x2FA8 JUMP JUMPDEST PUSH2 0xCFF JUMP JUMPDEST CALLVALUE DUP1 ISZERO PUSH2 0x518 JUMPI PUSH1 0x0 DUP1 REVERT JUMPDEST POP PUSH2 0x462 PUSH2 0x527 CALLDATASIZE PUSH1 0x4 PUSH2 0x2E31 JUMP JUMPDEST PUSH2 0xEA1 JUMP JUMPDEST CALLVALUE DUP1 ISZERO PUSH2 0x538 JUMPI PUSH1 0x0 DUP1 REVERT JUMPDEST POP PUSH2 0x44B PUSH2 0xEF3 JUMP JUMPDEST CALLVALUE DUP1 ISZERO PUSH2 0x54D JUMPI PUSH1 0x0 DUP1 REVERT JUMPDEST POP PUSH2 0x44B PUSH2 0x55C CALLDATASIZE PUSH1 0x4 PUSH2 0x2FE4 JUMP JUMPDEST PUSH2 0xF4F JUMP JUMPDEST CALLVALUE DUP1 ISZERO PUSH2 0x56D JUMPI PUSH1 0x0 DUP1 REVERT JUMPDEST POP PUSH2 0x44B PUSH2 0x57C CALLDATASIZE PUSH1 0x4 PUSH2 0x2CAC JUMP JUMPDEST PUSH2 0x103E JUMP JUMPDEST CALLVALUE DUP1 ISZERO PUSH2 0x58D JUMPI PUSH1 0x0 DUP1 REVERT JUMPDEST POP PUSH2 0x44B PUSH2 0x59C CALLDATASIZE PUSH1 0x4 PUSH2 0x2CF8 JUMP JUMPDEST PUSH2 0x110D JUMP JUMPDEST CALLVALUE DUP1 ISZERO PUSH2 0x5AD JUMPI PUSH1 0x0 DUP1 REVERT JUMPDEST POP PUSH2 0x44B PUSH2 0x5BC CALLDATASIZE PUSH1 0x4 PUSH2 0x2CAC JUMP JUMPDEST PUSH2 0x1147 JUMP JUMPDEST CALLVALUE DUP1 ISZERO PUSH2 0x5CD JUMPI PUSH1 0x0 DUP1 REVERT JUMPDEST POP PUSH2 0x462 PUSH2 0x5DC CALLDATASIZE PUSH1 0x4 PUSH2 0x2FA8 JUMP JUMPDEST PUSH2 0x11DF JUMP JUMPDEST CALLVALUE DUP1 ISZERO PUSH2 0x5ED JUMPI PUSH1 0x0 DUP1 REVERT JUMPDEST POP PUSH2 0x44B PUSH2 0x5FC CALLDATASIZE PUSH1 0x4 PUSH2 0x2FC0 JUMP JUMPDEST PUSH2 0x123A JUMP JUMPDEST CALLVALUE DUP1 ISZERO PUSH2 0x60D JUMPI PUSH1 0x0 DUP1 REVERT JUMPDEST POP PUSH2 0x462 PUSH2 0x12B0 JUMP JUMPDEST CALLVALUE DUP1 ISZERO PUSH2 0x622 JUMPI PUSH1 0x0 DUP1 REVERT JUMPDEST POP PUSH2 0x3B1 PUSH2 0x631 CALLDATASIZE PUSH1 0x4 PUSH2 0x2CAC JUMP JUMPDEST PUSH2 0x12B5 JUMP JUMPDEST CALLVALUE DUP1 ISZERO PUSH2 0x642 JUMPI PUSH1 0x0 DUP1 REVERT JUMPDEST POP PUSH2 0x44B PUSH2 0x651 CALLDATASIZE PUSH1 0x4 PUSH2 0x2F3B JUMP JUMPDEST PUSH2 0x12CA JUMP JUMPDEST CALLVALUE DUP1 ISZERO PUSH2 0x662 JUMPI PUSH1 0x0 DUP1 REVERT JUMPDEST POP PUSH2 0x41E PUSH2 0x1353 JUMP JUMPDEST CALLVALUE DUP1 ISZERO PUSH2 0x677 JUMPI PUSH1 0x0 DUP1 REVERT JUMPDEST POP PUSH2 0x462 PUSH2 0x136B JUMP JUMPDEST CALLVALUE DUP1 ISZERO PUSH2 0x68C JUMPI PUSH1 0x0 DUP1 REVERT JUMPDEST POP PUSH2 0x41E PUSH2 0x69B CALLDATASIZE PUSH1 0x4 PUSH2 0x2FA8 JUMP JUMPDEST PUSH2 0x1377 JUMP JUMPDEST CALLVALUE DUP1 ISZERO PUSH2 0x6AC JUMPI PUSH1 0x0 DUP1 REVERT JUMPDEST POP PUSH2 0x44B PUSH2 0x6BB CALLDATASIZE PUSH1 0x4 PUSH2 0x2FA8 JUMP JUMPDEST PUSH2 0x13AC JUMP JUMPDEST CALLVALUE DUP1 ISZERO PUSH2 0x6CC JUMPI PUSH1 0x0 DUP1 REVERT JUMPDEST POP PUSH2 0x44B PUSH2 0x6DB CALLDATASIZE PUSH1 0x4 PUSH2 0x2CAC JUMP JUMPDEST PUSH2 0x1411 JUMP JUMPDEST CALLVALUE DUP1 ISZERO PUSH2 0x6EC JUMPI PUSH1 0x0 DUP1 REVERT JUMPDEST POP PUSH2 0x462 PUSH2 0x6FB CALLDATASIZE PUSH1 0x4 PUSH2 0x2CAC JUMP JUMPDEST PUSH2 0x14A9 JUMP JUMPDEST CALLVALUE DUP1 ISZERO PUSH2 0x70C JUMPI PUSH1 0x0 DUP1 REVERT JUMPDEST POP PUSH2 0x44B PUSH2 0x14ED JUMP JUMPDEST PUSH2 0x44B PUSH2 0x723 CALLDATASIZE PUSH1 0x4 PUSH2 0x2FA8 JUMP JUMPDEST PUSH2 0x1538 JUMP JUMPDEST CALLVALUE DUP1 ISZERO PUSH2 0x734 JUMPI PUSH1 0x0 DUP1 REVERT JUMPDEST POP PUSH2 0x44B PUSH2 0x743 CALLDATASIZE PUSH1 0x4 PUSH2 0x2CAC JUMP JUMPDEST PUSH2 0x15D9 JUMP JUMPDEST CALLVALUE DUP1 ISZERO PUSH2 0x754 JUMPI PUSH1 0x0 DUP1 REVERT JUMPDEST POP PUSH2 0x44B PUSH2 0x763 CALLDATASIZE PUSH1 0x4 PUSH2 0x2FA8 JUMP JUMPDEST PUSH2 0x1639 JUMP JUMPDEST CALLVALUE DUP1 ISZERO PUSH2 0x774 JUMPI PUSH1 0x0 DUP1 REVERT JUMPDEST POP PUSH2 0x462 PUSH2 0x1706 JUMP JUMPDEST CALLVALUE DUP1 ISZERO PUSH2 0x789 JUMPI PUSH1 0x0 DUP1 REVERT JUMPDEST POP PUSH2 0x41E PUSH2 0x1712 JUMP JUMPDEST CALLVALUE DUP1 ISZERO PUSH2 0x79E JUMPI PUSH1 0x0 DUP1 REVERT JUMPDEST POP PUSH2 0x3F1 PUSH2 0x1721 JUMP JUMPDEST PUSH2 0x44B PUSH2 0x7B5 CALLDATASIZE PUSH1 0x4 PUSH2 0x2FA8 JUMP JUMPDEST PUSH2 0x1730 JUMP JUMPDEST CALLVALUE DUP1 ISZERO PUSH2 0x7C6 JUMPI PUSH1 0x0 DUP1 REVERT JUMPDEST POP PUSH2 0x44B PUSH2 0x7D5 CALLDATASIZE PUSH1 0x4 PUSH2 0x2E08 JUMP JUMPDEST PUSH2 0x17FD JUMP JUMPDEST CALLVALUE DUP1 ISZERO PUSH2 0x7E6 JUMPI PUSH1 0x0 DUP1 REVERT JUMPDEST POP PUSH2 0x44B PUSH2 0x7F5 CALLDATASIZE PUSH1 0x4 PUSH2 0x2E5A JUMP JUMPDEST PUSH2 0x1813 JUMP JUMPDEST CALLVALUE DUP1 ISZERO PUSH2 0x806 JUMPI PUSH1 0x0 DUP1 REVERT JUMPDEST POP PUSH2 0x3B1 PUSH2 0x1930 JUMP JUMPDEST CALLVALUE DUP1 ISZERO PUSH2 0x81B JUMPI PUSH1 0x0 DUP1 REVERT JUMPDEST POP PUSH2 0x44B PUSH2 0x82A CALLDATASIZE PUSH1 0x4 PUSH2 0x2D33 JUMP JUMPDEST PUSH2 0x193E JUMP JUMPDEST CALLVALUE DUP1 ISZERO PUSH2 0x83B JUMPI PUSH1 0x0 DUP1 REVERT JUMPDEST POP PUSH2 0x44B PUSH2 0x84A CALLDATASIZE PUSH1 0x4 PUSH2 0x2E9A JUMP JUMPDEST PUSH2 0x197D JUMP JUMPDEST CALLVALUE DUP1 ISZERO PUSH2 0x85B JUMPI PUSH1 0x0 DUP1 REVERT JUMPDEST POP PUSH2 0x462 PUSH2 0x86A CALLDATASIZE PUSH1 0x4 PUSH2 0x2FA8 JUMP JUMPDEST PUSH2 0x1A6B JUMP JUMPDEST CALLVALUE DUP1 ISZERO PUSH2 0x87B JUMPI PUSH1 0x0 DUP1 REVERT JUMPDEST POP PUSH2 0x3F1 PUSH2 0x88A CALLDATASIZE PUSH1 0x4 PUSH2 0x2FA8 JUMP JUMPDEST PUSH2 0x1B44 JUMP JUMPDEST CALLVALUE DUP1 ISZERO PUSH2 0x89B JUMPI PUSH1 0x0 DUP1 REVERT JUMPDEST POP PUSH2 0x462 PUSH2 0x1BC7 JUMP JUMPDEST CALLVALUE DUP1 ISZERO PUSH2 0x8B0 JUMPI PUSH1 0x0 DUP1 REVERT JUMPDEST POP PUSH2 0x3B1 PUSH2 0x8BF CALLDATASIZE PUSH1 0x4 PUSH2 0x2CAC JUMP JUMPDEST PUSH2 0x1BCC JUMP JUMPDEST CALLVALUE DUP1 ISZERO PUSH2 0x8D0 JUMPI PUSH1 0x0 DUP1 REVERT JUMPDEST POP PUSH2 0x3F1 PUSH2 0x1C09 JUMP JUMPDEST CALLVALUE DUP1 ISZERO PUSH2 0x8E5 JUMPI PUSH1 0x0 DUP1 REVERT JUMPDEST POP PUSH2 0x462 PUSH2 0x1C97 JUMP JUMPDEST CALLVALUE DUP1 ISZERO PUSH2 0x8FA JUMPI PUSH1 0x0 DUP1 REVERT JUMPDEST POP PUSH2 0x44B PUSH2 0x909 CALLDATASIZE PUSH1 0x4 PUSH2 0x2FA8 JUMP JUMPDEST PUSH2 0x1C9D JUMP JUMPDEST CALLVALUE DUP1 ISZERO PUSH2 0x91A JUMPI PUSH1 0x0 DUP1 REVERT JUMPDEST POP PUSH2 0x462 PUSH2 0x1DFA JUMP JUMPDEST CALLVALUE DUP1 ISZERO PUSH2 0x92F JUMPI PUSH1 0x0 DUP1 REVERT JUMPDEST POP PUSH2 0x3B1 PUSH2 0x93E CALLDATASIZE PUSH1 0x4 PUSH2 0x2CC6 JUMP JUMPDEST PUSH2 0x1DFF JUMP JUMPDEST CALLVALUE DUP1 ISZERO PUSH2 0x94F JUMPI PUSH1 0x0 DUP1 REVERT JUMPDEST POP PUSH2 0x44B PUSH2 0x1E2D JUMP JUMPDEST CALLVALUE DUP1 ISZERO PUSH2 0x964 JUMPI PUSH1 0x0 DUP1 REVERT JUMPDEST POP PUSH2 0x41E PUSH2 0x973 CALLDATASIZE PUSH1 0x4 PUSH2 0x2FA8 JUMP JUMPDEST PUSH2 0x1E8B JUMP JUMPDEST CALLVALUE DUP1 ISZERO PUSH2 0x984 JUMPI PUSH1 0x0 DUP1 REVERT JUMPDEST POP PUSH2 0x462 PUSH2 0x1EB5 JUMP JUMPDEST CALLVALUE DUP1 ISZERO PUSH2 0x999 JUMPI PUSH1 0x0 DUP1 REVERT JUMPDEST POP PUSH2 0x462 PUSH2 0x9A8 CALLDATASIZE PUSH1 0x4 PUSH2 0x2FA8 JUMP JUMPDEST PUSH2 0x1EBA JUMP JUMPDEST CALLVALUE DUP1 ISZERO PUSH2 0x9B9 JUMPI PUSH1 0x0 DUP1 REVERT JUMPDEST POP PUSH2 0x44B PUSH2 0x9C8 CALLDATASIZE PUSH1 0x4 PUSH2 0x2CAC JUMP JUMPDEST PUSH2 0x1ECC JUMP JUMPDEST PUSH2 0x44B PUSH2 0x9DB CALLDATASIZE PUSH1 0x4 PUSH2 0x2FA8 JUMP JUMPDEST PUSH2 0x1F3D JUMP JUMPDEST CALLVALUE DUP1 ISZERO PUSH2 0x9EC JUMPI PUSH1 0x0 DUP1 REVERT JUMPDEST POP PUSH2 0x3B1 PUSH2 0x9FB CALLDATASIZE PUSH1 0x4 PUSH2 0x2CAC JUMP JUMPDEST PUSH2 0x2114 JUMP JUMPDEST PUSH1 0x0 PUSH1 0x1 PUSH1 0x1 PUSH1 0xE0 SHL SUB NOT DUP3 AND PUSH4 0x780E9D63 PUSH1 0xE0 SHL EQ DUP1 PUSH2 0xA25 JUMPI POP PUSH2 0xA25 DUP3 PUSH2 0x214E JUMP JUMPDEST SWAP1 POP JUMPDEST SWAP2 SWAP1 POP JUMP JUMPDEST PUSH1 0x11 SLOAD PUSH3 0x10000 SWAP1 DIV PUSH1 0xFF AND DUP2 JUMP JUMPDEST PUSH1 0x60 PUSH1 0x0 DUP1 SLOAD PUSH2 0xA4B SWAP1 PUSH2 0x3C18 JUMP JUMPDEST DUP1 PUSH1 0x1F ADD PUSH1 0x20 DUP1 SWAP2 DIV MUL PUSH1 0x20 ADD PUSH1 0x40 MLOAD SWAP1 DUP2 ADD PUSH1 0x40 MSTORE DUP1 SWAP3 SWAP2 SWAP1 DUP2 DUP2 MSTORE PUSH1 0x20 ADD DUP3 DUP1 SLOAD PUSH2 0xA77 SWAP1 PUSH2 0x3C18 JUMP JUMPDEST DUP1 ISZERO PUSH2 0xAC4 JUMPI DUP1 PUSH1 0x1F LT PUSH2 0xA99 JUMPI PUSH2 0x100 DUP1 DUP4 SLOAD DIV MUL DUP4 MSTORE SWAP2 PUSH1 0x20 ADD SWAP2 PUSH2 0xAC4 JUMP JUMPDEST DUP3 ADD SWAP2 SWAP1 PUSH1 0x0 MSTORE PUSH1 0x20 PUSH1 0x0 KECCAK256 SWAP1 JUMPDEST DUP2 SLOAD DUP2 MSTORE SWAP1 PUSH1 0x1 ADD SWAP1 PUSH1 0x20 ADD DUP1 DUP4 GT PUSH2 0xAA7 JUMPI DUP3 SWAP1 SUB PUSH1 0x1F AND DUP3 ADD SWAP2 JUMPDEST POP POP POP POP POP SWAP1 POP SWAP1 JUMP JUMPDEST PUSH1 0x0 PUSH2 0xAD9 DUP3 PUSH2 0x218E JUMP JUMPDEST PUSH2 0xAFE JUMPI PUSH1 0x40 MLOAD PUSH3 0x461BCD PUSH1 0xE5 SHL DUP2 MSTORE PUSH1 0x4 ADD PUSH2 0xAF5 SWAP1 PUSH2 0x3855 JUMP JUMPDEST PUSH1 0x40 MLOAD DUP1 SWAP2 SUB SWAP1 REVERT JUMPDEST POP PUSH1 0x0 SWAP1 DUP2 MSTORE PUSH1 0x4 PUSH1 0x20 MSTORE PUSH1 0x40 SWAP1 KECCAK256 SLOAD PUSH1 0x1 PUSH1 0x1 PUSH1 0xA0 SHL SUB AND SWAP1 JUMP JUMPDEST PUSH1 0x0 PUSH2 0xB25 DUP3 PUSH2 0x1377 JUMP JUMPDEST SWAP1 POP DUP1 PUSH1 0x1 PUSH1 0x1 PUSH1 0xA0 SHL SUB AND DUP4 PUSH1 0x1 PUSH1 0x1 PUSH1 0xA0 SHL SUB AND EQ ISZERO PUSH2 0xB59 JUMPI PUSH1 0x40 MLOAD PUSH3 0x461BCD PUSH1 0xE5 SHL DUP2 MSTORE PUSH1 0x4 ADD PUSH2 0xAF5 SWAP1 PUSH2 0x3953 JUMP JUMPDEST DUP1 PUSH1 0x1 PUSH1 0x1 PUSH1 0xA0 SHL SUB AND PUSH2 0xB6B PUSH2 0x21AB JUMP JUMPDEST PUSH1 0x1 PUSH1 0x1 PUSH1 0xA0 SHL SUB AND EQ DUP1 PUSH2 0xB87 JUMPI POP PUSH2 0xB87 DUP2 PUSH2 0x93E PUSH2 0x21AB JUMP JUMPDEST PUSH2 0xBA3 JUMPI PUSH1 0x40 MLOAD PUSH3 0x461BCD PUSH1 0xE5 SHL DUP2 MSTORE PUSH1 0x4 ADD PUSH2 0xAF5 SWAP1 PUSH2 0x36B2 JUMP JUMPDEST PUSH2 0xBAD DUP4 DUP4 PUSH2 0x21AF JUMP JUMPDEST POP POP POP JUMP JUMPDEST PUSH1 0xC DUP2 JUMP JUMPDEST PUSH2 0xBBF PUSH2 0x21AB JUMP JUMPDEST PUSH1 0x1 PUSH1 0x1 PUSH1 0xA0 SHL SUB AND PUSH2 0xBD0 PUSH2 0x1712 JUMP JUMPDEST PUSH1 0x1 PUSH1 0x1 PUSH1 0xA0 SHL SUB AND EQ PUSH2 0xBF6 JUMPI PUSH1 0x40 MLOAD PUSH3 0x461BCD PUSH1 0xE5 SHL DUP2 MSTORE PUSH1 0x4 ADD PUSH2 0xAF5 SWAP1 PUSH2 0x38CF JUMP JUMPDEST PUSH1 0x1 PUSH1 0x1 PUSH1 0xA0 SHL SUB DUP2 AND PUSH1 0x0 SWAP1 DUP2 MSTORE PUSH1 0x14 PUSH1 0x20 MSTORE PUSH1 0x40 SWAP1 KECCAK256 SLOAD PUSH1 0x0 DUP1 MLOAD PUSH1 0x20 PUSH2 0x3CFB DUP4 CODECOPY DUP2 MLOAD SWAP2 MSTORE EQ PUSH2 0xC3B JUMPI PUSH1 0x40 MLOAD PUSH3 0x461BCD PUSH1 0xE5 SHL DUP2 MSTORE PUSH1 0x4 ADD PUSH2 0xAF5 SWAP1 PUSH2 0x38A1 JUMP JUMPDEST PUSH1 0x1 PUSH1 0x1 PUSH1 0xA0 SHL SUB DUP2 AND PUSH1 0x0 SWAP1 DUP2 MSTORE PUSH1 0x14 PUSH1 0x20 MSTORE PUSH1 0x40 DUP1 DUP3 KECCAK256 SWAP2 SWAP1 SWAP2 SSTORE MLOAD PUSH32 0x753F40CA3312B2408759A67875B367955E7BAA221DAF08AA3D643D96202AC12B SWAP1 PUSH2 0xC86 SWAP1 DUP4 SWAP1 PUSH2 0x3076 JUMP JUMPDEST PUSH1 0x40 MLOAD DUP1 SWAP2 SUB SWAP1 LOG1 POP JUMP JUMPDEST PUSH1 0x8 SLOAD SWAP1 JUMP JUMPDEST PUSH2 0xCA8 PUSH2 0xCA2 PUSH2 0x21AB JUMP JUMPDEST DUP3 PUSH2 0x221D JUMP JUMPDEST PUSH2 0xCC4 JUMPI PUSH1 0x40 MLOAD PUSH3 0x461BCD PUSH1 0xE5 SHL DUP2 MSTORE PUSH1 0x4 ADD PUSH2 0xAF5 SWAP1 PUSH2 0x39CB JUMP JUMPDEST PUSH2 0xBAD DUP4 DUP4 DUP4 PUSH2 0x22A2 JUMP JUMPDEST PUSH1 0x1 PUSH1 0x1 PUSH1 0xA0 SHL SUB AND PUSH1 0x0 SWAP1 DUP2 MSTORE PUSH1 0x14 PUSH1 0x20 MSTORE PUSH1 0x40 SWAP1 KECCAK256 SLOAD PUSH1 0x0 DUP1 MLOAD PUSH1 0x20 PUSH2 0x3CFB DUP4 CODECOPY DUP2 MLOAD SWAP2 MSTORE EQ SWAP1 JUMP JUMPDEST PUSH1 0x8 DUP2 JUMP JUMPDEST DUP1 PUSH2 0xD09 DUP2 PUSH2 0x218E JUMP JUMPDEST POP PUSH2 0xD13 DUP3 PUSH2 0x1A6B JUMP JUMPDEST CALLVALUE EQ PUSH2 0xD31 JUMPI PUSH1 0x40 MLOAD PUSH3 0x461BCD PUSH1 0xE5 SHL DUP2 MSTORE PUSH1 0x4 ADD PUSH2 0xAF5 SWAP1 PUSH2 0x381E JUMP JUMPDEST PUSH1 0x0 DUP3 DUP2 MSTORE PUSH1 0x18 PUSH1 0x20 SWAP1 DUP2 MSTORE PUSH1 0x40 DUP1 DUP4 KECCAK256 SLOAD PUSH1 0x15 SWAP1 SWAP3 MSTORE SWAP1 SWAP2 KECCAK256 SLOAD PUSH1 0x1 PUSH1 0x1 PUSH1 0xA0 SHL SUB SWAP1 SWAP2 AND SWAP1 PUSH1 0x2 EQ DUP1 PUSH2 0xD74 JUMPI POP PUSH1 0x0 DUP4 DUP2 MSTORE PUSH1 0x15 PUSH1 0x20 MSTORE PUSH1 0x40 SWAP1 KECCAK256 SLOAD PUSH1 0x3 EQ JUMPDEST PUSH2 0xD90 JUMPI PUSH1 0x40 MLOAD PUSH3 0x461BCD PUSH1 0xE5 SHL DUP2 MSTORE PUSH1 0x4 ADD PUSH2 0xAF5 SWAP1 PUSH2 0x3685 JUMP JUMPDEST PUSH1 0x0 DUP4 DUP2 MSTORE PUSH1 0x17 PUSH1 0x20 MSTORE PUSH1 0x40 SWAP1 KECCAK256 SLOAD CALLVALUE EQ PUSH2 0xDBD JUMPI PUSH1 0x40 MLOAD PUSH3 0x461BCD PUSH1 0xE5 SHL DUP2 MSTORE PUSH1 0x4 ADD PUSH2 0xAF5 SWAP1 PUSH2 0x319B JUMP JUMPDEST PUSH2 0xDC5 PUSH2 0x21AB JUMP JUMPDEST PUSH1 0x1 PUSH1 0x1 PUSH1 0xA0 SHL SUB AND DUP2 PUSH1 0x1 PUSH1 0x1 PUSH1 0xA0 SHL SUB AND EQ ISZERO PUSH2 0xDF6 JUMPI PUSH1 0x40 MLOAD PUSH3 0x461BCD PUSH1 0xE5 SHL DUP2 MSTORE PUSH1 0x4 ADD PUSH2 0xAF5 SWAP1 PUSH2 0x3563 JUMP JUMPDEST PUSH1 0x0 DUP4 DUP2 MSTORE PUSH1 0x19 PUSH1 0x20 MSTORE PUSH1 0x40 DUP2 KECCAK256 DUP1 SLOAD SWAP2 PUSH2 0xE10 DUP4 PUSH2 0x3C53 JUMP JUMPDEST SWAP1 SWAP2 SSTORE POP POP PUSH1 0x0 DUP4 DUP2 MSTORE PUSH1 0x15 PUSH1 0x20 MSTORE PUSH1 0x40 DUP2 KECCAK256 SSTORE PUSH1 0xE SLOAD PUSH2 0xE30 DUP5 PUSH2 0x1A6B JUMP JUMPDEST PUSH2 0xE3A SWAP2 SWAP1 PUSH2 0x3BB6 JUMP JUMPDEST PUSH1 0xF PUSH1 0x0 DUP3 DUP3 SLOAD PUSH2 0xE4B SWAP2 SWAP1 PUSH2 0x3B8A JUMP JUMPDEST SWAP1 SWAP2 SSTORE POP POP PUSH1 0x1 PUSH1 0x1 PUSH1 0xA0 SHL SUB DUP2 AND PUSH2 0x8FC PUSH2 0xE66 DUP6 PUSH2 0x1A6B JUMP JUMPDEST PUSH1 0x40 MLOAD DUP2 ISZERO SWAP1 SWAP3 MUL SWAP2 PUSH1 0x0 DUP2 DUP2 DUP2 DUP6 DUP9 DUP9 CALL SWAP4 POP POP POP POP ISZERO DUP1 ISZERO PUSH2 0xE8E JUMPI RETURNDATASIZE PUSH1 0x0 DUP1 RETURNDATACOPY RETURNDATASIZE PUSH1 0x0 REVERT JUMPDEST POP PUSH2 0xBAD ADDRESS PUSH2 0xE9B PUSH2 0x21AB JUMP JUMPDEST DUP6 PUSH2 0x22A2 JUMP JUMPDEST PUSH1 0x0 PUSH2 0xEAC DUP4 PUSH2 0x14A9 JUMP JUMPDEST DUP3 LT PUSH2 0xECA JUMPI PUSH1 0x40 MLOAD PUSH3 0x461BCD PUSH1 0xE5 SHL DUP2 MSTORE PUSH1 0x4 ADD PUSH2 0xAF5 SWAP1 PUSH2 0x3285 JUMP JUMPDEST POP PUSH1 0x1 PUSH1 0x1 PUSH1 0xA0 SHL SUB SWAP2 SWAP1 SWAP2 AND PUSH1 0x0 SWAP1 DUP2 MSTORE PUSH1 0x6 PUSH1 0x20 SWAP1 DUP2 MSTORE PUSH1 0x40 DUP1 DUP4 KECCAK256 SWAP4 DUP4 MSTORE SWAP3 SWAP1 MSTORE KECCAK256 SLOAD SWAP1 JUMP JUMPDEST PUSH2 0xEFB PUSH2 0x21AB JUMP JUMPDEST PUSH1 0x1 PUSH1 0x1 PUSH1 0xA0 SHL SUB AND PUSH2 0xF0C PUSH2 0x1712 JUMP JUMPDEST PUSH1 0x1 PUSH1 0x1 PUSH1 0xA0 SHL SUB AND EQ PUSH2 0xF32 JUMPI PUSH1 0x40 MLOAD PUSH3 0x461BCD PUSH1 0xE5 SHL DUP2 MSTORE PUSH1 0x4 ADD PUSH2 0xAF5 SWAP1 PUSH2 0x38CF JUMP JUMPDEST PUSH1 0x11 DUP1 SLOAD PUSH2 0xFF00 NOT DUP2 AND PUSH2 0x100 SWAP2 DUP3 SWAP1 DIV PUSH1 0xFF AND ISZERO SWAP1 SWAP2 MUL OR SWAP1 SSTORE JUMP JUMPDEST DUP3 PUSH2 0xF59 DUP2 PUSH2 0x218E JUMP JUMPDEST POP PUSH1 0x0 PUSH2 0xF65 DUP6 PUSH2 0x1377 JUMP JUMPDEST SWAP1 POP PUSH2 0xF6F PUSH2 0x21AB JUMP JUMPDEST PUSH1 0x1 PUSH1 0x1 PUSH1 0xA0 SHL SUB AND DUP2 PUSH1 0x1 PUSH1 0x1 PUSH1 0xA0 SHL SUB AND EQ PUSH2 0xF9F JUMPI PUSH1 0x40 MLOAD PUSH3 0x461BCD PUSH1 0xE5 SHL DUP2 MSTORE PUSH1 0x4 ADD PUSH2 0xAF5 SWAP1 PUSH2 0x324E JUMP JUMPDEST PUSH1 0x0 DUP5 GT PUSH2 0xFBF JUMPI PUSH1 0x40 MLOAD PUSH3 0x461BCD PUSH1 0xE5 SHL DUP2 MSTORE PUSH1 0x4 ADD PUSH2 0xAF5 SWAP1 PUSH2 0x365F JUMP JUMPDEST PUSH1 0x0 DUP6 DUP2 MSTORE PUSH1 0x17 PUSH1 0x20 MSTORE PUSH1 0x40 SWAP1 KECCAK256 DUP5 SWAP1 SSTORE PUSH1 0x1 DUP4 ISZERO ISZERO EQ ISZERO PUSH2 0xFF2 JUMPI PUSH1 0x0 DUP6 DUP2 MSTORE PUSH1 0x15 PUSH1 0x20 MSTORE PUSH1 0x40 SWAP1 KECCAK256 PUSH1 0x3 SWAP1 SSTORE PUSH2 0x1005 JUMP JUMPDEST PUSH1 0x0 DUP6 DUP2 MSTORE PUSH1 0x15 PUSH1 0x20 MSTORE PUSH1 0x40 SWAP1 KECCAK256 PUSH1 0x1 SWAP1 SSTORE JUMPDEST PUSH1 0x0 DUP6 DUP2 MSTORE PUSH1 0x18 PUSH1 0x20 MSTORE PUSH1 0x40 SWAP1 KECCAK256 DUP1 SLOAD PUSH1 0x1 PUSH1 0x1 PUSH1 0xA0 SHL SUB NOT AND PUSH1 0x1 PUSH1 0x1 PUSH1 0xA0 SHL SUB DUP4 AND OR SWAP1 SSTORE PUSH2 0x1037 DUP2 ADDRESS DUP8 PUSH2 0x22A2 JUMP JUMPDEST POP POP POP POP POP JUMP JUMPDEST PUSH2 0x1046 PUSH2 0x21AB JUMP JUMPDEST PUSH1 0x1 PUSH1 0x1 PUSH1 0xA0 SHL SUB AND PUSH2 0x1057 PUSH2 0x1712 JUMP JUMPDEST PUSH1 0x1 PUSH1 0x1 PUSH1 0xA0 SHL SUB AND EQ PUSH2 0x107D JUMPI PUSH1 0x40 MLOAD PUSH3 0x461BCD PUSH1 0xE5 SHL DUP2 MSTORE PUSH1 0x4 ADD PUSH2 0xAF5 SWAP1 PUSH2 0x38CF JUMP JUMPDEST PUSH1 0x1 PUSH1 0x1 PUSH1 0xA0 SHL SUB DUP2 AND PUSH1 0x0 SWAP1 DUP2 MSTORE PUSH1 0x14 PUSH1 0x20 MSTORE PUSH1 0x40 SWAP1 KECCAK256 SLOAD PUSH1 0x0 DUP1 MLOAD PUSH1 0x20 PUSH2 0x3CDB DUP4 CODECOPY DUP2 MLOAD SWAP2 MSTORE EQ PUSH2 0x10C2 JUMPI PUSH1 0x40 MLOAD PUSH3 0x461BCD PUSH1 0xE5 SHL DUP2 MSTORE PUSH1 0x4 ADD PUSH2 0xAF5 SWAP1 PUSH2 0x34E8 JUMP JUMPDEST PUSH1 0x1 PUSH1 0x1 PUSH1 0xA0 SHL SUB DUP2 AND PUSH1 0x0 SWAP1 DUP2 MSTORE PUSH1 0x14 PUSH1 0x20 MSTORE PUSH1 0x40 DUP1 DUP3 KECCAK256 SWAP2 SWAP1 SWAP2 SSTORE MLOAD PUSH32 0x1AF60F72D206709AC9C5FD393B54381507AF4DF1FEB01708422EF8498C57AA57 SWAP1 PUSH2 0xC86 SWAP1 DUP4 SWAP1 PUSH2 0x3076 JUMP JUMPDEST PUSH1 0x0 DUP2 DUP2 MSTORE PUSH1 0x19 PUSH1 0x20 MSTORE PUSH1 0x40 DUP2 KECCAK256 DUP1 SLOAD SWAP2 PUSH2 0x1127 DUP4 PUSH2 0x3C53 JUMP JUMPDEST SWAP2 SWAP1 POP SSTORE POP PUSH2 0xBAD DUP4 DUP4 DUP4 PUSH1 0x40 MLOAD DUP1 PUSH1 0x20 ADD PUSH1 0x40 MSTORE DUP1 PUSH1 0x0 DUP2 MSTORE POP PUSH2 0x193E JUMP JUMPDEST PUSH2 0x114F PUSH2 0x21AB JUMP JUMPDEST PUSH1 0x1 PUSH1 0x1 PUSH1 0xA0 SHL SUB AND PUSH2 0x1160 PUSH2 0x1712 JUMP JUMPDEST PUSH1 0x1 PUSH1 0x1 PUSH1 0xA0 SHL SUB AND EQ PUSH2 0x1186 JUMPI PUSH1 0x40 MLOAD PUSH3 0x461BCD PUSH1 0xE5 SHL DUP2 MSTORE PUSH1 0x4 ADD PUSH2 0xAF5 SWAP1 PUSH2 0x38CF JUMP JUMPDEST PUSH1 0x1 PUSH1 0x1 PUSH1 0xA0 SHL SUB DUP2 AND PUSH1 0x0 SWAP1 DUP2 MSTORE PUSH1 0x14 PUSH1 0x20 MSTORE PUSH1 0x40 SWAP1 DUP2 SWAP1 KECCAK256 PUSH1 0x0 DUP1 MLOAD PUSH1 0x20 PUSH2 0x3CDB DUP4 CODECOPY DUP2 MLOAD SWAP2 MSTORE SWAP1 SSTORE MLOAD PUSH32 0xA885915389B11A607B904893422ADA8A2787D4CE8A8E2A83A3F35B19E3D01266 SWAP1 PUSH2 0xC86 SWAP1 DUP4 SWAP1 PUSH2 0x3076 JUMP JUMPDEST PUSH1 0x0 PUSH2 0x11E9 PUSH2 0xC91 JUMP JUMPDEST DUP3 LT PUSH2 0x1207 JUMPI PUSH1 0x40 MLOAD PUSH3 0x461BCD PUSH1 0xE5 SHL DUP2 MSTORE PUSH1 0x4 ADD PUSH2 0xAF5 SWAP1 PUSH2 0x3A1C JUMP JUMPDEST PUSH1 0x8 DUP3 DUP2 SLOAD DUP2 LT PUSH2 0x1228 JUMPI PUSH4 0x4E487B71 PUSH1 0xE0 SHL PUSH1 0x0 MSTORE PUSH1 0x32 PUSH1 0x4 MSTORE PUSH1 0x24 PUSH1 0x0 REVERT JUMPDEST SWAP1 PUSH1 0x0 MSTORE PUSH1 0x20 PUSH1 0x0 KECCAK256 ADD SLOAD SWAP1 POP SWAP2 SWAP1 POP JUMP JUMPDEST PUSH1 0x0 DUP1 MLOAD PUSH1 0x20 PUSH2 0x3CFB DUP4 CODECOPY DUP2 MLOAD SWAP2 MSTORE PUSH1 0x14 PUSH1 0x0 PUSH2 0x1255 PUSH2 0x21AB JUMP JUMPDEST PUSH1 0x1 PUSH1 0x1 PUSH1 0xA0 SHL SUB AND PUSH1 0x1 PUSH1 0x1 PUSH1 0xA0 SHL SUB AND DUP2 MSTORE PUSH1 0x20 ADD SWAP1 DUP2 MSTORE PUSH1 0x20 ADD PUSH1 0x0 KECCAK256 SLOAD EQ PUSH2 0x1293 JUMPI PUSH1 0x40 MLOAD PUSH3 0x461BCD PUSH1 0xE5 SHL DUP2 MSTORE PUSH1 0x4 ADD PUSH2 0xAF5 SWAP1 PUSH2 0x3628 JUMP JUMPDEST PUSH1 0x11 DUP1 SLOAD PUSH1 0xFF NOT AND SWAP3 ISZERO ISZERO SWAP3 SWAP1 SWAP3 OR SWAP1 SWAP2 SSTORE PUSH1 0xC SWAP2 SWAP1 SWAP2 SSTORE PUSH1 0xD SSTORE JUMP JUMPDEST PUSH1 0xB DUP2 JUMP JUMPDEST PUSH1 0x16 PUSH1 0x20 MSTORE PUSH1 0x0 SWAP1 DUP2 MSTORE PUSH1 0x40 SWAP1 KECCAK256 SLOAD PUSH1 0xFF AND DUP2 JUMP JUMPDEST PUSH2 0x12D2 PUSH2 0x21AB JUMP JUMPDEST PUSH1 0x1 PUSH1 0x1 PUSH1 0xA0 SHL SUB AND PUSH2 0x12E3 PUSH2 0x1712 JUMP JUMPDEST PUSH1 0x1 PUSH1 0x1 PUSH1 0xA0 SHL SUB AND EQ PUSH2 0x1309 JUMPI PUSH1 0x40 MLOAD PUSH3 0x461BCD PUSH1 0xE5 SHL DUP2 MSTORE PUSH1 0x4 ADD PUSH2 0xAF5 SWAP1 PUSH2 0x38CF JUMP JUMPDEST PUSH2 0x1315 PUSH1 0x10 DUP4 DUP4 PUSH2 0x2B16 JUMP JUMPDEST POP PUSH32 0x8A274CDD629B9AAE599B13D8BFEE3EE4A15350B0386A9B64087A393DB0093767 DUP3 DUP3 PUSH1 0x40 MLOAD PUSH2 0x1347 SWAP3 SWAP2 SWAP1 PUSH2 0x30EB JUMP JUMPDEST PUSH1 0x40 MLOAD DUP1 SWAP2 SUB SWAP1 LOG1 POP POP JUMP JUMPDEST PUSH20 0x5C036BEE95B37532D7BC364F756EFA10667F1AA3 DUP2 JUMP JUMPDEST PUSH8 0x16345785D8A0000 DUP2 JUMP JUMPDEST PUSH1 0x0 DUP2 DUP2 MSTORE PUSH1 0x2 PUSH1 0x20 MSTORE PUSH1 0x40 DUP2 KECCAK256 SLOAD PUSH1 0x1 PUSH1 0x1 PUSH1 0xA0 SHL SUB AND DUP1 PUSH2 0xA25 JUMPI PUSH1 0x40 MLOAD PUSH3 0x461BCD PUSH1 0xE5 SHL DUP2 MSTORE PUSH1 0x4 ADD PUSH2 0xAF5 SWAP1 PUSH2 0x37A0 JUMP JUMPDEST PUSH2 0x13B4 PUSH2 0x21AB JUMP JUMPDEST PUSH1 0x1 PUSH1 0x1 PUSH1 0xA0 SHL SUB AND PUSH2 0x13C5 PUSH2 0x1712 JUMP JUMPDEST PUSH1 0x1 PUSH1 0x1 PUSH1 0xA0 SHL SUB AND EQ PUSH2 0x13EB JUMPI PUSH1 0x40 MLOAD PUSH3 0x461BCD PUSH1 0xE5 SHL DUP2 MSTORE PUSH1 0x4 ADD PUSH2 0xAF5 SWAP1 PUSH2 0x38CF JUMP JUMPDEST PUSH1 0xB SLOAD DUP2 GT PUSH2 0x140C JUMPI PUSH1 0x40 MLOAD PUSH3 0x461BCD PUSH1 0xE5 SHL DUP2 MSTORE PUSH1 0x4 ADD PUSH2 0xAF5 SWAP1 PUSH2 0x3219 JUMP JUMPDEST PUSH1 0xB SSTORE JUMP JUMPDEST PUSH2 0x1419 PUSH2 0x21AB JUMP JUMPDEST PUSH1 0x1 PUSH1 0x1 PUSH1 0xA0 SHL SUB AND PUSH2 0x142A PUSH2 0x1712 JUMP JUMPDEST PUSH1 0x1 PUSH1 0x1 PUSH1 0xA0 SHL SUB AND EQ PUSH2 0x1450 JUMPI PUSH1 0x40 MLOAD PUSH3 0x461BCD PUSH1 0xE5 SHL DUP2 MSTORE PUSH1 0x4 ADD PUSH2 0xAF5 SWAP1 PUSH2 0x38CF JUMP JUMPDEST PUSH1 0x1 PUSH1 0x1 PUSH1 0xA0 SHL SUB DUP2 AND PUSH1 0x0 SWAP1 DUP2 MSTORE PUSH1 0x14 PUSH1 0x20 MSTORE PUSH1 0x40 SWAP1 DUP2 SWAP1 KECCAK256 PUSH1 0x0 DUP1 MLOAD PUSH1 0x20 PUSH2 0x3CFB DUP4 CODECOPY DUP2 MLOAD SWAP2 MSTORE SWAP1 SSTORE MLOAD PUSH32 0xB1DD89CDF7FB35E46C90CD4A4D952F58F00AAEB764D2B09967740AFE8AEDEE43 SWAP1 PUSH2 0xC86 SWAP1 DUP4 SWAP1 PUSH2 0x3076 JUMP JUMPDEST PUSH1 0x0 PUSH1 0x1 PUSH1 0x1 PUSH1 0xA0 SHL SUB DUP3 AND PUSH2 0x14D1 JUMPI PUSH1 0x40 MLOAD PUSH3 0x461BCD PUSH1 0xE5 SHL DUP2 MSTORE PUSH1 0x4 ADD PUSH2 0xAF5 SWAP1 PUSH2 0x370F JUMP JUMPDEST POP PUSH1 0x1 PUSH1 0x1 PUSH1 0xA0 SHL SUB AND PUSH1 0x0 SWAP1 DUP2 MSTORE PUSH1 0x3 PUSH1 0x20 MSTORE PUSH1 0x40 SWAP1 KECCAK256 SLOAD SWAP1 JUMP JUMPDEST PUSH2 0x14F5 PUSH2 0x21AB JUMP JUMPDEST PUSH1 0x1 PUSH1 0x1 PUSH1 0xA0 SHL SUB AND PUSH2 0x1506 PUSH2 0x1712 JUMP JUMPDEST PUSH1 0x1 PUSH1 0x1 PUSH1 0xA0 SHL SUB AND EQ PUSH2 0x152C JUMPI PUSH1 0x40 MLOAD PUSH3 0x461BCD PUSH1 0xE5 SHL DUP2 MSTORE PUSH1 0x4 ADD PUSH2 0xAF5 SWAP1 PUSH2 0x38CF JUMP JUMPDEST PUSH2 0x1536 PUSH1 0x0 PUSH2 0x23D5 JUMP JUMPDEST JUMP JUMPDEST DUP1 PUSH2 0x1542 DUP2 PUSH2 0x218E JUMP JUMPDEST POP PUSH1 0x0 DUP3 DUP2 MSTORE PUSH1 0x18 PUSH1 0x20 SWAP1 DUP2 MSTORE PUSH1 0x40 DUP1 DUP4 KECCAK256 SLOAD PUSH1 0x15 SWAP1 SWAP3 MSTORE SWAP1 SWAP2 KECCAK256 SLOAD PUSH1 0x1 PUSH1 0x1 PUSH1 0xA0 SHL SUB SWAP1 SWAP2 AND SWAP1 PUSH2 0x1586 JUMPI PUSH1 0x40 MLOAD PUSH3 0x461BCD PUSH1 0xE5 SHL DUP2 MSTORE PUSH1 0x4 ADD PUSH2 0xAF5 SWAP1 PUSH2 0x3685 JUMP JUMPDEST PUSH2 0x158E PUSH2 0x21AB JUMP JUMPDEST PUSH1 0x1 PUSH1 0x1 PUSH1 0xA0 SHL SUB AND DUP2 PUSH1 0x1 PUSH1 0x1 PUSH1 0xA0 SHL SUB AND EQ PUSH2 0x15BE JUMPI PUSH1 0x40 MLOAD PUSH3 0x461BCD PUSH1 0xE5 SHL DUP2 MSTORE PUSH1 0x4 ADD PUSH2 0xAF5 SWAP1 PUSH2 0x35F1 JUMP JUMPDEST PUSH1 0x0 DUP4 DUP2 MSTORE PUSH1 0x15 PUSH1 0x20 MSTORE PUSH1 0x40 DUP2 KECCAK256 SSTORE PUSH2 0xBAD ADDRESS PUSH2 0xE9B PUSH2 0x21AB JUMP JUMPDEST PUSH2 0x15E1 PUSH2 0x21AB JUMP JUMPDEST PUSH1 0x1 PUSH1 0x1 PUSH1 0xA0 SHL SUB AND PUSH2 0x15F2 PUSH2 0x1712 JUMP JUMPDEST PUSH1 0x1 PUSH1 0x1 PUSH1 0xA0 SHL SUB AND EQ PUSH2 0x1618 JUMPI PUSH1 0x40 MLOAD PUSH3 0x461BCD PUSH1 0xE5 SHL DUP2 MSTORE PUSH1 0x4 ADD PUSH2 0xAF5 SWAP1 PUSH2 0x38CF JUMP JUMPDEST PUSH1 0x1 PUSH1 0x1 PUSH1 0xA0 SHL SUB AND PUSH1 0x0 SWAP1 DUP2 MSTORE PUSH1 0x16 PUSH1 0x20 MSTORE PUSH1 0x40 SWAP1 KECCAK256 DUP1 SLOAD PUSH1 0xFF NOT AND SWAP1 SSTORE JUMP JUMPDEST PUSH1 0x0 DUP1 MLOAD PUSH1 0x20 PUSH2 0x3CDB DUP4 CODECOPY DUP2 MLOAD SWAP2 MSTORE PUSH1 0x14 PUSH1 0x0 PUSH2 0x1654 PUSH2 0x21AB JUMP JUMPDEST PUSH1 0x1 PUSH1 0x1 PUSH1 0xA0 SHL SUB AND PUSH1 0x1 PUSH1 0x1 PUSH1 0xA0 SHL SUB AND DUP2 MSTORE PUSH1 0x20 ADD SWAP1 DUP2 MSTORE PUSH1 0x20 ADD PUSH1 0x0 KECCAK256 SLOAD EQ PUSH2 0x1692 JUMPI PUSH1 0x40 MLOAD PUSH3 0x461BCD PUSH1 0xE5 SHL DUP2 MSTORE PUSH1 0x4 ADD PUSH2 0xAF5 SWAP1 PUSH2 0x3B05 JUMP JUMPDEST PUSH1 0x0 DUP2 DUP2 MSTORE PUSH1 0x15 PUSH1 0x20 MSTORE PUSH1 0x40 SWAP1 KECCAK256 SLOAD PUSH1 0x1 EQ PUSH2 0x16C0 JUMPI PUSH1 0x40 MLOAD PUSH3 0x461BCD PUSH1 0xE5 SHL DUP2 MSTORE PUSH1 0x4 ADD PUSH2 0xAF5 SWAP1 PUSH2 0x3AAB JUMP JUMPDEST PUSH1 0x0 DUP2 DUP2 MSTORE PUSH1 0x15 PUSH1 0x20 MSTORE PUSH1 0x40 SWAP1 DUP2 SWAP1 KECCAK256 PUSH1 0x2 SWAP1 DUP2 SWAP1 SSTORE SWAP1 MLOAD PUSH32 0x1FC47CB65036CC45B76CD85A8D60691EEF53106145839D51855DD982C7DF8C0C SWAP2 PUSH2 0xC86 SWAP2 DUP5 SWAP2 SWAP1 PUSH2 0x3B7C JUMP JUMPDEST PUSH8 0x2C68AF0BB140000 DUP2 JUMP JUMPDEST PUSH1 0xA SLOAD PUSH1 0x1 PUSH1 0x1 PUSH1 0xA0 SHL SUB AND SWAP1 JUMP JUMPDEST PUSH1 0x60 PUSH1 0x1 DUP1 SLOAD PUSH2 0xA4B SWAP1 PUSH2 0x3C18 JUMP JUMPDEST PUSH1 0x11 SLOAD PUSH2 0x100 SWAP1 DIV PUSH1 0xFF AND PUSH2 0x1757 JUMPI PUSH1 0x40 MLOAD PUSH3 0x461BCD PUSH1 0xE5 SHL DUP2 MSTORE PUSH1 0x4 ADD PUSH2 0xAF5 SWAP1 PUSH2 0x3AD7 JUMP JUMPDEST PUSH1 0xB SLOAD DUP2 PUSH2 0x1763 PUSH2 0xC91 JUMP JUMPDEST PUSH2 0x176D SWAP2 SWAP1 PUSH2 0x3B8A JUMP JUMPDEST GT ISZERO PUSH2 0x178B JUMPI PUSH1 0x40 MLOAD PUSH3 0x461BCD PUSH1 0xE5 SHL DUP2 MSTORE PUSH1 0x4 ADD PUSH2 0xAF5 SWAP1 PUSH2 0x3B3C JUMP JUMPDEST PUSH2 0x179D DUP2 PUSH8 0x2C68AF0BB140000 PUSH2 0x3BB6 JUMP JUMPDEST CALLVALUE EQ PUSH2 0x17BB JUMPI PUSH1 0x40 MLOAD PUSH3 0x461BCD PUSH1 0xE5 SHL DUP2 MSTORE PUSH1 0x4 ADD PUSH2 0xAF5 SWAP1 PUSH2 0x381E JUMP JUMPDEST PUSH1 0x0 PUSH2 0x17C5 PUSH2 0xC91 JUMP JUMPDEST SWAP1 POP DUP1 JUMPDEST PUSH2 0x17D3 DUP4 DUP4 PUSH2 0x3B8A JUMP JUMPDEST DUP2 LT ISZERO PUSH2 0xBAD JUMPI PUSH2 0x17EB PUSH2 0x17E5 PUSH2 0x21AB JUMP JUMPDEST DUP3 PUSH2 0x2427 JUMP JUMPDEST DUP1 PUSH2 0x17F5 DUP2 PUSH2 0x3C53 JUMP JUMPDEST SWAP2 POP POP PUSH2 0x17C9 JUMP JUMPDEST PUSH2 0x180F PUSH2 0x1808 PUSH2 0x21AB JUMP JUMPDEST DUP4 DUP4 PUSH2 0x2441 JUMP JUMPDEST POP POP JUMP JUMPDEST PUSH2 0x181B PUSH2 0x21AB JUMP JUMPDEST PUSH1 0x1 PUSH1 0x1 PUSH1 0xA0 SHL SUB AND PUSH2 0x182C PUSH2 0x1712 JUMP JUMPDEST PUSH1 0x1 PUSH1 0x1 PUSH1 0xA0 SHL SUB AND EQ PUSH2 0x1852 JUMPI PUSH1 0x40 MLOAD PUSH3 0x461BCD PUSH1 0xE5 SHL DUP2 MSTORE PUSH1 0x4 ADD PUSH2 0xAF5 SWAP1 PUSH2 0x38CF JUMP JUMPDEST PUSH1 0x0 JUMPDEST DUP2 DUP2 LT ISZERO PUSH2 0xBAD JUMPI PUSH1 0x0 DUP4 DUP4 DUP4 DUP2 DUP2 LT PUSH2 0x187F JUMPI PUSH4 0x4E487B71 PUSH1 0xE0 SHL PUSH1 0x0 MSTORE PUSH1 0x32 PUSH1 0x4 MSTORE PUSH1 0x24 PUSH1 0x0 REVERT JUMPDEST SWAP1 POP PUSH1 0x20 MUL ADD PUSH1 0x20 DUP2 ADD SWAP1 PUSH2 0x1894 SWAP2 SWAP1 PUSH2 0x2CAC JUMP JUMPDEST PUSH1 0x1 PUSH1 0x1 PUSH1 0xA0 SHL SUB AND EQ ISZERO PUSH2 0x18BB JUMPI PUSH1 0x40 MLOAD PUSH3 0x461BCD PUSH1 0xE5 SHL DUP2 MSTORE PUSH1 0x4 ADD PUSH2 0xAF5 SWAP1 PUSH2 0x3994 JUMP JUMPDEST PUSH1 0x1 PUSH1 0x16 PUSH1 0x0 DUP6 DUP6 DUP6 DUP2 DUP2 LT PUSH2 0x18E1 JUMPI PUSH4 0x4E487B71 PUSH1 0xE0 SHL PUSH1 0x0 MSTORE PUSH1 0x32 PUSH1 0x4 MSTORE PUSH1 0x24 PUSH1 0x0 REVERT JUMPDEST SWAP1 POP PUSH1 0x20 MUL ADD PUSH1 0x20 DUP2 ADD SWAP1 PUSH2 0x18F6 SWAP2 SWAP1 PUSH2 0x2CAC JUMP JUMPDEST PUSH1 0x1 PUSH1 0x1 PUSH1 0xA0 SHL SUB AND DUP2 MSTORE PUSH1 0x20 DUP2 ADD SWAP2 SWAP1 SWAP2 MSTORE PUSH1 0x40 ADD PUSH1 0x0 KECCAK256 DUP1 SLOAD PUSH1 0xFF NOT AND SWAP2 ISZERO ISZERO SWAP2 SWAP1 SWAP2 OR SWAP1 SSTORE DUP1 PUSH2 0x1928 DUP2 PUSH2 0x3C53 JUMP JUMPDEST SWAP2 POP POP PUSH2 0x1855 JUMP JUMPDEST PUSH1 0x11 SLOAD PUSH2 0x100 SWAP1 DIV PUSH1 0xFF AND DUP2 JUMP JUMPDEST PUSH2 0x194F PUSH2 0x1949 PUSH2 0x21AB JUMP JUMPDEST DUP4 PUSH2 0x221D JUMP JUMPDEST PUSH2 0x196B JUMPI PUSH1 0x40 MLOAD PUSH3 0x461BCD PUSH1 0xE5 SHL DUP2 MSTORE PUSH1 0x4 ADD PUSH2 0xAF5 SWAP1 PUSH2 0x39CB JUMP JUMPDEST PUSH2 0x1977 DUP5 DUP5 DUP5 DUP5 PUSH2 0x24E4 JUMP JUMPDEST POP POP POP POP JUMP JUMPDEST PUSH1 0x0 DUP1 MLOAD PUSH1 0x20 PUSH2 0x3CFB DUP4 CODECOPY DUP2 MLOAD SWAP2 MSTORE PUSH1 0x14 PUSH1 0x0 PUSH2 0x1998 PUSH2 0x21AB JUMP JUMPDEST PUSH1 0x1 PUSH1 0x1 PUSH1 0xA0 SHL SUB AND PUSH1 0x1 PUSH1 0x1 PUSH1 0xA0 SHL SUB AND DUP2 MSTORE PUSH1 0x20 ADD SWAP1 DUP2 MSTORE PUSH1 0x20 ADD PUSH1 0x0 KECCAK256 SLOAD EQ PUSH2 0x19D6 JUMPI PUSH1 0x40 MLOAD PUSH3 0x461BCD PUSH1 0xE5 SHL DUP2 MSTORE PUSH1 0x4 ADD PUSH2 0xAF5 SWAP1 PUSH2 0x3628 JUMP JUMPDEST PUSH1 0x0 DUP1 JUMPDEST DUP3 DUP2 LT ISZERO PUSH2 0x1A28 JUMPI DUP4 DUP4 DUP3 DUP2 DUP2 LT PUSH2 0x1A02 JUMPI PUSH4 0x4E487B71 PUSH1 0xE0 SHL PUSH1 0x0 MSTORE PUSH1 0x32 PUSH1 0x4 MSTORE PUSH1 0x24 PUSH1 0x0 REVERT JUMPDEST SWAP1 POP PUSH1 0x20 MUL ADD CALLDATALOAD DUP3 PUSH2 0x1A14 SWAP2 SWAP1 PUSH2 0x3B8A JUMP JUMPDEST SWAP2 POP DUP1 PUSH2 0x1A20 DUP2 PUSH2 0x3C53 JUMP JUMPDEST SWAP2 POP POP PUSH2 0x19DA JUMP JUMPDEST POP PUSH1 0x64 DUP2 GT ISZERO PUSH2 0x1A4A JUMPI PUSH1 0x40 MLOAD PUSH3 0x461BCD PUSH1 0xE5 SHL DUP2 MSTORE PUSH1 0x4 ADD PUSH2 0xAF5 SWAP1 PUSH2 0x342C JUMP JUMPDEST PUSH2 0x1A56 PUSH1 0x13 DUP5 DUP5 PUSH2 0x2B9A JUMP JUMPDEST POP PUSH2 0x1A63 PUSH1 0x12 DUP7 DUP7 PUSH2 0x2BD4 JUMP JUMPDEST POP POP POP POP POP POP JUMP JUMPDEST PUSH1 0x11 SLOAD PUSH1 0x0 SWAP1 DUP2 SWAP1 PUSH1 0xFF AND ISZERO ISZERO PUSH1 0x1 EQ ISZERO PUSH2 0x1ABF JUMPI PUSH1 0x0 DUP4 DUP2 MSTORE PUSH1 0x19 PUSH1 0x20 MSTORE PUSH1 0x40 DUP2 KECCAK256 SLOAD PUSH1 0xD SLOAD PUSH2 0x1A9C SWAP2 SWAP1 PUSH2 0x3BB6 JUMP JUMPDEST SWAP1 POP PUSH1 0xC SLOAD DUP2 LT ISZERO PUSH2 0x1AB9 JUMPI DUP1 PUSH1 0xC SLOAD PUSH2 0x1AB6 SWAP2 SWAP1 PUSH2 0x3BD5 JUMP JUMPDEST SWAP2 POP JUMPDEST POP PUSH2 0x1AFF JUMP JUMPDEST PUSH1 0x0 DUP4 DUP2 MSTORE PUSH1 0x17 PUSH1 0x20 MSTORE PUSH1 0x40 SWAP1 KECCAK256 SLOAD PUSH1 0xC SLOAD PUSH2 0x1AE4 SWAP1 PUSH8 0x2C68AF0BB140000 SWAP1 PUSH2 0x3BB6 JUMP JUMPDEST PUSH2 0x1AEE SWAP2 SWAP1 PUSH2 0x3BA2 JUMP JUMPDEST SWAP1 POP PUSH1 0xC SLOAD DUP2 GT ISZERO PUSH2 0x1AFF JUMPI POP PUSH1 0xC SLOAD JUMPDEST PUSH1 0xE SLOAD PUSH2 0x2710 SWAP1 PUSH2 0x1B10 DUP4 DUP4 PUSH2 0x3BD5 JUMP JUMPDEST PUSH2 0x1B1A SWAP2 SWAP1 PUSH2 0x3BD5 JUMP JUMPDEST PUSH1 0x0 DUP6 DUP2 MSTORE PUSH1 0x17 PUSH1 0x20 MSTORE PUSH1 0x40 SWAP1 KECCAK256 SLOAD PUSH2 0x1B33 SWAP2 SWAP1 PUSH2 0x3BB6 JUMP JUMPDEST PUSH2 0x1B3D SWAP2 SWAP1 PUSH2 0x3BA2 JUMP JUMPDEST SWAP4 SWAP3 POP POP POP JUMP JUMPDEST PUSH1 0x60 PUSH2 0x1B4F DUP3 PUSH2 0x218E JUMP JUMPDEST PUSH2 0x1B6B JUMPI PUSH1 0x40 MLOAD PUSH3 0x461BCD PUSH1 0xE5 SHL DUP2 MSTORE PUSH1 0x4 ADD PUSH2 0xAF5 SWAP1 PUSH2 0x3904 JUMP JUMPDEST PUSH1 0x0 PUSH2 0x1B75 PUSH2 0x2517 JUMP JUMPDEST SWAP1 POP PUSH1 0x0 DUP2 MLOAD GT PUSH2 0x1B95 JUMPI PUSH1 0x40 MLOAD DUP1 PUSH1 0x20 ADD PUSH1 0x40 MSTORE DUP1 PUSH1 0x0 DUP2 MSTORE POP PUSH2 0x1B3D JUMP JUMPDEST DUP1 PUSH2 0x1B9F DUP5 PUSH2 0x2526 JUMP JUMPDEST PUSH1 0x40 MLOAD PUSH1 0x20 ADD PUSH2 0x1BB0 SWAP3 SWAP2 SWAP1 PUSH2 0x3044 JUMP JUMPDEST PUSH1 0x40 MLOAD PUSH1 0x20 DUP2 DUP4 SUB SUB DUP2 MSTORE SWAP1 PUSH1 0x40 MSTORE SWAP2 POP POP SWAP2 SWAP1 POP JUMP JUMPDEST PUSH1 0xA DUP2 JUMP JUMPDEST PUSH1 0x1 PUSH1 0x1 PUSH1 0xA0 SHL SUB AND PUSH1 0x0 SWAP1 DUP2 MSTORE PUSH1 0x14 PUSH1 0x20 MSTORE PUSH1 0x40 SWAP1 KECCAK256 SLOAD PUSH32 0xC3804B311CB423D6A5C669B1A91EAA36C50F5D1A91F8AB0663A237F5DC412263 EQ SWAP1 JUMP JUMPDEST PUSH1 0x10 DUP1 SLOAD PUSH2 0x1C16 SWAP1 PUSH2 0x3C18 JUMP JUMPDEST DUP1 PUSH1 0x1F ADD PUSH1 0x20 DUP1 SWAP2 DIV MUL PUSH1 0x20 ADD PUSH1 0x40 MLOAD SWAP1 DUP2 ADD PUSH1 0x40 MSTORE DUP1 SWAP3 SWAP2 SWAP1 DUP2 DUP2 MSTORE PUSH1 0x20 ADD DUP3 DUP1 SLOAD PUSH2 0x1C42 SWAP1 PUSH2 0x3C18 JUMP JUMPDEST DUP1 ISZERO PUSH2 0x1C8F JUMPI DUP1 PUSH1 0x1F LT PUSH2 0x1C64 JUMPI PUSH2 0x100 DUP1 DUP4 SLOAD DIV MUL DUP4 MSTORE SWAP2 PUSH1 0x20 ADD SWAP2 PUSH2 0x1C8F JUMP JUMPDEST DUP3 ADD SWAP2 SWAP1 PUSH1 0x0 MSTORE PUSH1 0x20 PUSH1 0x0 KECCAK256 SWAP1 JUMPDEST DUP2 SLOAD DUP2 MSTORE SWAP1 PUSH1 0x1 ADD SWAP1 PUSH1 0x20 ADD DUP1 DUP4 GT PUSH2 0x1C72 JUMPI DUP3 SWAP1 SUB PUSH1 0x1F AND DUP3 ADD SWAP2 JUMPDEST POP POP POP POP POP DUP2 JUMP JUMPDEST PUSH1 0xB SLOAD DUP2 JUMP JUMPDEST PUSH1 0xF SLOAD PUSH1 0x40 MLOAD PUSH20 0x5C036BEE95B37532D7BC364F756EFA10667F1AA3 SWAP2 DUP1 ISZERO PUSH2 0x8FC MUL SWAP2 PUSH1 0x0 DUP2 DUP2 DUP2 DUP6 DUP9 DUP9 CALL SWAP4 POP POP POP POP ISZERO DUP1 ISZERO PUSH2 0x1CDF JUMPI RETURNDATASIZE PUSH1 0x0 DUP1 RETURNDATACOPY RETURNDATASIZE PUSH1 0x0 REVERT JUMPDEST POP PUSH1 0x0 PUSH1 0xF DUP2 SWAP1 SSTORE JUMPDEST PUSH1 0x12 SLOAD DUP2 LT ISZERO PUSH2 0x180F JUMPI PUSH1 0x0 PUSH1 0x64 PUSH1 0x13 DUP4 DUP2 SLOAD DUP2 LT PUSH2 0x1D17 JUMPI PUSH4 0x4E487B71 PUSH1 0xE0 SHL PUSH1 0x0 MSTORE PUSH1 0x32 PUSH1 0x4 MSTORE PUSH1 0x24 PUSH1 0x0 REVERT JUMPDEST SWAP1 PUSH1 0x0 MSTORE PUSH1 0x20 PUSH1 0x0 KECCAK256 ADD SLOAD DUP5 PUSH2 0x1D2D SWAP2 SWAP1 PUSH2 0x3BB6 JUMP JUMPDEST PUSH2 0x1D37 SWAP2 SWAP1 PUSH2 0x3BA2 JUMP JUMPDEST SWAP1 POP PUSH1 0x0 PUSH1 0x12 DUP4 DUP2 SLOAD DUP2 LT PUSH2 0x1D5C JUMPI PUSH4 0x4E487B71 PUSH1 0xE0 SHL PUSH1 0x0 MSTORE PUSH1 0x32 PUSH1 0x4 MSTORE PUSH1 0x24 PUSH1 0x0 REVERT JUMPDEST PUSH1 0x0 SWAP2 DUP3 MSTORE PUSH1 0x20 SWAP1 SWAP2 KECCAK256 ADD SLOAD PUSH1 0x40 MLOAD PUSH1 0x1 PUSH1 0x1 PUSH1 0xA0 SHL SUB SWAP1 SWAP2 AND SWAP1 DUP4 SWAP1 PUSH2 0x1D82 SWAP1 PUSH2 0x3073 JUMP JUMPDEST PUSH1 0x0 PUSH1 0x40 MLOAD DUP1 DUP4 SUB DUP2 DUP6 DUP8 GAS CALL SWAP3 POP POP POP RETURNDATASIZE DUP1 PUSH1 0x0 DUP2 EQ PUSH2 0x1DBF JUMPI PUSH1 0x40 MLOAD SWAP2 POP PUSH1 0x1F NOT PUSH1 0x3F RETURNDATASIZE ADD AND DUP3 ADD PUSH1 0x40 MSTORE RETURNDATASIZE DUP3 MSTORE RETURNDATASIZE PUSH1 0x0 PUSH1 0x20 DUP5 ADD RETURNDATACOPY PUSH2 0x1DC4 JUMP JUMPDEST PUSH1 0x60 SWAP2 POP JUMPDEST POP POP SWAP1 POP DUP1 PUSH2 0x1DE5 JUMPI PUSH1 0x40 MLOAD PUSH3 0x461BCD PUSH1 0xE5 SHL DUP2 MSTORE PUSH1 0x4 ADD PUSH2 0xAF5 SWAP1 PUSH2 0x312D JUMP JUMPDEST POP POP DUP1 DUP1 PUSH2 0x1DF2 SWAP1 PUSH2 0x3C53 JUMP JUMPDEST SWAP2 POP POP PUSH2 0x1CE8 JUMP JUMPDEST PUSH1 0x14 DUP2 JUMP JUMPDEST PUSH1 0x1 PUSH1 0x1 PUSH1 0xA0 SHL SUB SWAP2 DUP3 AND PUSH1 0x0 SWAP1 DUP2 MSTORE PUSH1 0x5 PUSH1 0x20 SWAP1 DUP2 MSTORE PUSH1 0x40 DUP1 DUP4 KECCAK256 SWAP4 SWAP1 SWAP5 AND DUP3 MSTORE SWAP2 SWAP1 SWAP2 MSTORE KECCAK256 SLOAD PUSH1 0xFF AND SWAP1 JUMP JUMPDEST PUSH2 0x1E35 PUSH2 0x21AB JUMP JUMPDEST PUSH1 0x1 PUSH1 0x1 PUSH1 0xA0 SHL SUB AND PUSH2 0x1E46 PUSH2 0x1712 JUMP JUMPDEST PUSH1 0x1 PUSH1 0x1 PUSH1 0xA0 SHL SUB AND EQ PUSH2 0x1E6C JUMPI PUSH1 0x40 MLOAD PUSH3 0x461BCD PUSH1 0xE5 SHL DUP2 MSTORE PUSH1 0x4 ADD PUSH2 0xAF5 SWAP1 PUSH2 0x38CF JUMP JUMPDEST PUSH1 0x11 DUP1 SLOAD PUSH3 0xFF0000 NOT DUP2 AND PUSH3 0x10000 SWAP2 DUP3 SWAP1 DIV PUSH1 0xFF AND ISZERO SWAP1 SWAP2 MUL OR SWAP1 SSTORE JUMP JUMPDEST PUSH1 0x12 DUP2 DUP2 SLOAD DUP2 LT PUSH2 0x1E9B JUMPI PUSH1 0x0 DUP1 REVERT JUMPDEST PUSH1 0x0 SWAP2 DUP3 MSTORE PUSH1 0x20 SWAP1 SWAP2 KECCAK256 ADD SLOAD PUSH1 0x1 PUSH1 0x1 PUSH1 0xA0 SHL SUB AND SWAP1 POP DUP2 JUMP JUMPDEST PUSH1 0xF DUP2 JUMP JUMPDEST PUSH1 0x15 PUSH1 0x20 MSTORE PUSH1 0x0 SWAP1 DUP2 MSTORE PUSH1 0x40 SWAP1 KECCAK256 SLOAD DUP2 JUMP JUMPDEST PUSH2 0x1ED4 PUSH2 0x21AB JUMP JUMPDEST PUSH1 0x1 PUSH1 0x1 PUSH1 0xA0 SHL SUB AND PUSH2 0x1EE5 PUSH2 0x1712 JUMP JUMPDEST PUSH1 0x1 PUSH1 0x1 PUSH1 0xA0 SHL SUB AND EQ PUSH2 0x1F0B JUMPI PUSH1 0x40 MLOAD PUSH3 0x461BCD PUSH1 0xE5 SHL DUP2 MSTORE PUSH1 0x4 ADD PUSH2 0xAF5 SWAP1 PUSH2 0x38CF JUMP JUMPDEST PUSH1 0x1 PUSH1 0x1 PUSH1 0xA0 SHL SUB DUP2 AND PUSH2 0x1F31 JUMPI PUSH1 0x40 MLOAD PUSH3 0x461BCD PUSH1 0xE5 SHL DUP2 MSTORE PUSH1 0x4 ADD PUSH2 0xAF5 SWAP1 PUSH2 0x336A JUMP JUMPDEST PUSH2 0x1F3A DUP2 PUSH2 0x23D5 JUMP JUMPDEST POP JUMP JUMPDEST PUSH1 0x11 SLOAD PUSH3 0x10000 SWAP1 DIV PUSH1 0xFF AND PUSH2 0x1F65 JUMPI PUSH1 0x40 MLOAD PUSH3 0x461BCD PUSH1 0xE5 SHL DUP2 MSTORE PUSH1 0x4 ADD PUSH2 0xAF5 SWAP1 PUSH2 0x3164 JUMP JUMPDEST PUSH1 0x16 PUSH1 0x0 PUSH2 0x1F71 PUSH2 0x21AB JUMP JUMPDEST PUSH1 0x1 PUSH1 0x1 PUSH1 0xA0 SHL SUB AND DUP2 MSTORE PUSH1 0x20 DUP2 ADD SWAP2 SWAP1 SWAP2 MSTORE PUSH1 0x40 ADD PUSH1 0x0 KECCAK256 SLOAD PUSH1 0xFF AND PUSH2 0x1FAA JUMPI PUSH1 0x40 MLOAD PUSH3 0x461BCD PUSH1 0xE5 SHL DUP2 MSTORE PUSH1 0x4 ADD PUSH2 0xAF5 SWAP1 PUSH2 0x351F JUMP JUMPDEST PUSH2 0x1FB6 PUSH1 0x14 PUSH1 0xA PUSH2 0x3B8A JUMP JUMPDEST PUSH2 0x1FBE PUSH2 0xC91 JUMP JUMPDEST LT PUSH2 0x1FDB JUMPI PUSH1 0x40 MLOAD PUSH3 0x461BCD PUSH1 0xE5 SHL DUP2 MSTORE PUSH1 0x4 ADD PUSH2 0xAF5 SWAP1 PUSH2 0x3A68 JUMP JUMPDEST PUSH2 0x1FE7 PUSH1 0x14 PUSH1 0xA PUSH2 0x3B8A JUMP JUMPDEST DUP2 PUSH2 0x1FF0 PUSH2 0xC91 JUMP JUMPDEST PUSH2 0x1FFA SWAP2 SWAP1 PUSH2 0x3B8A JUMP JUMPDEST GT ISZERO PUSH2 0x2018 JUMPI PUSH1 0x40 MLOAD PUSH3 0x461BCD PUSH1 0xE5 SHL DUP2 MSTORE PUSH1 0x4 ADD PUSH2 0xAF5 SWAP1 PUSH2 0x3759 JUMP JUMPDEST PUSH1 0xB DUP2 PUSH2 0x2026 PUSH2 0x6FB PUSH2 0x21AB JUMP JUMPDEST PUSH2 0x2030 SWAP2 SWAP1 PUSH2 0x3B8A JUMP JUMPDEST GT ISZERO PUSH2 0x204E JUMPI PUSH1 0x40 MLOAD PUSH3 0x461BCD PUSH1 0xE5 SHL DUP2 MSTORE PUSH1 0x4 ADD PUSH2 0xAF5 SWAP1 PUSH2 0x3322 JUMP JUMPDEST PUSH1 0x8 DUP2 GT ISZERO PUSH2 0x206F JUMPI PUSH1 0x40 MLOAD PUSH3 0x461BCD PUSH1 0xE5 SHL DUP2 MSTORE PUSH1 0x4 ADD PUSH2 0xAF5 SWAP1 PUSH2 0x31CA JUMP JUMPDEST PUSH2 0x2081 DUP2 PUSH8 0x16345785D8A0000 PUSH2 0x3BB6 JUMP JUMPDEST CALLVALUE EQ PUSH2 0x209F JUMPI PUSH1 0x40 MLOAD PUSH3 0x461BCD PUSH1 0xE5 SHL DUP2 MSTORE PUSH1 0x4 ADD PUSH2 0xAF5 SWAP1 PUSH2 0x381E JUMP JUMPDEST PUSH1 0x0 PUSH2 0x20A9 PUSH2 0xC91 JUMP JUMPDEST SWAP1 POP DUP1 JUMPDEST PUSH2 0x20B7 DUP4 DUP4 PUSH2 0x3B8A JUMP JUMPDEST DUP2 LT ISZERO PUSH2 0x20DB JUMPI PUSH2 0x20C9 PUSH2 0x17E5 PUSH2 0x21AB JUMP JUMPDEST DUP1 PUSH2 0x20D3 DUP2 PUSH2 0x3C53 JUMP JUMPDEST SWAP2 POP POP PUSH2 0x20AD JUMP JUMPDEST POP PUSH32 0xF5DF7D07FEF0D8AC7581015EBD1A3B7B7760DA84B12F0C8174AE0DCD639CB6A3 PUSH2 0x2105 PUSH2 0x21AB JUMP JUMPDEST DUP4 PUSH1 0x40 MLOAD PUSH2 0x1347 SWAP3 SWAP2 SWAP1 PUSH2 0x30C7 JUMP JUMPDEST PUSH1 0x1 PUSH1 0x1 PUSH1 0xA0 SHL SUB AND PUSH1 0x0 SWAP1 DUP2 MSTORE PUSH1 0x14 PUSH1 0x20 MSTORE PUSH1 0x40 SWAP1 KECCAK256 SLOAD PUSH1 0x0 DUP1 MLOAD PUSH1 0x20 PUSH2 0x3CDB DUP4 CODECOPY DUP2 MLOAD SWAP2 MSTORE EQ SWAP1 JUMP JUMPDEST PUSH1 0x1 PUSH1 0x1 PUSH1 0xA0 SHL SUB AND EXTCODESIZE ISZERO ISZERO SWAP1 JUMP JUMPDEST PUSH1 0x0 PUSH1 0x1 PUSH1 0x1 PUSH1 0xE0 SHL SUB NOT DUP3 AND PUSH4 0x80AC58CD PUSH1 0xE0 SHL EQ DUP1 PUSH2 0x217F JUMPI POP PUSH1 0x1 PUSH1 0x1 PUSH1 0xE0 SHL SUB NOT DUP3 AND PUSH4 0x5B5E139F PUSH1 0xE0 SHL EQ JUMPDEST DUP1 PUSH2 0xA25 JUMPI POP PUSH2 0xA25 DUP3 PUSH2 0x2641 JUMP JUMPDEST PUSH1 0x0 SWAP1 DUP2 MSTORE PUSH1 0x2 PUSH1 0x20 MSTORE PUSH1 0x40 SWAP1 KECCAK256 SLOAD PUSH1 0x1 PUSH1 0x1 PUSH1 0xA0 SHL SUB AND ISZERO ISZERO SWAP1 JUMP JUMPDEST CALLER SWAP1 JUMP JUMPDEST PUSH1 0x0 DUP2 DUP2 MSTORE PUSH1 0x4 PUSH1 0x20 MSTORE PUSH1 0x40 SWAP1 KECCAK256 DUP1 SLOAD PUSH1 0x1 PUSH1 0x1 PUSH1 0xA0 SHL SUB NOT AND PUSH1 0x1 PUSH1 0x1 PUSH1 0xA0 SHL SUB DUP5 AND SWAP1 DUP2 OR SWAP1 SWAP2 SSTORE DUP2 SWAP1 PUSH2 0x21E4 DUP3 PUSH2 0x1377 JUMP JUMPDEST PUSH1 0x1 PUSH1 0x1 PUSH1 0xA0 SHL SUB AND PUSH32 0x8C5BE1E5EBEC7D5BD14F71427D1E84F3DD0314C0F7B2291E5B200AC8C7C3B925 PUSH1 0x40 MLOAD PUSH1 0x40 MLOAD DUP1 SWAP2 SUB SWAP1 LOG4 POP POP JUMP JUMPDEST PUSH1 0x0 PUSH2 0x2228 DUP3 PUSH2 0x218E JUMP JUMPDEST PUSH2 0x2244 JUMPI PUSH1 0x40 MLOAD PUSH3 0x461BCD PUSH1 0xE5 SHL DUP2 MSTORE PUSH1 0x4 ADD PUSH2 0xAF5 SWAP1 PUSH2 0x35A5 JUMP JUMPDEST PUSH1 0x0 PUSH2 0x224F DUP4 PUSH2 0x1377 JUMP JUMPDEST SWAP1 POP DUP1 PUSH1 0x1 PUSH1 0x1 PUSH1 0xA0 SHL SUB AND DUP5 PUSH1 0x1 PUSH1 0x1 PUSH1 0xA0 SHL SUB AND EQ DUP1 PUSH2 0x2276 JUMPI POP PUSH2 0x2276 DUP2 DUP6 PUSH2 0x1DFF JUMP JUMPDEST DUP1 PUSH2 0x229A JUMPI POP DUP4 PUSH1 0x1 PUSH1 0x1 PUSH1 0xA0 SHL SUB AND PUSH2 0x228F DUP5 PUSH2 0xACE JUMP JUMPDEST PUSH1 0x1 PUSH1 0x1 PUSH1 0xA0 SHL SUB AND EQ JUMPDEST SWAP5 SWAP4 POP POP POP POP JUMP JUMPDEST DUP3 PUSH1 0x1 PUSH1 0x1 PUSH1 0xA0 SHL SUB AND PUSH2 0x22B5 DUP3 PUSH2 0x1377 JUMP JUMPDEST PUSH1 0x1 PUSH1 0x1 PUSH1 0xA0 SHL SUB AND EQ PUSH2 0x22DB JUMPI PUSH1 0x40 MLOAD PUSH3 0x461BCD PUSH1 0xE5 SHL DUP2 MSTORE PUSH1 0x4 ADD PUSH2 0xAF5 SWAP1 PUSH2 0x33B0 JUMP JUMPDEST PUSH1 0x1 PUSH1 0x1 PUSH1 0xA0 SHL SUB DUP3 AND PUSH2 0x2301 JUMPI PUSH1 0x40 MLOAD PUSH3 0x461BCD PUSH1 0xE5 SHL DUP2 MSTORE PUSH1 0x4 ADD PUSH2 0xAF5 SWAP1 PUSH2 0x346D JUMP JUMPDEST PUSH2 0x230C DUP4 DUP4 DUP4 PUSH2 0x265A JUMP JUMPDEST PUSH2 0x2317 PUSH1 0x0 DUP3 PUSH2 0x21AF JUMP JUMPDEST PUSH1 0x1 PUSH1 0x1 PUSH1 0xA0 SHL SUB DUP4 AND PUSH1 0x0 SWAP1 DUP2 MSTORE PUSH1 0x3 PUSH1 0x20 MSTORE PUSH1 0x40 DUP2 KECCAK256 DUP1 SLOAD PUSH1 0x1 SWAP3 SWAP1 PUSH2 0x2340 SWAP1 DUP5 SWAP1 PUSH2 0x3BD5 JUMP JUMPDEST SWAP1 SWAP2 SSTORE POP POP PUSH1 0x1 PUSH1 0x1 PUSH1 0xA0 SHL SUB DUP3 AND PUSH1 0x0 SWAP1 DUP2 MSTORE PUSH1 0x3 PUSH1 0x20 MSTORE PUSH1 0x40 DUP2 KECCAK256 DUP1 SLOAD PUSH1 0x1 SWAP3 SWAP1 PUSH2 0x236E SWAP1 DUP5 SWAP1 PUSH2 0x3B8A JUMP JUMPDEST SWAP1 SWAP2 SSTORE POP POP PUSH1 0x0 DUP2 DUP2 MSTORE PUSH1 0x2 PUSH1 0x20 MSTORE PUSH1 0x40 DUP1 DUP3 KECCAK256 DUP1 SLOAD PUSH1 0x1 PUSH1 0x1 PUSH1 0xA0 SHL SUB NOT AND PUSH1 0x1 PUSH1 0x1 PUSH1 0xA0 SHL SUB DUP7 DUP2 AND SWAP2 DUP3 OR SWAP1 SWAP3 SSTORE SWAP2 MLOAD DUP5 SWAP4 SWAP2 DUP8 AND SWAP2 PUSH32 0xDDF252AD1BE2C89B69C2B068FC378DAA952BA7F163C4A11628F55A4DF523B3EF SWAP2 LOG4 PUSH2 0xBAD DUP4 DUP4 DUP4 PUSH2 0xBAD JUMP JUMPDEST PUSH1 0xA DUP1 SLOAD PUSH1 0x1 PUSH1 0x1 PUSH1 0xA0 SHL SUB DUP4 DUP2 AND PUSH1 0x1 PUSH1 0x1 PUSH1 0xA0 SHL SUB NOT DUP4 AND DUP2 OR SWAP1 SWAP4 SSTORE PUSH1 0x40 MLOAD SWAP2 AND SWAP2 SWAP1 DUP3 SWAP1 PUSH32 0x8BE0079C531659141344CD1FD0A4F28419497F9722A3DAAFE3B4186F6B6457E0 SWAP1 PUSH1 0x0 SWAP1 LOG3 POP POP JUMP JUMPDEST PUSH2 0x180F DUP3 DUP3 PUSH1 0x40 MLOAD DUP1 PUSH1 0x20 ADD PUSH1 0x40 MSTORE DUP1 PUSH1 0x0 DUP2 MSTORE POP PUSH2 0x26E3 JUMP JUMPDEST DUP2 PUSH1 0x1 PUSH1 0x1 PUSH1 0xA0 SHL SUB AND DUP4 PUSH1 0x1 PUSH1 0x1 PUSH1 0xA0 SHL SUB AND EQ ISZERO PUSH2 0x2473 JUMPI PUSH1 0x40 MLOAD PUSH3 0x461BCD PUSH1 0xE5 SHL DUP2 MSTORE PUSH1 0x4 ADD PUSH2 0xAF5 SWAP1 PUSH2 0x34B1 JUMP JUMPDEST PUSH1 0x1 PUSH1 0x1 PUSH1 0xA0 SHL SUB DUP4 DUP2 AND PUSH1 0x0 DUP2 DUP2 MSTORE PUSH1 0x5 PUSH1 0x20 SWAP1 DUP2 MSTORE PUSH1 0x40 DUP1 DUP4 KECCAK256 SWAP5 DUP8 AND DUP1 DUP5 MSTORE SWAP5 SWAP1 SWAP2 MSTORE SWAP1 DUP2 SWAP1 KECCAK256 DUP1 SLOAD PUSH1 0xFF NOT AND DUP6 ISZERO ISZERO OR SWAP1 SSTORE MLOAD PUSH32 0x17307EAB39AB6107E8899845AD3D59BD9653F200F220920489CA2B5937696C31 SWAP1 PUSH2 0x24D7 SWAP1 DUP6 SWAP1 PUSH2 0x30E0 JUMP JUMPDEST PUSH1 0x40 MLOAD DUP1 SWAP2 SUB SWAP1 LOG3 POP POP POP JUMP JUMPDEST PUSH2 0x24EF DUP5 DUP5 DUP5 PUSH2 0x22A2 JUMP JUMPDEST PUSH2 0x24FB DUP5 DUP5 DUP5 DUP5 PUSH2 0x2716 JUMP JUMPDEST PUSH2 0x1977 JUMPI PUSH1 0x40 MLOAD PUSH3 0x461BCD PUSH1 0xE5 SHL DUP2 MSTORE PUSH1 0x4 ADD PUSH2 0xAF5 SWAP1 PUSH2 0x32D0 JUMP JUMPDEST PUSH1 0x60 PUSH1 0x10 DUP1 SLOAD PUSH2 0xA4B SWAP1 PUSH2 0x3C18 JUMP JUMPDEST PUSH1 0x60 DUP2 PUSH2 0x254B JUMPI POP PUSH1 0x40 DUP1 MLOAD DUP1 DUP3 ADD SWAP1 SWAP2 MSTORE PUSH1 0x1 DUP2 MSTORE PUSH1 0x3 PUSH1 0xFC SHL PUSH1 0x20 DUP3 ADD MSTORE PUSH2 0xA28 JUMP JUMPDEST DUP2 PUSH1 0x0 JUMPDEST DUP2 ISZERO PUSH2 0x2575 JUMPI DUP1 PUSH2 0x255F DUP2 PUSH2 0x3C53 JUMP JUMPDEST SWAP2 POP PUSH2 0x256E SWAP1 POP PUSH1 0xA DUP4 PUSH2 0x3BA2 JUMP JUMPDEST SWAP2 POP PUSH2 0x254F JUMP JUMPDEST PUSH1 0x0 DUP2 PUSH8 0xFFFFFFFFFFFFFFFF DUP2 GT ISZERO PUSH2 0x259E JUMPI PUSH4 0x4E487B71 PUSH1 0xE0 SHL PUSH1 0x0 MSTORE PUSH1 0x41 PUSH1 0x4 MSTORE PUSH1 0x24 PUSH1 0x0 REVERT JUMPDEST PUSH1 0x40 MLOAD SWAP1 DUP1 DUP3 MSTORE DUP1 PUSH1 0x1F ADD PUSH1 0x1F NOT AND PUSH1 0x20 ADD DUP3 ADD PUSH1 0x40 MSTORE DUP1 ISZERO PUSH2 0x25C8 JUMPI PUSH1 0x20 DUP3 ADD DUP2 DUP1 CALLDATASIZE DUP4 CALLDATACOPY ADD SWAP1 POP JUMPDEST POP SWAP1 POP JUMPDEST DUP5 ISZERO PUSH2 0x229A JUMPI PUSH2 0x25DD PUSH1 0x1 DUP4 PUSH2 0x3BD5 JUMP JUMPDEST SWAP2 POP PUSH2 0x25EA PUSH1 0xA DUP7 PUSH2 0x3C6E JUMP JUMPDEST PUSH2 0x25F5 SWAP1 PUSH1 0x30 PUSH2 0x3B8A JUMP JUMPDEST PUSH1 0xF8 SHL DUP2 DUP4 DUP2 MLOAD DUP2 LT PUSH2 0x2618 JUMPI PUSH4 0x4E487B71 PUSH1 0xE0 SHL PUSH1 0x0 MSTORE PUSH1 0x32 PUSH1 0x4 MSTORE PUSH1 0x24 PUSH1 0x0 REVERT JUMPDEST PUSH1 0x20 ADD ADD SWAP1 PUSH1 0x1 PUSH1 0x1 PUSH1 0xF8 SHL SUB NOT AND SWAP1 DUP2 PUSH1 0x0 BYTE SWAP1 MSTORE8 POP PUSH2 0x263A PUSH1 0xA DUP7 PUSH2 0x3BA2 JUMP JUMPDEST SWAP5 POP PUSH2 0x25CC JUMP JUMPDEST PUSH1 0x1 PUSH1 0x1 PUSH1 0xE0 SHL SUB NOT DUP2 AND PUSH4 0x1FFC9A7 PUSH1 0xE0 SHL EQ SWAP2 SWAP1 POP JUMP JUMPDEST PUSH2 0x2665 DUP4 DUP4 DUP4 PUSH2 0xBAD JUMP JUMPDEST PUSH1 0x1 PUSH1 0x1 PUSH1 0xA0 SHL SUB DUP4 AND PUSH2 0x2681 JUMPI PUSH2 0x267C DUP2 PUSH2 0x2831 JUMP JUMPDEST PUSH2 0x26A4 JUMP JUMPDEST DUP2 PUSH1 0x1 PUSH1 0x1 PUSH1 0xA0 SHL SUB AND DUP4 PUSH1 0x1 PUSH1 0x1 PUSH1 0xA0 SHL SUB AND EQ PUSH2 0x26A4 JUMPI PUSH2 0x26A4 DUP4 DUP3 PUSH2 0x2875 JUMP JUMPDEST PUSH1 0x1 PUSH1 0x1 PUSH1 0xA0 SHL SUB DUP3 AND PUSH2 0x26C0 JUMPI PUSH2 0x26BB DUP2 PUSH2 0x2912 JUMP JUMPDEST PUSH2 0xBAD JUMP JUMPDEST DUP3 PUSH1 0x1 PUSH1 0x1 PUSH1 0xA0 SHL SUB AND DUP3 PUSH1 0x1 PUSH1 0x1 PUSH1 0xA0 SHL SUB AND EQ PUSH2 0xBAD JUMPI PUSH2 0xBAD DUP3 DUP3 PUSH2 0x29EB JUMP JUMPDEST PUSH2 0x26ED DUP4 DUP4 PUSH2 0x2A2F JUMP JUMPDEST PUSH2 0x26FA PUSH1 0x0 DUP5 DUP5 DUP5 PUSH2 0x2716 JUMP JUMPDEST PUSH2 0xBAD JUMPI PUSH1 0x40 MLOAD PUSH3 0x461BCD PUSH1 0xE5 SHL DUP2 MSTORE PUSH1 0x4 ADD PUSH2 0xAF5 SWAP1 PUSH2 0x32D0 JUMP JUMPDEST PUSH1 0x0 PUSH2 0x272A DUP5 PUSH1 0x1 PUSH1 0x1 PUSH1 0xA0 SHL SUB AND PUSH2 0x213F JUMP JUMPDEST ISZERO PUSH2 0x2826 JUMPI DUP4 PUSH1 0x1 PUSH1 0x1 PUSH1 0xA0 SHL SUB AND PUSH4 0x150B7A02 PUSH2 0x2746 PUSH2 0x21AB JUMP JUMPDEST DUP8 DUP7 DUP7 PUSH1 0x40 MLOAD DUP6 PUSH4 0xFFFFFFFF AND PUSH1 0xE0 SHL DUP2 MSTORE PUSH1 0x4 ADD PUSH2 0x2768 SWAP5 SWAP4 SWAP3 SWAP2 SWAP1 PUSH2 0x308A JUMP JUMPDEST PUSH1 0x20 PUSH1 0x40 MLOAD DUP1 DUP4 SUB DUP2 PUSH1 0x0 DUP8 DUP1 EXTCODESIZE ISZERO DUP1 ISZERO PUSH2 0x2782 JUMPI PUSH1 0x0 DUP1 REVERT JUMPDEST POP GAS CALL SWAP3 POP POP POP DUP1 ISZERO PUSH2 0x27B2 JUMPI POP PUSH1 0x40 DUP1 MLOAD PUSH1 0x1F RETURNDATASIZE SWAP1 DUP2 ADD PUSH1 0x1F NOT AND DUP3 ADD SWAP1 SWAP3 MSTORE PUSH2 0x27AF SWAP2 DUP2 ADD SWAP1 PUSH2 0x2F1F JUMP JUMPDEST PUSH1 0x1 JUMPDEST PUSH2 0x280C JUMPI RETURNDATASIZE DUP1 DUP1 ISZERO PUSH2 0x27E0 JUMPI PUSH1 0x40 MLOAD SWAP2 POP PUSH1 0x1F NOT PUSH1 0x3F RETURNDATASIZE ADD AND DUP3 ADD PUSH1 0x40 MSTORE RETURNDATASIZE DUP3 MSTORE RETURNDATASIZE PUSH1 0x0 PUSH1 0x20 DUP5 ADD RETURNDATACOPY PUSH2 0x27E5 JUMP JUMPDEST PUSH1 0x60 SWAP2 POP JUMPDEST POP DUP1 MLOAD PUSH2 0x2804 JUMPI PUSH1 0x40 MLOAD PUSH3 0x461BCD PUSH1 0xE5 SHL DUP2 MSTORE PUSH1 0x4 ADD PUSH2 0xAF5 SWAP1 PUSH2 0x32D0 JUMP JUMPDEST DUP1 MLOAD DUP2 PUSH1 0x20 ADD REVERT JUMPDEST PUSH1 0x1 PUSH1 0x1 PUSH1 0xE0 SHL SUB NOT AND PUSH4 0xA85BD01 PUSH1 0xE1 SHL EQ SWAP1 POP PUSH2 0x229A JUMP JUMPDEST POP PUSH1 0x1 SWAP5 SWAP4 POP POP POP POP JUMP JUMPDEST PUSH1 0x8 DUP1 SLOAD PUSH1 0x0 DUP4 DUP2 MSTORE PUSH1 0x9 PUSH1 0x20 MSTORE PUSH1 0x40 DUP2 KECCAK256 DUP3 SWAP1 SSTORE PUSH1 0x1 DUP3 ADD DUP4 SSTORE SWAP2 SWAP1 SWAP2 MSTORE PUSH32 0xF3F7A9FE364FAAB93B216DA50A3214154F22A0A2B415B23A84C8169E8B636EE3 ADD SSTORE JUMP JUMPDEST PUSH1 0x0 PUSH1 0x1 PUSH2 0x2882 DUP5 PUSH2 0x14A9 JUMP JUMPDEST PUSH2 0x288C SWAP2 SWAP1 PUSH2 0x3BD5 JUMP JUMPDEST PUSH1 0x0 DUP4 DUP2 MSTORE PUSH1 0x7 PUSH1 0x20 MSTORE PUSH1 0x40 SWAP1 KECCAK256 SLOAD SWAP1 SWAP2 POP DUP1 DUP3 EQ PUSH2 0x28DF JUMPI PUSH1 0x1 PUSH1 0x1 PUSH1 0xA0 SHL SUB DUP5 AND PUSH1 0x0 SWAP1 DUP2 MSTORE PUSH1 0x6 PUSH1 0x20 SWAP1 DUP2 MSTORE PUSH1 0x40 DUP1 DUP4 KECCAK256 DUP6 DUP5 MSTORE DUP3 MSTORE DUP1 DUP4 KECCAK256 SLOAD DUP5 DUP5 MSTORE DUP2 DUP5 KECCAK256 DUP2 SWAP1 SSTORE DUP4 MSTORE PUSH1 0x7 SWAP1 SWAP2 MSTORE SWAP1 KECCAK256 DUP2 SWAP1 SSTORE JUMPDEST POP PUSH1 0x0 SWAP2 DUP3 MSTORE PUSH1 0x7 PUSH1 0x20 SWAP1 DUP2 MSTORE PUSH1 0x40 DUP1 DUP5 KECCAK256 DUP5 SWAP1 SSTORE PUSH1 0x1 PUSH1 0x1 PUSH1 0xA0 SHL SUB SWAP1 SWAP5 AND DUP4 MSTORE PUSH1 0x6 DUP2 MSTORE DUP4 DUP4 KECCAK256 SWAP2 DUP4 MSTORE MSTORE SWAP1 DUP2 KECCAK256 SSTORE JUMP JUMPDEST PUSH1 0x8 SLOAD PUSH1 0x0 SWAP1 PUSH2 0x2924 SWAP1 PUSH1 0x1 SWAP1 PUSH2 0x3BD5 JUMP JUMPDEST PUSH1 0x0 DUP4 DUP2 MSTORE PUSH1 0x9 PUSH1 0x20 MSTORE PUSH1 0x40 DUP2 KECCAK256 SLOAD PUSH1 0x8 DUP1 SLOAD SWAP4 SWAP5 POP SWAP1 SWAP3 DUP5 SWAP1 DUP2 LT PUSH2 0x295A JUMPI PUSH4 0x4E487B71 PUSH1 0xE0 SHL PUSH1 0x0 MSTORE PUSH1 0x32 PUSH1 0x4 MSTORE PUSH1 0x24 PUSH1 0x0 REVERT JUMPDEST SWAP1 PUSH1 0x0 MSTORE PUSH1 0x20 PUSH1 0x0 KECCAK256 ADD SLOAD SWAP1 POP DUP1 PUSH1 0x8 DUP4 DUP2 SLOAD DUP2 LT PUSH2 0x2989 JUMPI PUSH4 0x4E487B71 PUSH1 0xE0 SHL PUSH1 0x0 MSTORE PUSH1 0x32 PUSH1 0x4 MSTORE PUSH1 0x24 PUSH1 0x0 REVERT JUMPDEST PUSH1 0x0 SWAP2 DUP3 MSTORE PUSH1 0x20 DUP1 DUP4 KECCAK256 SWAP1 SWAP2 ADD SWAP3 SWAP1 SWAP3 SSTORE DUP3 DUP2 MSTORE PUSH1 0x9 SWAP1 SWAP2 MSTORE PUSH1 0x40 DUP1 DUP3 KECCAK256 DUP5 SWAP1 SSTORE DUP6 DUP3 MSTORE DUP2 KECCAK256 SSTORE PUSH1 0x8 DUP1 SLOAD DUP1 PUSH2 0x29CF JUMPI PUSH4 0x4E487B71 PUSH1 0xE0 SHL PUSH1 0x0 MSTORE PUSH1 0x31 PUSH1 0x4 MSTORE PUSH1 0x24 PUSH1 0x0 REVERT JUMPDEST PUSH1 0x1 SWAP1 SUB DUP2 DUP2 SWAP1 PUSH1 0x0 MSTORE PUSH1 0x20 PUSH1 0x0 KECCAK256 ADD PUSH1 0x0 SWAP1 SSTORE SWAP1 SSTORE POP POP POP POP JUMP JUMPDEST PUSH1 0x0 PUSH2 0x29F6 DUP4 PUSH2 0x14A9 JUMP JUMPDEST PUSH1 0x1 PUSH1 0x1 PUSH1 0xA0 SHL SUB SWAP1 SWAP4 AND PUSH1 0x0 SWAP1 DUP2 MSTORE PUSH1 0x6 PUSH1 0x20 SWAP1 DUP2 MSTORE PUSH1 0x40 DUP1 DUP4 KECCAK256 DUP7 DUP5 MSTORE DUP3 MSTORE DUP1 DUP4 KECCAK256 DUP6 SWAP1 SSTORE SWAP4 DUP3 MSTORE PUSH1 0x7 SWAP1 MSTORE SWAP2 SWAP1 SWAP2 KECCAK256 SWAP2 SWAP1 SWAP2 SSTORE POP JUMP JUMPDEST PUSH1 0x1 PUSH1 0x1 PUSH1 0xA0 SHL SUB DUP3 AND PUSH2 0x2A55 JUMPI PUSH1 0x40 MLOAD PUSH3 0x461BCD PUSH1 0xE5 SHL DUP2 MSTORE PUSH1 0x4 ADD PUSH2 0xAF5 SWAP1 PUSH2 0x37E9 JUMP JUMPDEST PUSH2 0x2A5E DUP2 PUSH2 0x218E JUMP JUMPDEST ISZERO PUSH2 0x2A7B JUMPI PUSH1 0x40 MLOAD PUSH3 0x461BCD PUSH1 0xE5 SHL DUP2 MSTORE PUSH1 0x4 ADD PUSH2 0xAF5 SWAP1 PUSH2 0x33F5 JUMP JUMPDEST PUSH2 0x2A87 PUSH1 0x0 DUP4 DUP4 PUSH2 0x265A JUMP JUMPDEST PUSH1 0x1 PUSH1 0x1 PUSH1 0xA0 SHL SUB DUP3 AND PUSH1 0x0 SWAP1 DUP2 MSTORE PUSH1 0x3 PUSH1 0x20 MSTORE PUSH1 0x40 DUP2 KECCAK256 DUP1 SLOAD PUSH1 0x1 SWAP3 SWAP1 PUSH2 0x2AB0 SWAP1 DUP5 SWAP1 PUSH2 0x3B8A JUMP JUMPDEST SWAP1 SWAP2 SSTORE POP POP PUSH1 0x0 DUP2 DUP2 MSTORE PUSH1 0x2 PUSH1 0x20 MSTORE PUSH1 0x40 DUP1 DUP3 KECCAK256 DUP1 SLOAD PUSH1 0x1 PUSH1 0x1 PUSH1 0xA0 SHL SUB NOT AND PUSH1 0x1 PUSH1 0x1 PUSH1 0xA0 SHL SUB DUP7 AND SWAP1 DUP2 OR SWAP1 SWAP2 SSTORE SWAP1 MLOAD DUP4 SWAP3 SWAP1 PUSH32 0xDDF252AD1BE2C89B69C2B068FC378DAA952BA7F163C4A11628F55A4DF523B3EF SWAP1 DUP3 SWAP1 LOG4 PUSH2 0x180F PUSH1 0x0 DUP4 DUP4 PUSH2 0xBAD JUMP JUMPDEST DUP3 DUP1 SLOAD PUSH2 0x2B22 SWAP1 PUSH2 0x3C18 JUMP JUMPDEST SWAP1 PUSH1 0x0 MSTORE PUSH1 0x20 PUSH1 0x0 KECCAK256 SWAP1 PUSH1 0x1F ADD PUSH1 0x20 SWAP1 DIV DUP2 ADD SWAP3 DUP3 PUSH2 0x2B44 JUMPI PUSH1 0x0 DUP6 SSTORE PUSH2 0x2B8A JUMP JUMPDEST DUP3 PUSH1 0x1F LT PUSH2 0x2B5D JUMPI DUP3 DUP1 ADD PUSH1 0xFF NOT DUP3 CALLDATALOAD AND OR DUP6 SSTORE PUSH2 0x2B8A JUMP JUMPDEST DUP3 DUP1 ADD PUSH1 0x1 ADD DUP6 SSTORE DUP3 ISZERO PUSH2 0x2B8A JUMPI SWAP2 DUP3 ADD JUMPDEST DUP3 DUP2 GT ISZERO PUSH2 0x2B8A JUMPI DUP3 CALLDATALOAD DUP3 SSTORE SWAP2 PUSH1 0x20 ADD SWAP2 SWAP1 PUSH1 0x1 ADD SWAP1 PUSH2 0x2B6F JUMP JUMPDEST POP PUSH2 0x2B96 SWAP3 SWAP2 POP PUSH2 0x2C27 JUMP JUMPDEST POP SWAP1 JUMP JUMPDEST DUP3 DUP1 SLOAD DUP3 DUP3 SSTORE SWAP1 PUSH1 0x0 MSTORE PUSH1 0x20 PUSH1 0x0 KECCAK256 SWAP1 DUP2 ADD SWAP3 DUP3 ISZERO PUSH2 0x2B8A JUMPI SWAP2 PUSH1 0x20 MUL DUP3 ADD DUP3 DUP2 GT ISZERO PUSH2 0x2B8A JUMPI DUP3 CALLDATALOAD DUP3 SSTORE SWAP2 PUSH1 0x20 ADD SWAP2 SWAP1 PUSH1 0x1 ADD SWAP1 PUSH2 0x2B6F JUMP JUMPDEST DUP3 DUP1 SLOAD DUP3 DUP3 SSTORE SWAP1 PUSH1 0x0 MSTORE PUSH1 0x20 PUSH1 0x0 KECCAK256 SWAP1 DUP2 ADD SWAP3 DUP3 ISZERO PUSH2 0x2B8A JUMPI SWAP2 PUSH1 0x20 MUL DUP3 ADD JUMPDEST DUP3 DUP2 GT ISZERO PUSH2 0x2B8A JUMPI DUP2 SLOAD PUSH1 0x1 PUSH1 0x1 PUSH1 0xA0 SHL SUB NOT AND PUSH1 0x1 PUSH1 0x1 PUSH1 0xA0 SHL SUB DUP5 CALLDATALOAD AND OR DUP3 SSTORE PUSH1 0x20 SWAP1 SWAP3 ADD SWAP2 PUSH1 0x1 SWAP1 SWAP2 ADD SWAP1 PUSH2 0x2BF4 JUMP JUMPDEST JUMPDEST DUP1 DUP3 GT ISZERO PUSH2 0x2B96 JUMPI PUSH1 0x0 DUP2 SSTORE PUSH1 0x1 ADD PUSH2 0x2C28 JUMP JUMPDEST DUP1 CALLDATALOAD PUSH1 0x1 PUSH1 0x1 PUSH1 0xA0 SHL SUB DUP2 AND DUP2 EQ PUSH2 0xA28 JUMPI PUSH1 0x0 DUP1 REVERT JUMPDEST PUSH1 0x0 DUP1 DUP4 PUSH1 0x1F DUP5 ADD SLT PUSH2 0x2C64 JUMPI DUP1 DUP2 REVERT JUMPDEST POP DUP2 CALLDATALOAD PUSH8 0xFFFFFFFFFFFFFFFF DUP2 GT ISZERO PUSH2 0x2C7B JUMPI DUP2 DUP3 REVERT JUMPDEST PUSH1 0x20 DUP4 ADD SWAP2 POP DUP4 PUSH1 0x20 DUP1 DUP4 MUL DUP6 ADD ADD GT ISZERO PUSH2 0x2C95 JUMPI PUSH1 0x0 DUP1 REVERT JUMPDEST SWAP3 POP SWAP3 SWAP1 POP JUMP JUMPDEST DUP1 CALLDATALOAD DUP1 ISZERO ISZERO DUP2 EQ PUSH2 0xA28 JUMPI PUSH1 0x0 DUP1 REVERT JUMPDEST PUSH1 0x0 PUSH1 0x20 DUP3 DUP5 SUB SLT ISZERO PUSH2 0x2CBD JUMPI DUP1 DUP2 REVERT JUMPDEST PUSH2 0x1B3D DUP3 PUSH2 0x2C3C JUMP JUMPDEST PUSH1 0x0 DUP1 PUSH1 0x40 DUP4 DUP6 SUB SLT ISZERO PUSH2 0x2CD8 JUMPI DUP1 DUP2 REVERT JUMPDEST PUSH2 0x2CE1 DUP4 PUSH2 0x2C3C JUMP JUMPDEST SWAP2 POP PUSH2 0x2CEF PUSH1 0x20 DUP5 ADD PUSH2 0x2C3C JUMP JUMPDEST SWAP1 POP SWAP3 POP SWAP3 SWAP1 POP JUMP JUMPDEST PUSH1 0x0 DUP1 PUSH1 0x0 PUSH1 0x60 DUP5 DUP7 SUB SLT ISZERO PUSH2 0x2D0C JUMPI DUP1 DUP2 REVERT JUMPDEST PUSH2 0x2D15 DUP5 PUSH2 0x2C3C JUMP JUMPDEST SWAP3 POP PUSH2 0x2D23 PUSH1 0x20 DUP6 ADD PUSH2 0x2C3C JUMP JUMPDEST SWAP2 POP PUSH1 0x40 DUP5 ADD CALLDATALOAD SWAP1 POP SWAP3 POP SWAP3 POP SWAP3 JUMP JUMPDEST PUSH1 0x0 DUP1 PUSH1 0x0 DUP1 PUSH1 0x80 DUP6 DUP8 SUB SLT ISZERO PUSH2 0x2D48 JUMPI DUP1 DUP2 REVERT JUMPDEST PUSH2 0x2D51 DUP6 PUSH2 0x2C3C JUMP JUMPDEST SWAP4 POP PUSH2 0x2D5F PUSH1 0x20 DUP7 ADD PUSH2 0x2C3C JUMP JUMPDEST SWAP3 POP PUSH1 0x40 DUP6 ADD CALLDATALOAD SWAP2 POP PUSH1 0x60 DUP6 ADD CALLDATALOAD PUSH8 0xFFFFFFFFFFFFFFFF DUP1 DUP3 GT ISZERO PUSH2 0x2D82 JUMPI DUP3 DUP4 REVERT JUMPDEST DUP2 DUP8 ADD SWAP2 POP DUP8 PUSH1 0x1F DUP4 ADD SLT PUSH2 0x2D95 JUMPI DUP3 DUP4 REVERT JUMPDEST DUP2 CALLDATALOAD DUP2 DUP2 GT ISZERO PUSH2 0x2DA7 JUMPI PUSH2 0x2DA7 PUSH2 0x3CAE JUMP JUMPDEST PUSH1 0x40 MLOAD PUSH1 0x1F DUP3 ADD PUSH1 0x1F NOT SWAP1 DUP2 AND PUSH1 0x3F ADD AND DUP2 ADD SWAP1 DUP4 DUP3 GT DUP2 DUP4 LT OR ISZERO PUSH2 0x2DCF JUMPI PUSH2 0x2DCF PUSH2 0x3CAE JUMP JUMPDEST DUP2 PUSH1 0x40 MSTORE DUP3 DUP2 MSTORE DUP11 PUSH1 0x20 DUP5 DUP8 ADD ADD GT ISZERO PUSH2 0x2DE7 JUMPI DUP6 DUP7 REVERT JUMPDEST DUP3 PUSH1 0x20 DUP7 ADD PUSH1 0x20 DUP4 ADD CALLDATACOPY SWAP2 DUP3 ADD PUSH1 0x20 ADD SWAP5 SWAP1 SWAP5 MSTORE SWAP6 SWAP9 SWAP5 SWAP8 POP SWAP3 SWAP6 POP POP POP POP JUMP JUMPDEST PUSH1 0x0 DUP1 PUSH1 0x40 DUP4 DUP6 SUB SLT ISZERO PUSH2 0x2E1A JUMPI DUP2 DUP3 REVERT JUMPDEST PUSH2 0x2E23 DUP4 PUSH2 0x2C3C JUMP JUMPDEST SWAP2 POP PUSH2 0x2CEF PUSH1 0x20 DUP5 ADD PUSH2 0x2C9C JUMP JUMPDEST PUSH1 0x0 DUP1 PUSH1 0x40 DUP4 DUP6 SUB SLT ISZERO PUSH2 0x2E43 JUMPI DUP2 DUP3 REVERT JUMPDEST PUSH2 0x2E4C DUP4 PUSH2 0x2C3C JUMP JUMPDEST SWAP5 PUSH1 0x20 SWAP4 SWAP1 SWAP4 ADD CALLDATALOAD SWAP4 POP POP POP JUMP JUMPDEST PUSH1 0x0 DUP1 PUSH1 0x20 DUP4 DUP6 SUB SLT ISZERO PUSH2 0x2E6C JUMPI DUP2 DUP3 REVERT JUMPDEST DUP3 CALLDATALOAD PUSH8 0xFFFFFFFFFFFFFFFF DUP2 GT ISZERO PUSH2 0x2E82 JUMPI DUP3 DUP4 REVERT JUMPDEST PUSH2 0x2E8E DUP6 DUP3 DUP7 ADD PUSH2 0x2C53 JUMP JUMPDEST SWAP1 SWAP7 SWAP1 SWAP6 POP SWAP4 POP POP POP POP JUMP JUMPDEST PUSH1 0x0 DUP1 PUSH1 0x0 DUP1 PUSH1 0x40 DUP6 DUP8 SUB SLT ISZERO PUSH2 0x2EAF JUMPI DUP4 DUP5 REVERT JUMPDEST DUP5 CALLDATALOAD PUSH8 0xFFFFFFFFFFFFFFFF DUP1 DUP3 GT ISZERO PUSH2 0x2EC6 JUMPI DUP6 DUP7 REVERT JUMPDEST PUSH2 0x2ED2 DUP9 DUP4 DUP10 ADD PUSH2 0x2C53 JUMP JUMPDEST SWAP1 SWAP7 POP SWAP5 POP PUSH1 0x20 DUP8 ADD CALLDATALOAD SWAP2 POP DUP1 DUP3 GT ISZERO PUSH2 0x2EEA JUMPI DUP4 DUP5 REVERT JUMPDEST POP PUSH2 0x2EF7 DUP8 DUP3 DUP9 ADD PUSH2 0x2C53 JUMP JUMPDEST SWAP6 SWAP9 SWAP5 SWAP8 POP SWAP6 POP POP POP POP JUMP JUMPDEST PUSH1 0x0 PUSH1 0x20 DUP3 DUP5 SUB SLT ISZERO PUSH2 0x2F14 JUMPI DUP1 DUP2 REVERT JUMPDEST DUP2 CALLDATALOAD PUSH2 0x1B3D DUP2 PUSH2 0x3CC4 JUMP JUMPDEST PUSH1 0x0 PUSH1 0x20 DUP3 DUP5 SUB SLT ISZERO PUSH2 0x2F30 JUMPI DUP1 DUP2 REVERT JUMPDEST DUP2 MLOAD PUSH2 0x1B3D DUP2 PUSH2 0x3CC4 JUMP JUMPDEST PUSH1 0x0 DUP1 PUSH1 0x20 DUP4 DUP6 SUB SLT ISZERO PUSH2 0x2F4D JUMPI DUP2 DUP3 REVERT JUMPDEST DUP3 CALLDATALOAD PUSH8 0xFFFFFFFFFFFFFFFF DUP1 DUP3 GT ISZERO PUSH2 0x2F64 JUMPI DUP4 DUP5 REVERT JUMPDEST DUP2 DUP6 ADD SWAP2 POP DUP6 PUSH1 0x1F DUP4 ADD SLT PUSH2 0x2F77 JUMPI DUP4 DUP5 REVERT JUMPDEST DUP2 CALLDATALOAD DUP2 DUP2 GT ISZERO PUSH2 0x2F85 JUMPI DUP5 DUP6 REVERT JUMPDEST DUP7 PUSH1 0x20 DUP3 DUP6 ADD ADD GT ISZERO PUSH2 0x2F96 JUMPI DUP5 DUP6 REVERT JUMPDEST PUSH1 0x20 SWAP3 SWAP1 SWAP3 ADD SWAP7 SWAP2 SWAP6 POP SWAP1 SWAP4 POP POP POP POP JUMP JUMPDEST PUSH1 0x0 PUSH1 0x20 DUP3 DUP5 SUB SLT ISZERO PUSH2 0x2FB9 JUMPI DUP1 DUP2 REVERT JUMPDEST POP CALLDATALOAD SWAP2 SWAP1 POP JUMP JUMPDEST PUSH1 0x0 DUP1 PUSH1 0x0 PUSH1 0x60 DUP5 DUP7 SUB SLT ISZERO PUSH2 0x2FD4 JUMPI DUP3 DUP4 REVERT JUMPDEST DUP4 CALLDATALOAD SWAP3 POP PUSH2 0x2D23 PUSH1 0x20 DUP6 ADD PUSH2 0x2C9C JUMP JUMPDEST PUSH1 0x0 DUP1 PUSH1 0x0 PUSH1 0x60 DUP5 DUP7 SUB SLT ISZERO PUSH2 0x2FF8 JUMPI DUP1 DUP2 REVERT JUMPDEST DUP4 CALLDATALOAD SWAP3 POP PUSH1 0x20 DUP5 ADD CALLDATALOAD SWAP2 POP PUSH2 0x300F PUSH1 0x40 DUP6 ADD PUSH2 0x2C9C JUMP JUMPDEST SWAP1 POP SWAP3 POP SWAP3 POP SWAP3 JUMP JUMPDEST PUSH1 0x0 DUP2 MLOAD DUP1 DUP5 MSTORE PUSH2 0x3030 DUP2 PUSH1 0x20 DUP7 ADD PUSH1 0x20 DUP7 ADD PUSH2 0x3BEC JUMP JUMPDEST PUSH1 0x1F ADD PUSH1 0x1F NOT AND SWAP3 SWAP1 SWAP3 ADD PUSH1 0x20 ADD SWAP3 SWAP2 POP POP JUMP JUMPDEST PUSH1 0x0 DUP4 MLOAD PUSH2 0x3056 DUP2 DUP5 PUSH1 0x20 DUP9 ADD PUSH2 0x3BEC JUMP JUMPDEST DUP4 MLOAD SWAP1 DUP4 ADD SWAP1 PUSH2 0x306A DUP2 DUP4 PUSH1 0x20 DUP9 ADD PUSH2 0x3BEC JUMP JUMPDEST ADD SWAP5 SWAP4 POP POP POP POP JUMP JUMPDEST SWAP1 JUMP JUMPDEST PUSH1 0x1 PUSH1 0x1 PUSH1 0xA0 SHL SUB SWAP2 SWAP1 SWAP2 AND DUP2 MSTORE PUSH1 0x20 ADD SWAP1 JUMP JUMPDEST PUSH1 0x1 PUSH1 0x1 PUSH1 0xA0 SHL SUB DUP6 DUP2 AND DUP3 MSTORE DUP5 AND PUSH1 0x20 DUP3 ADD MSTORE PUSH1 0x40 DUP2 ADD DUP4 SWAP1 MSTORE PUSH1 0x80 PUSH1 0x60 DUP3 ADD DUP2 SWAP1 MSTORE PUSH1 0x0 SWAP1 PUSH2 0x30BD SWAP1 DUP4 ADD DUP5 PUSH2 0x3018 JUMP JUMPDEST SWAP7 SWAP6 POP POP POP POP POP POP JUMP JUMPDEST PUSH1 0x1 PUSH1 0x1 PUSH1 0xA0 SHL SUB SWAP3 SWAP1 SWAP3 AND DUP3 MSTORE PUSH1 0x20 DUP3 ADD MSTORE PUSH1 0x40 ADD SWAP1 JUMP JUMPDEST SWAP1 ISZERO ISZERO DUP2 MSTORE PUSH1 0x20 ADD SWAP1 JUMP JUMPDEST PUSH1 0x0 PUSH1 0x20 DUP3 MSTORE DUP3 PUSH1 0x20 DUP4 ADD MSTORE DUP3 DUP5 PUSH1 0x40 DUP5 ADD CALLDATACOPY DUP2 DUP4 ADD PUSH1 0x40 SWAP1 DUP2 ADD SWAP2 SWAP1 SWAP2 MSTORE PUSH1 0x1F SWAP1 SWAP3 ADD PUSH1 0x1F NOT AND ADD ADD SWAP2 SWAP1 POP JUMP JUMPDEST PUSH1 0x0 PUSH1 0x20 DUP3 MSTORE PUSH2 0x1B3D PUSH1 0x20 DUP4 ADD DUP5 PUSH2 0x3018 JUMP JUMPDEST PUSH1 0x20 DUP1 DUP3 MSTORE PUSH1 0x18 SWAP1 DUP3 ADD MSTORE PUSH32 0x4661696C656420746F207472616E736665722045746865720000000000000000 PUSH1 0x40 DUP3 ADD MSTORE PUSH1 0x60 ADD SWAP1 JUMP JUMPDEST PUSH1 0x20 DUP1 DUP3 MSTORE PUSH1 0x17 SWAP1 DUP3 ADD MSTORE PUSH32 0x50726573616C6520686173206E6F742073746172746564000000000000000000 PUSH1 0x40 DUP3 ADD MSTORE PUSH1 0x60 ADD SWAP1 JUMP JUMPDEST PUSH1 0x20 DUP1 DUP3 MSTORE PUSH1 0x15 SWAP1 DUP3 ADD MSTORE PUSH21 0x4E6F7420636F7272656374204554482076616C7565 PUSH1 0x58 SHL PUSH1 0x40 DUP3 ADD MSTORE PUSH1 0x60 ADD SWAP1 JUMP JUMPDEST PUSH1 0x20 DUP1 DUP3 MSTORE PUSH1 0x2F SWAP1 DUP3 ADD MSTORE PUSH32 0x43616E6E6F742070757263686173652074686973206D616E7920746F6B656E73 PUSH1 0x40 DUP3 ADD MSTORE PUSH15 0x20647572696E672070726573616C65 PUSH1 0x88 SHL PUSH1 0x60 DUP3 ADD MSTORE PUSH1 0x80 ADD SWAP1 JUMP JUMPDEST PUSH1 0x20 DUP1 DUP3 MSTORE DUP2 DUP2 ADD MSTORE PUSH32 0x596F752063616E206F6E6C7920696E637265617365206D617820737570706C79 PUSH1 0x40 DUP3 ADD MSTORE PUSH1 0x60 ADD SWAP1 JUMP JUMPDEST PUSH1 0x20 DUP1 DUP3 MSTORE PUSH1 0x17 SWAP1 DUP3 ADD MSTORE PUSH32 0x596F7520617265206E6F7420746F6B656E206F776E6572000000000000000000 PUSH1 0x40 DUP3 ADD MSTORE PUSH1 0x60 ADD SWAP1 JUMP JUMPDEST PUSH1 0x20 DUP1 DUP3 MSTORE PUSH1 0x2B SWAP1 DUP3 ADD MSTORE PUSH32 0x455243373231456E756D657261626C653A206F776E657220696E646578206F75 PUSH1 0x40 DUP3 ADD MSTORE PUSH11 0x74206F6620626F756E6473 PUSH1 0xA8 SHL PUSH1 0x60 DUP3 ADD MSTORE PUSH1 0x80 ADD SWAP1 JUMP JUMPDEST PUSH1 0x20 DUP1 DUP3 MSTORE PUSH1 0x32 SWAP1 DUP3 ADD MSTORE PUSH32 0x4552433732313A207472616E7366657220746F206E6F6E204552433732315265 PUSH1 0x40 DUP3 ADD MSTORE PUSH18 0x31B2B4BB32B91034B6B83632B6B2B73A32B9 PUSH1 0x71 SHL PUSH1 0x60 DUP3 ADD MSTORE PUSH1 0x80 ADD SWAP1 JUMP JUMPDEST PUSH1 0x20 DUP1 DUP3 MSTORE PUSH1 0x28 SWAP1 DUP3 ADD MSTORE PUSH32 0x50757263686173652065786365656473206D617820616C6C6F77656420666F72 PUSH1 0x40 DUP3 ADD MSTORE PUSH8 0x2070726573616C65 PUSH1 0xC0 SHL PUSH1 0x60 DUP3 ADD MSTORE PUSH1 0x80 ADD SWAP1 JUMP JUMPDEST PUSH1 0x20 DUP1 DUP3 MSTORE PUSH1 0x26 SWAP1 DUP3 ADD MSTORE PUSH32 0x4F776E61626C653A206E6577206F776E657220697320746865207A65726F2061 PUSH1 0x40 DUP3 ADD MSTORE PUSH6 0x646472657373 PUSH1 0xD0 SHL PUSH1 0x60 DUP3 ADD MSTORE PUSH1 0x80 ADD SWAP1 JUMP JUMPDEST PUSH1 0x20 DUP1 DUP3 MSTORE PUSH1 0x25 SWAP1 DUP3 ADD MSTORE PUSH32 0x4552433732313A207472616E736665722066726F6D20696E636F727265637420 PUSH1 0x40 DUP3 ADD MSTORE PUSH5 0x37BBB732B9 PUSH1 0xD9 SHL PUSH1 0x60 DUP3 ADD MSTORE PUSH1 0x80 ADD SWAP1 JUMP JUMPDEST PUSH1 0x20 DUP1 DUP3 MSTORE PUSH1 0x1C SWAP1 DUP3 ADD MSTORE PUSH32 0x4552433732313A20746F6B656E20616C7265616479206D696E74656400000000 PUSH1 0x40 DUP3 ADD MSTORE PUSH1 0x60 ADD SWAP1 JUMP JUMPDEST PUSH1 0x20 DUP1 DUP3 MSTORE PUSH1 0x21 SWAP1 DUP3 ADD MSTORE PUSH32 0x746F74616C526174652063616E6E6F74206265206D6F7265207468616E203130 PUSH1 0x40 DUP3 ADD MSTORE PUSH1 0x3 PUSH1 0xFC SHL PUSH1 0x60 DUP3 ADD MSTORE PUSH1 0x80 ADD SWAP1 JUMP JUMPDEST PUSH1 0x20 DUP1 DUP3 MSTORE PUSH1 0x24 SWAP1 DUP3 ADD MSTORE PUSH32 0x4552433732313A207472616E7366657220746F20746865207A65726F20616464 PUSH1 0x40 DUP3 ADD MSTORE PUSH4 0x72657373 PUSH1 0xE0 SHL PUSH1 0x60 DUP3 ADD MSTORE PUSH1 0x80 ADD SWAP1 JUMP JUMPDEST PUSH1 0x20 DUP1 DUP3 MSTORE PUSH1 0x19 SWAP1 DUP3 ADD MSTORE PUSH32 0x4552433732313A20617070726F766520746F2063616C6C657200000000000000 PUSH1 0x40 DUP3 ADD MSTORE PUSH1 0x60 ADD SWAP1 JUMP JUMPDEST PUSH1 0x20 DUP1 DUP3 MSTORE PUSH1 0x17 SWAP1 DUP3 ADD MSTORE PUSH32 0x54686973206973206E6F7420612076616C696461746F72000000000000000000 PUSH1 0x40 DUP3 ADD MSTORE PUSH1 0x60 ADD SWAP1 JUMP JUMPDEST PUSH1 0x20 DUP1 DUP3 MSTORE PUSH1 0x24 SWAP1 DUP3 ADD MSTORE PUSH32 0x596F7520617265206E6F7420656C696769626C6520666F722074686520707265 PUSH1 0x40 DUP3 ADD MSTORE PUSH4 0x73616C65 PUSH1 0xE0 SHL PUSH1 0x60 DUP3 ADD MSTORE PUSH1 0x80 ADD SWAP1 JUMP JUMPDEST PUSH1 0x20 DUP1 DUP3 MSTORE PUSH1 0x22 SWAP1 DUP3 ADD MSTORE PUSH32 0x596F752063616E6E6F742062757920746F6B656E2066726F6D20796F75727365 PUSH1 0x40 DUP3 ADD MSTORE PUSH2 0x3633 PUSH1 0xF1 SHL PUSH1 0x60 DUP3 ADD MSTORE PUSH1 0x80 ADD SWAP1 JUMP JUMPDEST PUSH1 0x20 DUP1 DUP3 MSTORE PUSH1 0x2C SWAP1 DUP3 ADD MSTORE PUSH32 0x4552433732313A206F70657261746F7220717565727920666F72206E6F6E6578 PUSH1 0x40 DUP3 ADD MSTORE PUSH12 0x34B9BA32B73A103A37B5B2B7 PUSH1 0xA1 SHL PUSH1 0x60 DUP3 ADD MSTORE PUSH1 0x80 ADD SWAP1 JUMP JUMPDEST PUSH1 0x20 DUP1 DUP3 MSTORE PUSH1 0x1E SWAP1 DUP3 ADD MSTORE PUSH32 0x596F752063616E20726576657274206F6E6C7920796F757220746F6B656E0000 PUSH1 0x40 DUP3 ADD MSTORE PUSH1 0x60 ADD SWAP1 JUMP JUMPDEST PUSH1 0x20 DUP1 DUP3 MSTORE PUSH1 0x18 SWAP1 DUP3 ADD MSTORE PUSH32 0x63616C6C6572206973206E6F74207468652061646D696E210000000000000000 PUSH1 0x40 DUP3 ADD MSTORE PUSH1 0x60 ADD SWAP1 JUMP JUMPDEST PUSH1 0x20 DUP1 DUP3 MSTORE PUSH1 0xC SWAP1 DUP3 ADD MSTORE PUSH12 0x115C9C9BDC88185B5BDD5B9D PUSH1 0xA2 SHL PUSH1 0x40 DUP3 ADD MSTORE PUSH1 0x60 ADD SWAP1 JUMP JUMPDEST PUSH1 0x20 DUP1 DUP3 MSTORE PUSH1 0x13 SWAP1 DUP3 ADD MSTORE PUSH19 0x151BDAD95B881A5CC81B9BDD081B1A5CDD1959 PUSH1 0x6A SHL PUSH1 0x40 DUP3 ADD MSTORE PUSH1 0x60 ADD SWAP1 JUMP JUMPDEST PUSH1 0x20 DUP1 DUP3 MSTORE PUSH1 0x38 SWAP1 DUP3 ADD MSTORE PUSH32 0x4552433732313A20617070726F76652063616C6C6572206973206E6F74206F77 PUSH1 0x40 DUP3 ADD MSTORE PUSH32 0x6E6572206E6F7220617070726F76656420666F7220616C6C0000000000000000 PUSH1 0x60 DUP3 ADD MSTORE PUSH1 0x80 ADD SWAP1 JUMP JUMPDEST PUSH1 0x20 DUP1 DUP3 MSTORE PUSH1 0x2A SWAP1 DUP3 ADD MSTORE PUSH32 0x4552433732313A2062616C616E636520717565727920666F7220746865207A65 PUSH1 0x40 DUP3 ADD MSTORE PUSH10 0x726F2061646472657373 PUSH1 0xB0 SHL PUSH1 0x60 DUP3 ADD MSTORE PUSH1 0x80 ADD SWAP1 JUMP JUMPDEST PUSH1 0x20 DUP1 DUP3 MSTORE PUSH1 0x27 SWAP1 DUP3 ADD MSTORE PUSH32 0x4D696E74696E6720776F756C64206578636565642070726573616C65206D6178 PUSH1 0x40 DUP3 ADD MSTORE PUSH7 0x20737570706C79 PUSH1 0xC8 SHL PUSH1 0x60 DUP3 ADD MSTORE PUSH1 0x80 ADD SWAP1 JUMP JUMPDEST PUSH1 0x20 DUP1 DUP3 MSTORE PUSH1 0x29 SWAP1 DUP3 ADD MSTORE PUSH32 0x4552433732313A206F776E657220717565727920666F72206E6F6E6578697374 PUSH1 0x40 DUP3 ADD MSTORE PUSH9 0x32B73A103A37B5B2B7 PUSH1 0xB9 SHL PUSH1 0x60 DUP3 ADD MSTORE PUSH1 0x80 ADD SWAP1 JUMP JUMPDEST PUSH1 0x20 DUP1 DUP3 MSTORE DUP2 DUP2 ADD MSTORE PUSH32 0x4552433732313A206D696E7420746F20746865207A65726F2061646472657373 PUSH1 0x40 DUP3 ADD MSTORE PUSH1 0x60 ADD SWAP1 JUMP JUMPDEST PUSH1 0x20 DUP1 DUP3 MSTORE PUSH1 0x17 SWAP1 DUP3 ADD MSTORE PUSH32 0x45544820616D6F756E7420697320696E636F7272656374000000000000000000 PUSH1 0x40 DUP3 ADD MSTORE PUSH1 0x60 ADD SWAP1 JUMP JUMPDEST PUSH1 0x20 DUP1 DUP3 MSTORE PUSH1 0x2C SWAP1 DUP3 ADD MSTORE PUSH32 0x4552433732313A20617070726F76656420717565727920666F72206E6F6E6578 PUSH1 0x40 DUP3 ADD MSTORE PUSH12 0x34B9BA32B73A103A37B5B2B7 PUSH1 0xA1 SHL PUSH1 0x60 DUP3 ADD MSTORE PUSH1 0x80 ADD SWAP1 JUMP JUMPDEST PUSH1 0x20 DUP1 DUP3 MSTORE PUSH1 0x14 SWAP1 DUP3 ADD MSTORE PUSH20 0x2A3434B99034B9903737BA1030B71030B236B4B7 PUSH1 0x61 SHL PUSH1 0x40 DUP3 ADD MSTORE PUSH1 0x60 ADD SWAP1 JUMP JUMPDEST PUSH1 0x20 DUP1 DUP3 MSTORE DUP2 DUP2 ADD MSTORE PUSH32 0x4F776E61626C653A2063616C6C6572206973206E6F7420746865206F776E6572 PUSH1 0x40 DUP3 ADD MSTORE PUSH1 0x60 ADD SWAP1 JUMP JUMPDEST PUSH1 0x20 DUP1 DUP3 MSTORE PUSH1 0x2F SWAP1 DUP3 ADD MSTORE PUSH32 0x4552433732314D657461646174613A2055524920717565727920666F72206E6F PUSH1 0x40 DUP3 ADD MSTORE PUSH15 0x3732BC34B9BA32B73A103A37B5B2B7 PUSH1 0x89 SHL PUSH1 0x60 DUP3 ADD MSTORE PUSH1 0x80 ADD SWAP1 JUMP JUMPDEST PUSH1 0x20 DUP1 DUP3 MSTORE PUSH1 0x21 SWAP1 DUP3 ADD MSTORE PUSH32 0x4552433732313A20617070726F76616C20746F2063757272656E74206F776E65 PUSH1 0x40 DUP3 ADD MSTORE PUSH1 0x39 PUSH1 0xF9 SHL PUSH1 0x60 DUP3 ADD MSTORE PUSH1 0x80 ADD SWAP1 JUMP JUMPDEST PUSH1 0x20 DUP1 DUP3 MSTORE PUSH1 0x17 SWAP1 DUP3 ADD MSTORE PUSH32 0x43616E6E6F7420616464206E756C6C2061646472657373000000000000000000 PUSH1 0x40 DUP3 ADD MSTORE PUSH1 0x60 ADD SWAP1 JUMP JUMPDEST PUSH1 0x20 DUP1 DUP3 MSTORE PUSH1 0x31 SWAP1 DUP3 ADD MSTORE PUSH32 0x4552433732313A207472616E736665722063616C6C6572206973206E6F74206F PUSH1 0x40 DUP3 ADD MSTORE PUSH17 0x1DDB995C881B9BDC88185C1C1C9BDD9959 PUSH1 0x7A SHL PUSH1 0x60 DUP3 ADD MSTORE PUSH1 0x80 ADD SWAP1 JUMP JUMPDEST PUSH1 0x20 DUP1 DUP3 MSTORE PUSH1 0x2C SWAP1 DUP3 ADD MSTORE PUSH32 0x455243373231456E756D657261626C653A20676C6F62616C20696E646578206F PUSH1 0x40 DUP3 ADD MSTORE PUSH12 0x7574206F6620626F756E6473 PUSH1 0xA0 SHL PUSH1 0x60 DUP3 ADD MSTORE PUSH1 0x80 ADD SWAP1 JUMP JUMPDEST PUSH1 0x20 DUP1 DUP3 MSTORE PUSH1 0x23 SWAP1 DUP3 ADD MSTORE PUSH32 0x416C6C2070726573616C6520746F6B656E732068617665206265656E206D696E PUSH1 0x40 DUP3 ADD MSTORE PUSH3 0x1D1959 PUSH1 0xEA SHL PUSH1 0x60 DUP3 ADD MSTORE PUSH1 0x80 ADD SWAP1 JUMP JUMPDEST PUSH1 0x20 DUP1 DUP3 MSTORE PUSH1 0x12 SWAP1 DUP3 ADD MSTORE PUSH18 0x696E76616C6964206C6F7420737461747573 PUSH1 0x70 SHL PUSH1 0x40 DUP3 ADD MSTORE PUSH1 0x60 ADD SWAP1 JUMP JUMPDEST PUSH1 0x20 DUP1 DUP3 MSTORE PUSH1 0x14 SWAP1 DUP3 ADD MSTORE PUSH20 0x14D85B19481A185CC81B9BDD081CDD185C9D1959 PUSH1 0x62 SHL PUSH1 0x40 DUP3 ADD MSTORE PUSH1 0x60 ADD SWAP1 JUMP JUMPDEST PUSH1 0x20 DUP1 DUP3 MSTORE PUSH1 0x1C SWAP1 DUP3 ADD MSTORE PUSH32 0x63616C6C6572206973206E6F74207468652076616C696461746F722100000000 PUSH1 0x40 DUP3 ADD MSTORE PUSH1 0x60 ADD SWAP1 JUMP JUMPDEST PUSH1 0x20 DUP1 DUP3 MSTORE PUSH1 0x1B SWAP1 DUP3 ADD MSTORE PUSH32 0x416C6C20746F6B656E732068617665206265656E206D696E7465640000000000 PUSH1 0x40 DUP3 ADD MSTORE PUSH1 0x60 ADD SWAP1 JUMP JUMPDEST SWAP1 DUP2 MSTORE PUSH1 0x20 ADD SWAP1 JUMP JUMPDEST SWAP2 DUP3 MSTORE PUSH1 0x20 DUP3 ADD MSTORE PUSH1 0x40 ADD SWAP1 JUMP JUMPDEST PUSH1 0x0 DUP3 NOT DUP3 GT ISZERO PUSH2 0x3B9D JUMPI PUSH2 0x3B9D PUSH2 0x3C82 JUMP JUMPDEST POP ADD SWAP1 JUMP JUMPDEST PUSH1 0x0 DUP3 PUSH2 0x3BB1 JUMPI PUSH2 0x3BB1 PUSH2 0x3C98 JUMP JUMPDEST POP DIV SWAP1 JUMP JUMPDEST PUSH1 0x0 DUP2 PUSH1 0x0 NOT DIV DUP4 GT DUP3 ISZERO ISZERO AND ISZERO PUSH2 0x3BD0 JUMPI PUSH2 0x3BD0 PUSH2 0x3C82 JUMP JUMPDEST POP MUL SWAP1 JUMP JUMPDEST PUSH1 0x0 DUP3 DUP3 LT ISZERO PUSH2 0x3BE7 JUMPI PUSH2 0x3BE7 PUSH2 0x3C82 JUMP JUMPDEST POP SUB SWAP1 JUMP JUMPDEST PUSH1 0x0 JUMPDEST DUP4 DUP2 LT ISZERO PUSH2 0x3C07 JUMPI DUP2 DUP2 ADD MLOAD DUP4 DUP3 ADD MSTORE PUSH1 0x20 ADD PUSH2 0x3BEF JUMP JUMPDEST DUP4 DUP2 GT ISZERO PUSH2 0x1977 JUMPI POP POP PUSH1 0x0 SWAP2 ADD MSTORE JUMP JUMPDEST PUSH1 0x2 DUP2 DIV PUSH1 0x1 DUP3 AND DUP1 PUSH2 0x3C2C JUMPI PUSH1 0x7F DUP3 AND SWAP2 POP JUMPDEST PUSH1 0x20 DUP3 LT DUP2 EQ ISZERO PUSH2 0x3C4D JUMPI PUSH4 0x4E487B71 PUSH1 0xE0 SHL PUSH1 0x0 MSTORE PUSH1 0x22 PUSH1 0x4 MSTORE PUSH1 0x24 PUSH1 0x0 REVERT JUMPDEST POP SWAP2 SWAP1 POP JUMP JUMPDEST PUSH1 0x0 PUSH1 0x0 NOT DUP3 EQ ISZERO PUSH2 0x3C67 JUMPI PUSH2 0x3C67 PUSH2 0x3C82 JUMP JUMPDEST POP PUSH1 0x1 ADD SWAP1 JUMP JUMPDEST PUSH1 0x0 DUP3 PUSH2 0x3C7D JUMPI PUSH2 0x3C7D PUSH2 0x3C98 JUMP JUMPDEST POP MOD SWAP1 JUMP JUMPDEST PUSH4 0x4E487B71 PUSH1 0xE0 SHL PUSH1 0x0 MSTORE PUSH1 0x11 PUSH1 0x4 MSTORE PUSH1 0x24 PUSH1 0x0 REVERT JUMPDEST PUSH4 0x4E487B71 PUSH1 0xE0 SHL PUSH1 0x0 MSTORE PUSH1 0x12 PUSH1 0x4 MSTORE PUSH1 0x24 PUSH1 0x0 REVERT JUMPDEST PUSH4 0x4E487B71 PUSH1 0xE0 SHL PUSH1 0x0 MSTORE PUSH1 0x41 PUSH1 0x4 MSTORE PUSH1 0x24 PUSH1 0x0 REVERT JUMPDEST PUSH1 0x1 PUSH1 0x1 PUSH1 0xE0 SHL SUB NOT DUP2 AND DUP2 EQ PUSH2 0x1F3A JUMPI PUSH1 0x0 DUP1 REVERT INVALID 0xA9 MSTORE JUMPI 0xAE 0xBE 0xFC 0xCF STATICCALL 0xAD LOG4 PUSH22 0x8F028BCE81EA992693BE70592F620C4C9A0D9E715ADF DUP12 0x4C MSTORE 0xF INVALID NOT PUSH29 0x5343C6F5AEC59570151EF9A492F2C624FD45DDDE6135EC42A264697066 PUSH20 0x58221220220434CCFBEA406083D25AF58B617446 0xEA 0xC5 0xE9 0xC4 0xC3 PUSH24 0x274BBA34ECAA1E3A548264736F6C63430008010033000000 "
		},
		"gasEstimates": {
			"creation": {
				"codeDepositCost": "3139200",
				"executionCost": "infinite",
				"totalCost": "infinite"
			},
			"external": {
				"AMOUNT_PREMINT()": "296",
				"FEE_ADDRESS()": "319",
				"MAX_MINT()": "361",
				"MAX_PER_MINT()": "341",
				"PREMINT_ADDRESS()": "364",
				"PRESALE_MAX_MINT()": "362",
				"PRESALE_MAX_PER_MINT()": "296",
				"PRESALE_MAX_SUPPLY()": "339",
				"PRESALE_PRICE()": "362",
				"PRICE()": "318",
				"_lotStates(uint256)": "1237",
				"addAdmin(address)": "infinite",
				"addToPresale(address[])": "infinite",
				"addValidator(address)": "infinite",
				"approve(address,uint256)": "infinite",
				"balanceOf(address)": "1443",
				"baseTokenURI()": "infinite",
				"beneficiaries(uint256)": "2149",
				"buyToken(uint256)": "infinite",
				"changeRoyalty(uint256,bool,uint256)": "infinite",
				"getApproved(uint256)": "2224",
				"getTokenPrice(uint256)": "infinite",
				"isAdmin(address)": "infinite",
				"isApprovedForAll(address,address)": "infinite",
				"isAuthor(address)": "1372",
				"isValidator(address)": "infinite",
				"listToken(uint256,uint256,bool)": "infinite",
				"maxSupply()": "1095",
				"mint(uint256)": "infinite",
				"mintPresale(uint256)": "infinite",
				"name()": "infinite",
				"owner()": "1182",
				"ownerOf(uint256)": "1344",
				"presaleEligible(address)": "1332",
				"removeAdmin(address)": "infinite",
				"removeFromPresale(address)": "22247",
				"removeValidator(address)": "infinite",
				"renounceOwnership()": "23576",
				"revokeToken(uint256)": "infinite",
				"safeTransferFrom(address,address,uint256)": "infinite",
				"safeTransferFrom(address,address,uint256,bytes)": "infinite",
				"setApprovalForAll(address,bool)": "infinite",
				"setBaseURI(string)": "infinite",
				"setMaxSupply(uint256)": "22066",
				"setRoyaltyDistribution(address[],uint256[])": "infinite",
				"startPresale()": "1143",
				"startSale()": "1185",
				"supportsInterface(bytes4)": "infinite",
				"symbol()": "infinite",
				"togglePresaleStarted()": "22024",
				"togglePublicSaleStarted()": "22069",
				"tokenByIndex(uint256)": "2938",
				"tokenOfOwnerByIndex(address,uint256)": "2463",
				"tokenURI(uint256)": "infinite",
				"totalSupply()": "1097",
				"transferFrom(address,address,uint256)": "infinite",
				"transferOwnership(address)": "23790",
				"verify(uint256)": "infinite",
				"widthdraw(uint256)": "infinite"
			},
			"internal": {
				"_addAuthor(address[] memory)": "infinite",
				"_baseURI()": "infinite",
				"_premint()": "infinite"
			}
		},
		"methodIdentifiers": {
			"AMOUNT_PREMINT()": "c8844a0a",
			"FEE_ADDRESS()": "eb1edd61",
			"MAX_MINT()": "f0292a03",
			"MAX_PER_MINT()": "09d42b30",
			"PREMINT_ADDRESS()": "5e9ea652",
			"PRESALE_MAX_MINT()": "549527c3",
			"PRESALE_MAX_PER_MINT()": "29155f2c",
			"PRESALE_MAX_SUPPLY()": "e1b6e098",
			"PRESALE_PRICE()": "62dc6e21",
			"PRICE()": "8d859f3e",
			"_lotStates(uint256)": "f0376690",
			"addAdmin(address)": "70480275",
			"addToPresale(address[])": "aef6ee1f",
			"addValidator(address)": "4d238c8e",
			"approve(address,uint256)": "095ea7b3",
			"balanceOf(address)": "70a08231",
			"baseTokenURI()": "d547cfb7",
			"beneficiaries(uint256)": "efeb5e58",
			"buyToken(uint256)": "2d296bf1",
			"changeRoyalty(uint256,bool,uint256)": "53aa8899",
			"getApproved(uint256)": "081812fc",
			"getTokenPrice(uint256)": "c457fb37",
			"isAdmin(address)": "24d7806c",
			"isApprovedForAll(address,address)": "e985e9c5",
			"isAuthor(address)": "d4b12530",
			"isValidator(address)": "facd743b",
			"listToken(uint256,uint256,bool)": "3041332e",
			"maxSupply()": "d5abeb01",
			"mint(uint256)": "a0712d68",
			"mintPresale(uint256)": "f759867a",
			"name()": "06fdde03",
			"owner()": "8da5cb5b",
			"ownerOf(uint256)": "6352211e",
			"presaleEligible(address)": "55321173",
			"removeAdmin(address)": "1785f53c",
			"removeFromPresale(address)": "8166f39b",
			"removeValidator(address)": "40a141ff",
			"renounceOwnership()": "715018a6",
			"revokeToken(uint256)": "7dc9e79b",
			"safeTransferFrom(address,address,uint256)": "42842e0e",
			"safeTransferFrom(address,address,uint256,bytes)": "b88d4fde",
			"setApprovalForAll(address,bool)": "a22cb465",
			"setBaseURI(string)": "55f804b3",
			"setMaxSupply(uint256)": "6f8b44b0",
			"setRoyaltyDistribution(address[],uint256[])": "b89fc30a",
			"startPresale()": "04c98b2b",
			"startSale()": "b66a0e5d",
			"supportsInterface(bytes4)": "01ffc9a7",
			"symbol()": "95d89b41",
			"togglePresaleStarted()": "ed1fc2a2",
			"togglePublicSaleStarted()": "2f814575",
			"tokenByIndex(uint256)": "4f6ccce7",
			"tokenOfOwnerByIndex(address,uint256)": "2f745c59",
			"tokenURI(uint256)": "c87b56dd",
			"totalSupply()": "18160ddd",
			"transferFrom(address,address,uint256)": "23b872dd",
			"transferOwnership(address)": "f2fde38b",
			"verify(uint256)": "8753367f",
			"widthdraw(uint256)": "e0da260c"
		}
	},
	"abi": [
		{
			"inputs": [
				{
					"internalType": "string",
					"name": "baseURI",
					"type": "string"
				},
				{
					"internalType": "address[]",
					"name": "_authors",
					"type": "address[]"
				},
				{
					"internalType": "string",
					"name": "_name",
					"type": "string"
				},
				{
					"internalType": "string",
					"name": "_symbol",
					"type": "string"
				}
			],
			"stateMutability": "nonpayable",
			"type": "constructor"
		},
		{
			"anonymous": false,
			"inputs": [
				{
					"indexed": false,
					"internalType": "address",
					"name": "_adminAddress",
					"type": "address"
				}
			],
			"name": "AddingAdmin",
			"type": "event"
		},
		{
			"anonymous": false,
			"inputs": [
				{
					"indexed": false,
					"internalType": "address",
					"name": "_authorAddress",
					"type": "address"
				}
			],
			"name": "AddingAuthor",
			"type": "event"
		},
		{
			"anonymous": false,
			"inputs": [
				{
					"indexed": false,
					"internalType": "address",
					"name": "_validatorAddress",
					"type": "address"
				}
			],
			"name": "AddingValidator",
			"type": "event"
		},
		{
			"anonymous": false,
			"inputs": [
				{
					"indexed": true,
					"internalType": "address",
					"name": "owner",
					"type": "address"
				},
				{
					"indexed": true,
					"internalType": "address",
					"name": "approved",
					"type": "address"
				},
				{
					"indexed": true,
					"internalType": "uint256",
					"name": "tokenId",
					"type": "uint256"
				}
			],
			"name": "Approval",
			"type": "event"
		},
		{
			"anonymous": false,
			"inputs": [
				{
					"indexed": true,
					"internalType": "address",
					"name": "owner",
					"type": "address"
				},
				{
					"indexed": true,
					"internalType": "address",
					"name": "operator",
					"type": "address"
				},
				{
					"indexed": false,
					"internalType": "bool",
					"name": "approved",
					"type": "bool"
				}
			],
			"name": "ApprovalForAll",
			"type": "event"
		},
		{
			"anonymous": false,
			"inputs": [
				{
					"indexed": false,
					"internalType": "string",
					"name": "baseURI",
					"type": "string"
				}
			],
			"name": "ChangeBaseURI",
			"type": "event"
		},
		{
			"anonymous": false,
			"inputs": [
				{
					"indexed": false,
					"internalType": "uint256",
					"name": "lot",
					"type": "uint256"
				},
				{
					"indexed": false,
					"internalType": "uint256",
					"name": "value",
					"type": "uint256"
				}
			],
			"name": "ChangeStateLot",
			"type": "event"
		},
		{
			"anonymous": false,
			"inputs": [
				{
					"indexed": true,
					"internalType": "address",
					"name": "previousOwner",
					"type": "address"
				},
				{
					"indexed": true,
					"internalType": "address",
					"name": "newOwner",
					"type": "address"
				}
			],
			"name": "OwnershipTransferred",
			"type": "event"
		},
		{
			"anonymous": false,
			"inputs": [
				{
					"indexed": false,
					"internalType": "address",
					"name": "minter",
					"type": "address"
				},
				{
					"indexed": false,
					"internalType": "uint256",
					"name": "amountOf",
					"type": "uint256"
				}
			],
			"name": "PresaleMint",
			"type": "event"
		},
		{
			"anonymous": false,
			"inputs": [
				{
					"indexed": false,
					"internalType": "address",
					"name": "minter",
					"type": "address"
				},
				{
					"indexed": false,
					"internalType": "uint256",
					"name": "amountOf",
					"type": "uint256"
				}
			],
			"name": "PublicSaleMint",
			"type": "event"
		},
		{
			"anonymous": false,
			"inputs": [
				{
					"indexed": false,
					"internalType": "address",
					"name": "_adminAddress",
					"type": "address"
				}
			],
			"name": "RemoveAdmin",
			"type": "event"
		},
		{
			"anonymous": false,
			"inputs": [
				{
					"indexed": false,
					"internalType": "address",
					"name": "_validatorAddress",
					"type": "address"
				}
			],
			"name": "RemoveValidator",
			"type": "event"
		},
		{
			"anonymous": false,
			"inputs": [
				{
					"indexed": true,
					"internalType": "address",
					"name": "from",
					"type": "address"
				},
				{
					"indexed": true,
					"internalType": "address",
					"name": "to",
					"type": "address"
				},
				{
					"indexed": true,
					"internalType": "uint256",
					"name": "tokenId",
					"type": "uint256"
				}
			],
			"name": "Transfer",
			"type": "event"
		},
		{
			"inputs": [],
			"name": "AMOUNT_PREMINT",
			"outputs": [
				{
					"internalType": "uint256",
					"name": "",
					"type": "uint256"
				}
			],
			"stateMutability": "view",
			"type": "function"
		},
		{
			"inputs": [],
			"name": "FEE_ADDRESS",
			"outputs": [
				{
					"internalType": "address",
					"name": "",
					"type": "address"
				}
			],
			"stateMutability": "view",
			"type": "function"
		},
		{
			"inputs": [],
			"name": "MAX_MINT",
			"outputs": [
				{
					"internalType": "uint256",
					"name": "",
					"type": "uint256"
				}
			],
			"stateMutability": "view",
			"type": "function"
		},
		{
			"inputs": [],
			"name": "MAX_PER_MINT",
			"outputs": [
				{
					"internalType": "uint256",
					"name": "",
					"type": "uint256"
				}
			],
			"stateMutability": "view",
			"type": "function"
		},
		{
			"inputs": [],
			"name": "PREMINT_ADDRESS",
			"outputs": [
				{
					"internalType": "address",
					"name": "",
					"type": "address"
				}
			],
			"stateMutability": "view",
			"type": "function"
		},
		{
			"inputs": [],
			"name": "PRESALE_MAX_MINT",
			"outputs": [
				{
					"internalType": "uint256",
					"name": "",
					"type": "uint256"
				}
			],
			"stateMutability": "view",
			"type": "function"
		},
		{
			"inputs": [],
			"name": "PRESALE_MAX_PER_MINT",
			"outputs": [
				{
					"internalType": "uint256",
					"name": "",
					"type": "uint256"
				}
			],
			"stateMutability": "view",
			"type": "function"
		},
		{
			"inputs": [],
			"name": "PRESALE_MAX_SUPPLY",
			"outputs": [
				{
					"internalType": "uint256",
					"name": "",
					"type": "uint256"
				}
			],
			"stateMutability": "view",
			"type": "function"
		},
		{
			"inputs": [],
			"name": "PRESALE_PRICE",
			"outputs": [
				{
					"internalType": "uint256",
					"name": "",
					"type": "uint256"
				}
			],
			"stateMutability": "view",
			"type": "function"
		},
		{
			"inputs": [],
			"name": "PRICE",
			"outputs": [
				{
					"internalType": "uint256",
					"name": "",
					"type": "uint256"
				}
			],
			"stateMutability": "view",
			"type": "function"
		},
		{
			"inputs": [
				{
					"internalType": "uint256",
					"name": "",
					"type": "uint256"
				}
			],
			"name": "_lotStates",
			"outputs": [
				{
					"internalType": "uint256",
					"name": "",
					"type": "uint256"
				}
			],
			"stateMutability": "view",
			"type": "function"
		},
		{
			"inputs": [
				{
					"internalType": "address",
					"name": "_address",
					"type": "address"
				}
			],
			"name": "addAdmin",
			"outputs": [],
			"stateMutability": "nonpayable",
			"type": "function"
		},
		{
			"inputs": [
				{
					"internalType": "address[]",
					"name": "_addresses",
					"type": "address[]"
				}
			],
			"name": "addToPresale",
			"outputs": [],
			"stateMutability": "nonpayable",
			"type": "function"
		},
		{
			"inputs": [
				{
					"internalType": "address",
					"name": "_address",
					"type": "address"
				}
			],
			"name": "addValidator",
			"outputs": [],
			"stateMutability": "nonpayable",
			"type": "function"
		},
		{
			"inputs": [
				{
					"internalType": "address",
					"name": "to",
					"type": "address"
				},
				{
					"internalType": "uint256",
					"name": "tokenId",
					"type": "uint256"
				}
			],
			"name": "approve",
			"outputs": [],
			"stateMutability": "nonpayable",
			"type": "function"
		},
		{
			"inputs": [
				{
					"internalType": "address",
					"name": "owner",
					"type": "address"
				}
			],
			"name": "balanceOf",
			"outputs": [
				{
					"internalType": "uint256",
					"name": "",
					"type": "uint256"
				}
			],
			"stateMutability": "view",
			"type": "function"
		},
		{
			"inputs": [],
			"name": "baseTokenURI",
			"outputs": [
				{
					"internalType": "string",
					"name": "",
					"type": "string"
				}
			],
			"stateMutability": "view",
			"type": "function"
		},
		{
			"inputs": [
				{
					"internalType": "uint256",
					"name": "",
					"type": "uint256"
				}
			],
			"name": "beneficiaries",
			"outputs": [
				{
					"internalType": "address",
					"name": "",
					"type": "address"
				}
			],
			"stateMutability": "view",
			"type": "function"
		},
		{
			"inputs": [
				{
					"internalType": "uint256",
					"name": "_tokenID",
					"type": "uint256"
				}
			],
			"name": "buyToken",
			"outputs": [],
			"stateMutability": "payable",
			"type": "function"
		},
		{
			"inputs": [
				{
					"internalType": "uint256",
					"name": "_royaltyPercentage",
					"type": "uint256"
				},
				{
					"internalType": "bool",
					"name": "_royaltyType",
					"type": "bool"
				},
				{
					"internalType": "uint256",
					"name": "_decrease",
					"type": "uint256"
				}
			],
			"name": "changeRoyalty",
			"outputs": [],
			"stateMutability": "nonpayable",
			"type": "function"
		},
		{
			"inputs": [
				{
					"internalType": "uint256",
					"name": "tokenId",
					"type": "uint256"
				}
			],
			"name": "getApproved",
			"outputs": [
				{
					"internalType": "address",
					"name": "",
					"type": "address"
				}
			],
			"stateMutability": "view",
			"type": "function"
		},
		{
			"inputs": [
				{
					"internalType": "uint256",
					"name": "_tokenID",
					"type": "uint256"
				}
			],
			"name": "getTokenPrice",
			"outputs": [
				{
					"internalType": "uint256",
					"name": "_totalPrice",
					"type": "uint256"
				}
			],
			"stateMutability": "view",
			"type": "function"
		},
		{
			"inputs": [
				{
					"internalType": "address",
					"name": "_user",
					"type": "address"
				}
			],
			"name": "isAdmin",
			"outputs": [
				{
					"internalType": "bool",
					"name": "",
					"type": "bool"
				}
			],
			"stateMutability": "view",
			"type": "function"
		},
		{
			"inputs": [
				{
					"internalType": "address",
					"name": "owner",
					"type": "address"
				},
				{
					"internalType": "address",
					"name": "operator",
					"type": "address"
				}
			],
			"name": "isApprovedForAll",
			"outputs": [
				{
					"internalType": "bool",
					"name": "",
					"type": "bool"
				}
			],
			"stateMutability": "view",
			"type": "function"
		},
		{
			"inputs": [
				{
					"internalType": "address",
					"name": "_user",
					"type": "address"
				}
			],
			"name": "isAuthor",
			"outputs": [
				{
					"internalType": "bool",
					"name": "",
					"type": "bool"
				}
			],
			"stateMutability": "view",
			"type": "function"
		},
		{
			"inputs": [
				{
					"internalType": "address",
					"name": "_user",
					"type": "address"
				}
			],
			"name": "isValidator",
			"outputs": [
				{
					"internalType": "bool",
					"name": "",
					"type": "bool"
				}
			],
			"stateMutability": "view",
			"type": "function"
		},
		{
			"inputs": [
				{
					"internalType": "uint256",
					"name": "_tokenID",
					"type": "uint256"
				},
				{
					"internalType": "uint256",
					"name": "_priceWei",
					"type": "uint256"
				},
				{
					"internalType": "bool",
					"name": "selfValidate",
					"type": "bool"
				}
			],
			"name": "listToken",
			"outputs": [],
			"stateMutability": "nonpayable",
			"type": "function"
		},
		{
			"inputs": [],
			"name": "maxSupply",
			"outputs": [
				{
					"internalType": "uint256",
					"name": "",
					"type": "uint256"
				}
			],
			"stateMutability": "view",
			"type": "function"
		},
		{
			"inputs": [
				{
					"internalType": "uint256",
					"name": "_amountOfTokens",
					"type": "uint256"
				}
			],
			"name": "mint",
			"outputs": [],
			"stateMutability": "payable",
			"type": "function"
		},
		{
			"inputs": [
				{
					"internalType": "uint256",
					"name": "_amountOfTokens",
					"type": "uint256"
				}
			],
			"name": "mintPresale",
			"outputs": [],
			"stateMutability": "payable",
			"type": "function"
		},
		{
			"inputs": [],
			"name": "name",
			"outputs": [
				{
					"internalType": "string",
					"name": "",
					"type": "string"
				}
			],
			"stateMutability": "view",
			"type": "function"
		},
		{
			"inputs": [],
			"name": "owner",
			"outputs": [
				{
					"internalType": "address",
					"name": "",
					"type": "address"
				}
			],
			"stateMutability": "view",
			"type": "function"
		},
		{
			"inputs": [
				{
					"internalType": "uint256",
					"name": "tokenId",
					"type": "uint256"
				}
			],
			"name": "ownerOf",
			"outputs": [
				{
					"internalType": "address",
					"name": "",
					"type": "address"
				}
			],
			"stateMutability": "view",
			"type": "function"
		},
		{
			"inputs": [
				{
					"internalType": "address",
					"name": "",
					"type": "address"
				}
			],
			"name": "presaleEligible",
			"outputs": [
				{
					"internalType": "bool",
					"name": "",
					"type": "bool"
				}
			],
			"stateMutability": "view",
			"type": "function"
		},
		{
			"inputs": [
				{
					"internalType": "address",
					"name": "_address",
					"type": "address"
				}
			],
			"name": "removeAdmin",
			"outputs": [],
			"stateMutability": "nonpayable",
			"type": "function"
		},
		{
			"inputs": [
				{
					"internalType": "address",
					"name": "_address",
					"type": "address"
				}
			],
			"name": "removeFromPresale",
			"outputs": [],
			"stateMutability": "nonpayable",
			"type": "function"
		},
		{
			"inputs": [
				{
					"internalType": "address",
					"name": "_address",
					"type": "address"
				}
			],
			"name": "removeValidator",
			"outputs": [],
			"stateMutability": "nonpayable",
			"type": "function"
		},
		{
			"inputs": [],
			"name": "renounceOwnership",
			"outputs": [],
			"stateMutability": "nonpayable",
			"type": "function"
		},
		{
			"inputs": [
				{
					"internalType": "uint256",
					"name": "_tokenID",
					"type": "uint256"
				}
			],
			"name": "revokeToken",
			"outputs": [],
			"stateMutability": "payable",
			"type": "function"
		},
		{
			"inputs": [
				{
					"internalType": "address",
					"name": "from",
					"type": "address"
				},
				{
					"internalType": "address",
					"name": "to",
					"type": "address"
				},
				{
					"internalType": "uint256",
					"name": "_tokenID",
					"type": "uint256"
				}
			],
			"name": "safeTransferFrom",
			"outputs": [],
			"stateMutability": "nonpayable",
			"type": "function"
		},
		{
			"inputs": [
				{
					"internalType": "address",
					"name": "from",
					"type": "address"
				},
				{
					"internalType": "address",
					"name": "to",
					"type": "address"
				},
				{
					"internalType": "uint256",
					"name": "tokenId",
					"type": "uint256"
				},
				{
					"internalType": "bytes",
					"name": "_data",
					"type": "bytes"
				}
			],
			"name": "safeTransferFrom",
			"outputs": [],
			"stateMutability": "nonpayable",
			"type": "function"
		},
		{
			"inputs": [
				{
					"internalType": "address",
					"name": "operator",
					"type": "address"
				},
				{
					"internalType": "bool",
					"name": "approved",
					"type": "bool"
				}
			],
			"name": "setApprovalForAll",
			"outputs": [],
			"stateMutability": "nonpayable",
			"type": "function"
		},
		{
			"inputs": [
				{
					"internalType": "string",
					"name": "baseURI",
					"type": "string"
				}
			],
			"name": "setBaseURI",
			"outputs": [],
			"stateMutability": "nonpayable",
			"type": "function"
		},
		{
			"inputs": [
				{
					"internalType": "uint256",
					"name": "_max",
					"type": "uint256"
				}
			],
			"name": "setMaxSupply",
			"outputs": [],
			"stateMutability": "nonpayable",
			"type": "function"
		},
		{
			"inputs": [
				{
					"internalType": "address[]",
					"name": "_addresses",
					"type": "address[]"
				},
				{
					"internalType": "uint256[]",
					"name": "_rate",
					"type": "uint256[]"
				}
			],
			"name": "setRoyaltyDistribution",
			"outputs": [],
			"stateMutability": "nonpayable",
			"type": "function"
		},
		{
			"inputs": [],
			"name": "startPresale",
			"outputs": [
				{
					"internalType": "bool",
					"name": "",
					"type": "bool"
				}
			],
			"stateMutability": "view",
			"type": "function"
		},
		{
			"inputs": [],
			"name": "startSale",
			"outputs": [
				{
					"internalType": "bool",
					"name": "",
					"type": "bool"
				}
			],
			"stateMutability": "view",
			"type": "function"
		},
		{
			"inputs": [
				{
					"internalType": "bytes4",
					"name": "interfaceId",
					"type": "bytes4"
				}
			],
			"name": "supportsInterface",
			"outputs": [
				{
					"internalType": "bool",
					"name": "",
					"type": "bool"
				}
			],
			"stateMutability": "view",
			"type": "function"
		},
		{
			"inputs": [],
			"name": "symbol",
			"outputs": [
				{
					"internalType": "string",
					"name": "",
					"type": "string"
				}
			],
			"stateMutability": "view",
			"type": "function"
		},
		{
			"inputs": [],
			"name": "togglePresaleStarted",
			"outputs": [],
			"stateMutability": "nonpayable",
			"type": "function"
		},
		{
			"inputs": [],
			"name": "togglePublicSaleStarted",
			"outputs": [],
			"stateMutability": "nonpayable",
			"type": "function"
		},
		{
			"inputs": [
				{
					"internalType": "uint256",
					"name": "index",
					"type": "uint256"
				}
			],
			"name": "tokenByIndex",
			"outputs": [
				{
					"internalType": "uint256",
					"name": "",
					"type": "uint256"
				}
			],
			"stateMutability": "view",
			"type": "function"
		},
		{
			"inputs": [
				{
					"internalType": "address",
					"name": "owner",
					"type": "address"
				},
				{
					"internalType": "uint256",
					"name": "index",
					"type": "uint256"
				}
			],
			"name": "tokenOfOwnerByIndex",
			"outputs": [
				{
					"internalType": "uint256",
					"name": "",
					"type": "uint256"
				}
			],
			"stateMutability": "view",
			"type": "function"
		},
		{
			"inputs": [
				{
					"internalType": "uint256",
					"name": "tokenId",
					"type": "uint256"
				}
			],
			"name": "tokenURI",
			"outputs": [
				{
					"internalType": "string",
					"name": "",
					"type": "string"
				}
			],
			"stateMutability": "view",
			"type": "function"
		},
		{
			"inputs": [],
			"name": "totalSupply",
			"outputs": [
				{
					"internalType": "uint256",
					"name": "",
					"type": "uint256"
				}
			],
			"stateMutability": "view",
			"type": "function"
		},
		{
			"inputs": [
				{
					"internalType": "address",
					"name": "from",
					"type": "address"
				},
				{
					"internalType": "address",
					"name": "to",
					"type": "address"
				},
				{
					"internalType": "uint256",
					"name": "tokenId",
					"type": "uint256"
				}
			],
			"name": "transferFrom",
			"outputs": [],
			"stateMutability": "nonpayable",
			"type": "function"
		},
		{
			"inputs": [
				{
					"internalType": "address",
					"name": "newOwner",
					"type": "address"
				}
			],
			"name": "transferOwnership",
			"outputs": [],
			"stateMutability": "nonpayable",
			"type": "function"
		},
		{
			"inputs": [
				{
					"internalType": "uint256",
					"name": "_id",
					"type": "uint256"
				}
			],
			"name": "verify",
			"outputs": [],
			"stateMutability": "nonpayable",
			"type": "function"
		},
		{
			"inputs": [
				{
					"internalType": "uint256",
					"name": "_amount",
					"type": "uint256"
				}
			],
			"name": "widthdraw",
			"outputs": [],
			"stateMutability": "nonpayable",
			"type": "function"
		}
	]
}